:100000000C94D2170C94FC170C94FC170C94FC174E
:100010000C94FC170C94FC170C94FC170C94FC1714
:100020000C94FC170C94409B0C94FC170C94FC173C
:100030000C94FC170C9443410C94FC170C94FC1783
:100040000C94FC170C94536A0C94F69A0C94FC17BD
:100050000C94D1380C94FC170C94FC170C94FC17DE
:100060000C94FC170C94FC170C94FC170C94FC17C4
:100070000C94FC170C94FC170C94FC170C94FC17B4
:100080000C94FC170C94FC170C94FC172A8C2D8CE8
:10009000208C248C448C448C318C358C3B8C3F8C54
:1000A0005F91649169917391A191A1917D918591E5
:1000B0008D919791DFCFA6CEDDCE1BD0DDCEDDCEEC
:1000C000DDCEDDCEDDCEDDCEDDCEDDCEDDCEDDCED8
:1000D000DDCEDDCEDDCEDDCEDDCEDDCEDDCEDDCEC8
:1000E000DDCEDDCEDDCEDDCEDDCEDDCEDDCEDDCEB8
:1000F00015D0DDCEDDCEDDCEDDCEDDCEDDCEDDCE6E
:10010000DDCEEECFDDCEDDCEDDCEDDCEDDCEDDCE85
:10011000DDCEDDCEDDCEDDCE32D0DACE084AD73B25
:100120003BCE016E84BCBFFDC12F3D6C74319ABDC6
:1001300056833DDA3D00C77F11BED9E4BB4C3E91EA
:100140006BAAAABE000000803F05A84CCDB2D44ED9
:10015000B93836A9020C50B9918688083CA6AAAADB
:100160002ABE000000803F004E414E494E4954597E
:10017000494E46CDCCCC3D0AD7233C17B7D1387772
:10018000CC2B329595E6241FB14F0A000020410088
:1001900000C84200401C4620BCBE4CCA1B0E5AAED2
:1001A000C59D74434F4D4D554E49434154494F4EA3
:1001B0000044525952554E004552524F5253004935
:1001C0004E464F004543484F0047322F4733206289
:1001D000616420706172616D65746572730A0053A9
:1001E0006C6565702E2E2E00436C69636B20746FF6
:1001F00020726573756D652E2E2E004E6F206D6F0B
:1002000076652E00456E642066696C65206C6973A6
:10021000740A00426567696E2066696C65206C69C6
:1002200073740A00286E6F2066696C652900534458
:10023000207072696E74696E67206279746520003F
:100240004E6F74205344207072696E74696E670A31
:100250000043757272656E742066696C653A2000A1
:1002600046696C652064656C657465643A00446534
:100270006C6574696F6E206661696C65642C2046DC
:10028000696C653A20002569730025696D20256930
:1002900073002569682025696D202569730025692B
:1002A00064202569682025696D202569730025690A
:1002B0007920256964202569682025696D202569D4
:1002C00073005072696E742074696D653A2000C4C1
:1002D00001BF01B801B101A3016F66660044454248
:1002E00055473A004B494C4C45442E20004D313186
:1002F000332053006F6B00456E6465722D33204FC1
:1003000066662E002C20002C2000544845524D419A
:100310004C5F50524F54454354494F4E0041555441
:100320004F5245504F52545F53445F5354415455BC
:100330005300454D455247454E43595F5041525336
:10034000455200434153455F4C494748545F425230
:10035000494748544E45535300544F47474C455F17
:100360004C494748545300534F4654574152455FF8
:10037000504F574552004255494C445F50455243F7
:10038000454E54004C4556454C494E475F444154F8
:1003900041005A5F50524F4245004155544F4C4521
:1003A00056454C005052494E545F4A4F42005052FD
:1003B0004F4752455353004155544F5245504F52A9
:1003C000545F54454D5000564F4C554D455452497D
:1003D0004300454550524F4D0053455249414C5FF3
:1003E000584F4E5F584F4646004649524D5741526E
:1003F000455F4E414D453A4D61726C696E206275A4
:10040000676669782D312E312E7820284769746807
:1004100075622920534F555243455F434F44455F12
:1004200055524C3A68747470733A2F2F6769746828
:1004300075622E636F6D2F4D61726C696E466972C5
:100440006D776172652F4D61726C696E2050524FED
:10045000544F434F4C5F56455253494F4E3A312EFD
:1004600030204D414348494E455F545950453A4527
:100470006E6465722D332045585452554445525F81
:10048000434F554E543A3120555549443A636564BB
:1004900065326132662D343161322D343734382D76
:1004A000396231322D63353563363266333637661D
:1004B000660A002F2F20004D31343520533C696EE1
:1004C0006465783E206F7574206F662072616E6778
:1004D000652028302D31290A002054002052004187
:1004E0006363656C65726174696F6E3A20500020B9
:1004F0005A00205900580020204D61783A200020F1
:100500005A00205900580020204D696E3A20004FB3
:100510006E20004F666600536F667420656E6473CC
:10052000746F70733A200020466C6F773A20000099
:10053000010F150E12FFFFFFFF16170E13FFFFFF2F
:10054000FF03021A14FFFFFFFFFFFFFF0C04FFFF72
:10055000FF01000EFFFFFF0C190DFF1820643A0089
:1005600020693A0020703A00496E76616C69642017
:1005700065787472756465720A0043290A006162C5
:100580006C656420286D696E2074656D7020004371
:100590006F6C642065787472756465732061726530
:1005A00020004E6F2063617365206C696768740A70
:1005B00000454550524F4D204F4B0A00416374692E
:1005C00076652045787472756465723A2000496ECC
:1005D00076616C69642065787472756465720A006E
:1005E0004B494C4C45442E200053544F50504544E9
:1005F0002E20005072696E7465722073746F707073
:1006000065642064756520746F206572726F727303
:100610002E2046697820746865206572726F72209A
:10062000616E6420757365204D39393920746F20EF
:10063000726573746172742E202854656D706572D2
:1006400061747572652069732072657365742E20FC
:1006500053657420697420616674657220726573D5
:1006600074617274696E67290A004E6F2043686571
:10067000636B73756D2077697468206C696E652093
:100680006E756D6265722C204C617374204C696EBE
:10069000653A20004E6F20436865636B73756D206B
:1006A00077697468206C696E65206E756D6265721D
:1006B0002C204C617374204C696E653A200063688D
:1006C00065636B73756D206D69736D617463682C00
:1006D000204C617374204C696E653A20004C696E41
:1006E00065204E756D626572206973206E6F74208F
:1006F0004C617374204C696E65204E756D62657235
:100700002B312C204C617374204C696E653A2000AB
:100710004D313130004D33310053442072656164F6
:10072000206572726F720A00446F6E652070726984
:100730006E74696E672066696C650A0020496E7682
:10074000616C69642065787472756465722000005C
:10075000000000000000000000000000006B4300EB
:10076000006B4300007A4357726974696E672074A6
:100770006F2066696C653A20006F70656E20666157
:10078000696C65642C2046696C653A20006F706561
:100790006E206661696C65642C2046696C653A2040
:1007A0000046696C652073656C65637465640A0056
:1007B0002053697A653A200046696C65206F706540
:1007C0006E65643A20002066696C653A2000646FAB
:1007D000696E67006672657368004E6F772000452A
:1007E0004E4420535542524F5554494E450A00221B
:1007F00020706F73002220706172656E743A22005F
:10080000535542524F5554494E452043414C4C207C
:100810007461726765743A22004B494C4C45442E12
:100820002000747279696E6720746F2063616C6C4C
:10083000207375622D67636F64652066696C6573EC
:10084000207769746820746F6F206D616E79206CF9
:100850006576656C732E204D4158206C6576656C0D
:100860002069733A004572726F723A006F70656E5C
:10087000206661696C65642C2046696C653A2000CD
:1008800043616E6E6F74206F70656E207375626465
:10089000697220006563686F3A0024F4D43050C355
:1008A0008E20C2A24017828B7011127A910D816C3A
:1008B000D90AA861E108C7586607615143061E4B73
:1008C0005D05C145A7041A411104093D980371391A
:1008D00031034036DB0265339102D4305402802E5E
:1008E0001D02632CEE01752AC501B028A001102756
:1008F00081018F2564012B244B01E0223401AC21BE
:100900001F018D200D01801FFC00841EED00971D2E
:10091000DF00B81CD200E61BC600201BBC00641A16
:10092000B200B219A8000A19A0006A189900D117DC
:10093000910040178B00B516840031167E00B31568
:1009400079003A157300C7146F0058146A00EE134B
:1009500066008813630025135E00C7125B006C12EB
:10096000570015125400C111510070114F00211190
:100970004B00D61049008D1047004610440002106D
:100980004200C00F4000800F3E00420F3C00060FA7
:100990003B00CB0E3800930E37005C0E3500270E5F
:1009A0003400F30D3200C10D3100900D3000600DA8
:1009B0002E00320D2D00050D2C00D90C2B00AE0C95
:1009C0002900850C29005C0C2700350C27000E0C33
:1009D0002600E80B2400C40B2400A00B23007D0B91
:1009E00023005A0B2100390B2100180B2000F80AB4
:1009F0001F00D90A1E00BB0A1E009D0A1D00800AA6
:100A00001D00630A1C00470A1B002C0A1B00110A68
:100A10001A00F7091A00DD091900C4091900AB0909
:100A20001900920917007B091800630917004C0987
:100A3000160036091600200916000A091500F508E7
:100A40001500E0081400CC081400B8081400A4082D
:100A50001400900813007D0812006B08130058085A
:100A60001200460812003408110023081100120871
:100A7000110001081100F0071000E0071000D00776
:100A80001000C0071000B0070F00A1071000910769
:100A90000E0083070F0074070F0065070E0057074D
:100AA0000E0049070E003B070D002E070E00200721
:100AB0000D0013070D0006070D00F9060C00ED06EA
:100AC0000D00E0060C00D4060C00C8060C00BC06A5
:100AD0000C00B0060C00A4060B0099060C008D0655
:100AE0000B0082060B0077060B006C060B006106FC
:100AF0000A0057060B004C060A0042060A00380698
:100B00000A002E060A0024060A001A060A00100629
:100B1000090007060A00FD050900F4050900EB05B8
:100B20000900E2050900D9050900D0050900C7053B
:100B30000900BE050900B5050800AD050800A505BA
:100B400009009C050800940508008C050800840530
:100B500008007C050800740508006C0507006505A1
:100B600008005D050700560508004E05070047050B
:100B700007004005080038050700310507002A0571
:100B80000700230507001C050600160507000F05D2
:100B900007000805060002050700FB040600F5042F
:100BA0000700EE040600E8040600E2040700DB0488
:100BB0000600D5040600CF040600C9040600C304DD
:100BC0000600BD040600B7040600B1040500AC042D
:100BD0000600A6040600A00405009B040600950478
:100BE0000500900406008A040500850405008004C1
:100BF00006007A04050075040500700405006B0406
:100C0000050066040500610405005C040500570446
:100C10000500520405004D04050048040500430486
:100C200005003E0404003A040500350405003004C4
:100C300004002C04050027040400230405001E04FE
:100C400004001A04040016040500110404000D0435
:100C50000400090405000404040000040400FC036B
:100C60000400F8030400F4030400F0030400EC03A0
:100C70000400E8030400E4030400E0030400DC03D0
:100C80000400D8030400D4030400D0030400CC0300
:100C90000400C8030300C503030024F404D9201B87
:100CA000C40C5C0E9804C4095F0265077101F40569
:100CB000F900FB04B30048048700C103690058032E
:100CC000550003034500BE023A008402310053027E
:100CD0002A002902250004022000E4011C00C801AA
:100CE0001900AF011700980114008401130071016D
:100CF00010006101100051010E0043010D0036018A
:100D00000B002B010B0020010B00150109000C0149
:100D1000090003010800FB000800F3000800EB00D5
:100D20000700E4000600DE000600D8000600D2003E
:100D30000600CC000500C7000500C2000500BD008C
:100D40000400B9000400B5000400B1000400AD00C7
:100D50000400A9000400A5000300A20003009F00F6
:100D600004009B000300980003009500020093001C
:100D70000300900003008D0002008B000300880038
:100D800002008600020084000300810002007F0050
:100D900002007D0002007B00020079000200770063
:100DA0000100760002007400020072000100710070
:100DB00002006F0002006D0001006C0002006A007A
:100DC0000100690002006700010066000100650083
:100DD0000100640002006200010061000100600087
:100DE00001005F0002005D0001005C0001005B008B
:100DF00001005A000100590001005800010057008D
:100E0000010056000100550001005400010053008C
:100E10000000530001005200010051000100500089
:100E200001004F0001004E0000004E0001004D0087
:100E300001004C0001004B0000004B0001004A0083
:100E4000010049000100480000004800010047007F
:100E5000010046000000460001004500000045007A
:100E60000100440001004300000043000100420073
:100E7000000042000100410000004100010040006C
:100E800001003F0000003F0001003E0000003E0066
:100E900001003D0000003D0001003C0000003C005E
:100EA00000003C0001003B0000003B0001003A0054
:100EB00000003A000100390000003900010038004C
:100EC0000000380000003800010037000000370043
:100ED0000100360000003600000036000100350039
:100EE000000035000000350001003400000034002F
:100EF0000000340001003300000033000000330024
:100F00000100320000003200000032000100310018
:100F1000000031000000310001003000000030000E
:100F20000000300001002F0000002F0000002F0003
:100F300000002F0001002E0000002E0000002E00F7
:100F400001002D0000002D0000002D0000002D00EC
:100F500001002C0000002C0000002C0000002C00E0
:100F600001002B0000002B0000002B0000002B00D4
:100F700001002A0000002A0000002A0000002A00C8
:100F800001002900000029000000290000002900BC
:100F900000002900010028000000280000002800AF
:100FA00000002800000028000100270000002700A2
:100FB0000000270000002700000027000100260095
:100FC0000000260000002600000026000000260089
:100FD000010025000000250000002500000025007C
:100FE000000025000000250001002400000024006E
:100FF0000000240000002400000024000100230061
:101000000000230000002300000023000000230054
:101010000000230000002300010022000000220045
:101020000000220000002200000022000000220038
:10103000010021000000210000002100000021002B
:10104000000021000000210000002100010020001C
:101050000000200000002000000020000000200010
:1010600000002000000020000000200001001F0000
:1010700000001F0000001F0000001F0000001F00F4
:1010800000001F0000001F0001001E0000001E00E5
:1010900000001E0000001E000000043700001E2992
:1010A0000000511B00005810000010090000CC0483
:1010B000000078020000410100006265640A002C13
:1010C0002073797374656D2073746F70706564211B
:1010D000204865617465725F49443A200045787420
:1010E0007275646572004D6F7665205A004D6F769B
:1010F000652059004D6F766520580050726570610B
:10110000726500496E697469616C697A652045454C
:1011100050524F4D00436F6E74726F6C0052657386
:10112000746F7265206661696C73616665004C6FEF
:1011300061642073657474696E677300496E6974C5
:1011400069616C697A6520454550524F4D00537472
:101150006F72652073657474696E67730046696C9D
:10116000616D656E74004D6F74696F6E0054656DCE
:101170007065726174757265004D61696E004D3302
:1011800030332055312045256920532569005072A0
:1011900065686561742041425320636F6E6600503C
:1011A00072656865617420504C4120636F6E660003
:1011B000504944204175746F74756E650050494400
:1011C000204175746F74756E6500504944204175F7
:1011D000746F74756E65005049442D440050494445
:1011E0002D44005049442D49005049442D49005098
:1011F00049442D50005049442D500020082046619C
:1012000063740020082046616374002008204D614B
:1012100078002008204D6178002008204D6178007A
:101220002008204D696E002008204D696E002008BE
:10123000204D696E004F6666004F6E200041757448
:101240006F74656D700046616E2073706565640033
:1012500046616E2073706565640046616E20737030
:10126000656564004265640042656400426564002F
:101270004E6F7A7A6C65004E6F7A7A6C65004E6FAD
:101280007A7A6C6500436F6E74726F6C0053746F82
:1012900072652073657474696E67730042656400DB
:1012A00042656400426564004E6F7A7A6C65004E58
:1012B0006F7A7A6C65004E6F7A7A6C650046616E63
:1012C0002073706565640046616E207370656564A7
:1012D0000046616E2073706565640054656D7065CD
:1012E0007261747572650042616279737465702011
:1012F0005A00466C6F7700466C6F7700466C6F77CC
:101300000046616E2073706565640046616E2073EF
:10131000706565640046616E2073706565640042A7
:1013200065640042656400426564004E6F7A7A6CC1
:1013300065004E6F7A7A6C65004E6F7A7A6C650044
:10134000537065656400537065656400537065652E
:1013500064004D61696E005072656865617420506B
:101360004C4120456E640050726568656174205080
:101370004C4120426564005072656865617420507C
:101380004C4100507265706172650050726568650D
:1013900061742041425320456E6400507265686557
:1013A0006174204142532042656400507265686553
:1013B0006174204142530050726570617265004D46
:1013C000343238005072656865617420504C4100B9
:1013D000436F6F6C646F776E0050726568656174FF
:1013E000204142530044697361626C6520737465E7
:1013F0007070657273004D38340053657420686FE7
:101400006D65206F666673657473004175746F2037
:10141000686F6D6500473238004D6F7665206178E2
:101420006973004D61696E004D6F76652058004DFF
:101430006F76652059004D6F7665205A00457874A7
:101440007275646572004D6F766520302E316D6D5A
:10145000004D6F766520316D6D004D6F76652031E2
:10146000306D6D004D6F7665206178697300457849
:10147000747275646572004D6F7665205A004D6F09
:1014800076652059004D6F766520580045455052CD
:101490004F4D206461746173697A65206572726F63
:1014A000722E0A00290A002062797465733B20635A
:1014B0007263200053657474696E67732053746F90
:1014C000726564202800290A002062797465733BE4
:1014D0002063726320002073746F726564207365EB
:1014E0007474696E67732072657472696576656479
:1014F000202800202863616C63756C617465642921
:10150000210A0020213D2000454550524F4D2043E7
:101510005243206D69736D61746368202D202873B8
:10152000746F7265642920002053697A653A20003F
:10153000496E6465783A2000204D61726C696E3D99
:10154000563536290A0028454550524F4D3D004535
:101550004550524F4D2076657273696F6E206D69EC
:10156000736D61746368200048617264636F6465C1
:10157000642044656661756C742053657474696E8B
:101580006773204C6F616465640A00F4010000F425
:1015900001000064000000881300000000FA43000E
:1015A00000FA430000A0400000C8410000A0420033
:1015B00000A0420000C8430000BA424265642068AF
:1015C000656174696E67206661696C656400486571
:1015D0006174696E67206661696C656400453120DD
:1015E00048656174696E67206661696C656400486E
:1015F000656174696E67206661696C65640070017D
:101600002C0190012701B0012201C0011D01F00150
:1016100018011002130130020E016002090190024C
:101620000401C002FF000003FA004003F50080033C
:10163000F000D003EB002004E6007004E100E004B9
:10164000DC004005D700C005D2004006CD00D00622
:10165000C8008007C3003008BE00F008B900C00908
:10166000B400B00AAF00B00BAA00D00CA500000E69
:10167000A000500F9B00C010960050129100001463
:101680008C00C0158700B0178200B0197D00D01BF8
:101690007800001E730040206E0090226900F02444
:1016A000640040275F0090295A00E02B5500102E5F
:1016B000500020304B0010324600E033410090359E
:1016C0003C001037370070383200A0392D00B03A96
:1016D0002800A03B2300603C1E00103D1900903DF7
:1016E0001400103E0F00703E0A00C03E0500003F8F
:1016F0000000403FFBFF803FF6FFC03FF1FF453158
:1017000020544845524D414C2052554E4157415965
:101710000042454420544845524D414C2052554EBC
:101720004157415900546865726D616C2052756E65
:1017300061776179004531204572723A204D4158F8
:1017400054454D50004572723A204D415854454D14
:101750005020424544004D415854454D502074722C
:1017600069676765726564004531204572723A2089
:101770004D494E54454D50004572723A204D494EE8
:1017800054454D5020424544004D494E54454D501E
:1017900020747269676765726564004D383420583B
:1017A0002059205A204500202F002042403A002096
:1017B000403A0000060900FE000000000001090098
:1017C00008FE000005080806000040F0C888889858
:1017D0007810050808060000C0F88888888888F80E
:1017E0000505050600012030F83020050808060030
:1017F000002070F820202020E00509090600FF20C5
:1018000070A8A8B8888870200509090600FFE08044
:10181000C0B0A8283028280509090600FFF8A888C4
:1018200088888888A8F8050A0A0600FE20505050CB
:101830005088A8A8887003030306000340A0402531
:10184000753A2530327500253032753A25303275BB
:101850000025756420253032753A25303275002018
:101860002020202020005A0059002020202000584D
:10187000000920000000000000000000000000003F
:10188000003FFFF00000000000000000000000002A
:1018900000380070000000000000000000000000A0
:1018A0000030FC30000000000000000000000000DC
:1018B0000020FC10000000000000000000000000FC
:1018C0000020781000000000000000000000000070
:1018D00000203010000000000000000000000000A8
:1018E000002C00D0F80180000C1FE00000082080D0
:1018F000002E31D048008000123FF000000410405C
:10190000002F7BD043C38CD0023FF0000004104076
:10191000002F7BD071249267CC3FF000000820801C
:10192000002E31D041249E40021FE00000104100F3
:10193000002C00D049249040121FE00000208200BB
:1019400000203010FBB3CEE00C3FF00000208200FE
:101950000020781000000000003FF000001041005F
:101960000020FC1000000000003FF0000008208074
:101970000030FC3000000000000FC000000000003C
:1019800000380070000000000007800000FFFFC06A
:10199000003FFFF0000000000003000000FFFFC058
:1019A0000000000000000000000000000000000037
:1019B000003FFFF0000000000000000000000000F9
:1019C000003800700000000000000000000000006F
:1019D000003387300000000000000000000000001D
:1019E00000278790000000000000000000000000B9
:1019F000002F87D000000000000000000000000061
:101A0000002F87D000000000000000000000000050
:101A1000002F03D0F80180000C1FE0000008208098
:101A20000020301048008000123FF00000041040F9
:101A30000020781043C38CD0023FF0000004104017
:101A40000020781071249267CC3FF00000082080BD
:101A50000020301041249E40021FE0000010410091
:101A6000002F03D049249040121FE0000020820084
:101A7000002F87D0FBB3CEE00C3FF00000208200A7
:101A8000002F87D000000000003FF0000010410050
:101A90000027879000000000003FF0000008208031
:101AA0000033873000000000000FC000000000007D
:101AB00000380070000000000007800000FFFFC039
:101AC000003FFFF0000000000003000000FFFFC027
:101AD0000000000050726F74656374656420506983
:101AE0006E0A0020573A004520436F6F6C696E679D
:101AF0002E2E2E00452048656174696E672E2E2EAD
:101B00000020573A0042656420636F6F6C696E670E
:101B10002E2E2E004265642068656174696E672E02
:101B20002E2E00205A3A0020593A0020436F756E3D
:101B30007420583A0020453A00205A3A0020593A79
:101B400000583A003A004361703A002364656669C0
:101B50006E652044454641554C545F4B642000233C
:101B6000646566696E652044454641554C545F4B3B
:101B700069200023646566696E65204445464155C9
:101B80004C545F4B702000504944204175746F7471
:101B9000756E652066696E6973686564212050758D
:101BA0007420746865206C617374204B702C204B1A
:101BB0006920616E64204B6420636F6E7374616E84
:101BC00074732066726F6D2062656C6F7720696E2A
:101BD000746F20436F6E66696775726174696F6EAA
:101BE0002E680A00504944204175746F74756E6503
:101BF000206661696C6564212074696D656F757418
:101C00000A00453120544845524D414C2052554E12
:101C10004157415900546865726D616C2052756E70
:101C2000617761790045312048656174696E67208C
:101C30006661696C65640048656174696E672066F9
:101C400061696C656400504944204175746F747516
:101C50006E65206661696C6564212054656D7065F0
:101C600072617475726520746F6F20686967680AA5
:101C700000204B643A2000204B693A2000204B7032
:101C80003A20000A20436C61737369632050494411
:101C9000200A002054753A2000204B753A2000207D
:101CA0006D61783A2000206D696E3A200020643A18
:101CB000200020626961733A200050494420417538
:101CC000746F74756E65206661696C65642120545B
:101CD000656D706572617475726520746F6F2068D0
:101CE0006967680A00504944204175746F74756EC5
:101CF000652073746172740A005049442041757400
:101D00006F74756E65206661696C6564212042613F
:101D100064206578747275646572206E756D626595
:101D2000720A00486F6D6520257325732573206640
:101D300069727374002066697273740A005A0059DC
:101D4000005800486F6D6520004F666673657473B8
:101D5000206170706C696564004572723A20546F3E
:101D60006F206661722100546F6F20666172206679
:101D7000726F6D207265666572656E636520706F47
:101D8000696E740A0000060900FE07019203212013
:101D90007FFF07FF07FF000000060000010707069E
:101DA000020080808080800080030202060105A07E
:101DB000A00507070600005050F850F850500507DE
:101DC000070600002078A07028F02005070706000D
:101DD00000C0C81020409818050707060000609052
:101DE000A040A89068020303060104C040800307D6
:101DF000070601002040808080402003070706017D
:101E0000008040202020408005050506000120A814
:101E100070A8200505050600012020F820200203F7
:101E2000030602FFC04080050101060003F802021C
:101E300002060200C0C0050505060001081020408A
:101E40008005070706000070888888888870030767
:101E50000706010040C040404040E005070706007B
:101E600000708808708080F8050707060000F810E9
:101E700020100808F005070706000010305090F801
:101E80001010050707060000F880F00808887005A4
:101E90000707060000708080F08888700507070635
:101EA0000000F80810202020200507070600007019
:101EB0008888708888700507070600007088887811
:101EC000080870020505060200C0C000C0C0020676
:101ED000060602FFC0C000C04080040707060000DD
:101EE00010204080402010050303060002F800F88F
:101EF00004070706010080402010204080050707E6
:101F00000600007088081020002005070706000062
:101F100070880868A8A87005070706000070888800
:101F2000F8888888050707060000F08888F0888808
:101F3000F00507070600007088808080887005071C
:101F400007060000F08888888888F00507070600E3
:101F500000F88080F08080F8050707060000F88010
:101F600080F0808080050707060000708880B888B0
:101F70008870050707060000888888F88888880127
:101F800007070602008080808080808005070706A2
:101F90000000381010101090600507070600008838
:101FA00090A0C0A090880507070600008080808070
:101FB0008080F805070706000088D8A888888888E8
:101FC0000507070600008888C8A8988888050707BD
:101FD000060000708888888888700507070600005A
:101FE000F08888F0808080050707060000708888E8
:101FF00088A89068050707060000F08888F0A09080
:1020000088050707060000788080700808F005073B
:1020100007060000F82020202020200507070600E2
:1020200000888888888888700507070600008888E7
:1020300088888850200507070600008888888888D7
:10204000A85005070706000088885020508888059A
:10205000070706000088888850202020050707060B
:102060000000F80810204080F8030707060100E090
:102070008080808080E005050506000180402010FA
:1020800008030707060100E02020202020E00503C8
:1020900003060004205088050101060000F8020232
:1020A00002060205804005050506000070087888D4
:1020B000780507070600008080B0C88888F005050D
:1020C000050600007080808870050707060000087C
:1020D0000868988888780505050600007088F880EB
:1020E000700507070600003048E040404040050604
:1020F000060600FF7088887808700507070600004C
:102100008080B0C8888888010707060200800080A8
:10211000808080800308080601FF20002020202006
:10212000A040040707060000808090A0C0A0900394
:102130000707060100C04040404040E00505050695
:102140000000D0A8A8A8A8050505060000B0C8880A
:1021500088880505050600007088888870050606D1
:102160000600FFF08888F080800506060600FF78EC
:102170008888780808050505060000B0C8808080BA
:1021800005050506000070807008F00407070600CA
:10219000004040E0404040300505050600008888CA
:1021A0008898680505050600008888885020050580
:1021B000050600008888A8A85005050506000088C7
:1021C000502050880506060600FF88888878087029
:1021D000050505060000F8102040F8030707060172
:1021E0000020404080404020010707060200808018
:1021F00080808080800307070601008040402040E7
:1022000040800502020600026890000000060000FF
:1022100000002100240027002A00000022002500E1
:1022200028002B00000020002300260029000202C5
:10223000020202020202040404040404040403036C
:102240000303030303030101010101010101010271
:102250000408102040800102040810204080010280
:102260000408102040808040201008040201000073
:1022700000010200090A0000000004030807000032
:1022800000000000000000000000000000004D32CF
:1022900034004D323320257300556E6B6E6F776EB0
:1022A00020636F6D6D616E643A2022005344206399
:1022B000617264206F6B0A006F70656E526F6F748D
:1022C000206661696C65640A00766F6C756D652EB9
:1022D000696E6974206661696C65640A0053442004
:1022E000696E6974206661696C0A0020286D6D2929
:1022F0000020440020490020204D33303120500080
:102300005049442073657474696E67733A0A0020FB
:10231000460020420020480020204D313435205313
:10232000004D6174657269616C20686561747570D7
:1023300020706172616D65746572733A0A00205A8B
:102340000020590020204D323036205800486F6D53
:1023500065206F66667365743A0A00204500205A4E
:102360000020590020580020540020530020204D08
:1023700032303520510020453C6D61785F655F6AE1
:1023800065726B3E0020583C6D61785F785F6A65CE
:10239000726B3E20593C6D61785F795F6A65726B44
:1023A0003E205A3C6D61785F7A5F6A65726B3E00D1
:1023B000416476616E6365643A20513C6D696E5F7D
:1023C0007365676D656E745F74696D655F75733E87
:1023D00020533C6D696E5F66656564726174653E2D
:1023E00020543C6D696E5F74726176656C5F6665E2
:1023F0006564726174653E00205400205200202004
:102400004D323034205000416363656C65726174F5
:10241000696F6E2028756E6974732F7332293A20A4
:10242000503C7072696E745F616363656C3E2052EC
:102430003C726574726163745F616363656C3E20B6
:10244000543C74726176656C5F616363656C3E0ACF
:1024500000204500205A0020590020204D32303104
:102460002058004D6178696D756D20416363656C1E
:1024700065726174696F6E2028756E6974732F734D
:1024800032293A0A00204500205A00205900202015
:102490004D3230332058004D6178696D756D20667E
:1024A00065656472617465732028756E6974732F35
:1024B00073293A0A00204500205A002059002020A4
:1024C0004D39322058005374657073207065722046
:1024D000756E69743A0A0020204D32303020443045
:1024E0000A0020204D3230302044002044697361BE
:1024F000626C65640A0046696C616D656E74207378
:10250000657474696E67733A0020204D3134392048
:1025100043203B20556E69747320696E2043656CBF
:10252000736975730A002020473231202020203B38
:1025300000486F6D696E67206661696C6564005460
:102540005249474745524544006F70656E003A2036
:10255000007A5F6D696E00795F6D696E00785F6DFE
:10256000696E005265706F7274696E6720656E6483
:1025700073746F70207374617475730A0002FFFFC7
:10258000FFFFEFFFFFFFFFFFFFFFFFFFFFEFEFFF8B
:10259000FFFFFFFFFFFFFFFFE7DFFFFFFFFFFFFF83
:1025A000FFFFFFE7DFFFFFFFFFFFFFFFFFFFE3DFAF
:1025B000FFFFFFFFFFFFFFFFFFF3CFFFFFFFFFFF67
:1025C000FFFFFFE1E1CFFFFFFFFFFFFFFE7800000D
:1025D00003DDFFFFFFFFFEFF807E0001EEFFFFFF38
:1025E000FFFE7DCFFC0000F77FFFFFFFFF8E0600A0
:1025F00000007BBFFFFFFFFFC0000000007DDFFF8A
:10260000FFFFFFFC01FE00003EE7FFFFFFFFFFFFB3
:10261000FC00031F73FFFFFFFFFFFFF800018F8126
:10262000FFFFFFFFFFFFE0000083F9FFFFFFFFFF59
:10263000FF00FC0000F0FFFFFFFFFFE00FFFC00006
:1026400000FFFFFFFFFE03FFFFC00000FFFFFFFFD3
:10265000FFFFFFF9000000FFFFFFFFFFFFFFFC008F
:1026600007C0FFFFFFFFFFFFFFFF0007E0FFFFFFC7
:10267000FFFFFFFFFFE007F1FFFFFFFFFFFFFFFF8F
:10268000FC07F9FFFFFFFFFFFFFFFFFF03F9FFFF5D
:10269000FFFFFFFFFFFFFF83F9FFFFFFFFFFFFFFCC
:1026A000FFFFC3FFFFFFFFFFFFFFFFFFFFE1FFFF94
:1026B000FFFFFFFFFFFFFFFFF0BFFFFFFFFFFFFF79
:1026C000FFFFFBF83FFFFFFFFFFFFFFFFFF9F83FB2
:1026D000FFFFFFFFFFFFFFFF7EF0FFFFFFFFFFFF9A
:1026E000FFFFFF8E03FFFFFFFFFFFFFFFFFFE01F66
:1026F000FFFFFFFFFFFFFFFFFFFFFFFFFFFFFFFFEA
:10270000FFFFFFFFFFFFFFFFFFFFFFFFFFFFFFFFD9
:10271000FF7FFFFFFFFF00007FFFFFF87FFFFFFF4E
:10272000FF80007FFFFFE07FFFFFFFFFC3FCFFFF95
:10273000FFF8FFFFFFFFFFC3FCFFFFFFF8FFFFFFF6
:10274000FFFF87FDFFFFFFF1FFFFFFFFFF87FFFF99
:10275000FFFFF1FFFFFFFFFF0FE7F30FFC23FC3F3D
:10276000FFFFFF0FEF8007F003F01E007FFE1FCF7B
:102770008187C787C70C007FFE001FC7C78FC79F11
:102780000F0CFFFE001F878F1F8F1F0F1FFFFC3FC7
:102790009F8F8F1F8E001E3FFFFC7F3F0F1E3F1E2F
:1027A0003FFE3FFFF87FFF1F1C3F1C7FFC7FFFF8B1
:1027B000FFFF1E1C7E1C7FFC7FFFF0FFCE3E3C7E99
:1027C0003C7FB8FFFFF0FF9E3C387C387E78FFFFEF
:1027D000E1FF3C7C787C783CF1FFFFE1F8387878C9
:1027E000101801F1FFFF000060203C007C07807F93
:1027F000FFFFFFFFFFFE1FFE1FFFFFFF1FFFFFFF8B
:10280000FFFFFF600000000001FF4000000000002B
:10281000FF8000000000007F83CF00000C303F8766
:10282000FF80000C301F867980000C000F8C30C7B1
:10283000838C30E78C30CFC7CC31F38C30DCECECC0
:1028400033B98C30D86C6C33198C30D06C0C331994
:102850008C30D86C0C33198C30DC6C0E3B198C30FE
:10286000CF7C079F198C30C77C038F194000000074
:10287000000002600000000000061FFFFFFFFFFFD6
:10288000F82020506C616E6E6572427566666572E6
:1028900042797465733A20002046726565204D6563
:1028A0006D6F72793A2000436F6D70696C65643AA0
:1028B000204F637420313120323031390A00207CBE
:1028C00020417574686F723A20287468697369735F
:1028D0006B65697468622C20456E6465722D3329BE
:1028E0000A00323031382D30372D333100204C6121
:1028F000737420557064617465643A200062756772
:102900006669782D312E312E780A004D61726C691E
:102910006E0020536F66747761726520526573652F
:10292000740A00205761746368646F67205265738E
:1029300065740A002042726F776E206F75742052A2
:10294000657365740A002045787465726E616C2049
:1029500052657365740A00506F77657255700A008E
:1029600073746172740A006175746F25692E670053
:102970006572726F722077726974696E6720746F06
:102980002066696C650A00456E6473746F7073200D
:10299000256320256320256320256300205A3A0003
:1029A00020593A0020583A00656E6473746F707352
:1029B000206869743A2000446F6E652073617669FF
:1029C0006E672066696C652E0A004D3239002074EE
:1029D0006F6F206C6F6E6720657874727573696FA6
:1029E0006E2070726576656E7465640A0020636F90
:1029F0006C6420657874727573696F6E207072658F
:102A000076656E7465640A007C3C3E5E2B3D3F2F0C
:102A10005B5D3B2C2A225C0056652D6A65726B005B
:102A200056652D6A65726B0056652D6A65726B007E
:102A3000567A2D6A65726B00567A2D6A65726B0044
:102A400056792D6A65726B0056792D6A65726B0036
:102A500056792D6A65726B0056782D6A65726B0027
:102A600056782D6A65726B0056782D6A65726B0018
:102A70004D6F74696F6E004573746570732F6D6D63
:102A8000004573746570732F6D6D005A73746570B3
:102A9000732F6D6D005A73746570732F6D6D0059CF
:102AA00073746570732F6D6D005973746570732F37
:102AB0006D6D005873746570732F6D6D005873746D
:102AC0006570732F6D6D004D6F74696F6E00537478
:102AD0006570732F6D6D004A65726B0041636365AD
:102AE0006C65726174696F6E0056656C6F636974B2
:102AF0007900436F6E74726F6C0046696C2E2044CF
:102B000069612E0046696C2E204469612E004F6673
:102B100066004F6E20004520696E206D6D330043C6
:102B20006F6E74726F6C0043616E6E6F7420656EB1
:102B3000746572207375626469723A2000022E2EE9
:102B4000000152656672657368004D61696E0052DE
:102B50006573656E643A20006F6B0020746F6F20A0
:102B60006C6F6E6720657874727573696F6E207014
:102B7000726576656E7465640A0020636F6C64200C
:102B8000657874727573696F6E2070726576656EA4
:102B90007465640A00627573793A207061757365B3
:102BA0006420666F7220696E7075740A00627573B6
:102BB000793A2070617573656420666F7220757351
:102BC00065720A00627573793A2070726F6365737B
:102BD00073696E670A004B494C4C45442E20004BEC
:102BE000494C4C2063617573656420627920746F71
:102BF0006F206D75636820696E6163746976652006
:102C000074696D65202D2063757272656E74206322
:102C10006F6D6D616E643A2000506C656173652064
:102C20007265736574005052494E544552204841B4
:102C30004C544544005072696E7465722068616C32
:102C40007465642E206B696C6C28292063616C6C40
:102C50006564210A00656E7175657565696E67202A
:102C60002200000000000000000000000000000042
:102C7000A0410000A041000080400000000057611A
:102C8000726E696E673A20486F6D696E6720427593
:102C90006D702044697669736F72203C20310A00A0
:102CA0000202040000A0400000A04000000040001C
:102CB000006B4300006B4300007A43FFFFFF4D6150
:102CC000782054656D703A20313235004D696E20A0
:102CD00054656D703A203500544265643A4550435E
:102CE0004F53203130304B004D61782054656D706A
:102CF0003A20323735004D696E2054656D703A20A8
:102D0000350054303A204550434F53203130304B3A
:102D1000005053553A2047656E65726963005072E2
:102D20006F746F636F6C3A20312E300042617564AE
:102D30003A20313135323030004D656C7A692028C7
:102D4000437265616C6974792900457874727564A1
:102D50006572733A203100687474703A2F2F6D6178
:102D6000726C696E66772E6F726700456E6465726D
:102D70002D3300323031382D30372D33310062752C
:102D8000676669782D312E312E78004D61726C693D
:102D90006E00546865726D6973746F727300426F70
:102DA00061726420496E666F005072696E7465725C
:102DB00020496E666F004D61696E005654726176EF
:102DC000206D696E005654726176206D696E0056F2
:102DD00054726176206D696E00566D696E00566D95
:102DE000696E00566D696E00566D6178204500561B
:102DF0006D6178204500566D6178204500566D6103
:102E000078205A00566D6178205A00566D617820FE
:102E10005A00566D6178205900566D61782059002E
:102E2000566D6178205900566D6178205800566DB6
:102E30006178205800566D61782058004D6F746994
:102E40006F6E00416D6178204500416D61782045CD
:102E500000416D6178205A00416D6178205A00412F
:102E60006D6178205900416D6178205900416D6194
:102E700078205800416D6178205800412D747261AE
:102E800076656C00412D74726176656C00412D721F
:102E900065747261637400412D726574726163744C
:102EA00000416363656C00416363656C004D6F7442
:102EB000696F6E004572726F722077726974696E05
:102EC0006720746F20454550524F4D210A00456ED2
:102ED0006465722D332052656164792E00507269E9
:102EE0006E74696E672E2E2E005072696E7420709B
:102EF0006175736564005072696E742061626F72EF
:102F000074656400496E69742E20534420636172B5
:102F100064004D3231004E6F20534420636172646F
:102F2000004368616E6765205344206361726400EA
:102F30004D3231005072696E742066726F6D20538D
:102F4000440053746F70207072696E740052657320
:102F5000756D65207072696E740041626F757420C2
:102F60005072696E7465720050617573652070727D
:102F7000696E7400436F6E74726F6C00507265708E
:102F80006172650054756E6500496E666F207363EB
:102F90007265656E004261627973746570205A00D3
:102FA00001D95FE111241FBECFEFD0E4DEBFCDBF5A
:102FB00012E0A0E0B1E0E6E1FDED01E00BBF02C0F0
:102FC00007900D92AC35B107D9F723E1ACE5B2E03B
:102FD00001C01D92A531B207E1F717E1C1EDD7E1BC
:102FE00004C02197FE010E94D4EAC03DD107C9F771
:102FF0000E94B0DC0C947EEE0C9400002F923F9265
:103000004F925F926F927F928F929F92AF92BF92F8
:10301000CF92DF92EF92FF920F931F93CF93DF93A4
:10302000CDB7DEB7CF55D1090FB6F894DEBF0FBECE
:10303000CDBF21E02093C212809133128D3409F468
:1030400072C6843511F40C94042C873411F00C945E
:10305000482C209031123090321234E02316310483
:1030600009F449C54CF437FC5AC68091090152E075
:10307000251631047CF529C08AE52816310409F4A7
:103080008FC534F4ACE12A16310409F472C547C681
:10309000BBE52B16310409F487C5ECE52E16310487
:1030A00009F03DC626E5222E21E0322E30EDE32E3A
:1030B00032E1F32E2CEC38E03DA72CA746EBC42ED2
:1030C00046E0D42E00E010E0AEC581110C944F2CE8
:1030D0000C944A2C882311F40C944A2C0E94598198
:1030E00082E50E94CF34882309F436C10E9453340C
:1030F0004B015C0120E030E0A9010E944AE68823F0
:1031000009F456C12091CC083091CD084091CE08E9
:103110005091CF082CA73DA74EA75FA78091D0085C
:103120009091D108A091D208B091D30888AB99AB07
:10313000AAABBBAB2091DC123091DD124091DE12C4
:103140005091DF122CAB3DAB4EAB5FAB8091E012E8
:103150009091E112A091E212B091E31288AF99AF81
:10316000AAAFBBAF6CA57DA58EA59FA50E944AE620
:1031700081110DC028AD39AD4AAD5BAD68A979A903
:103180008AA99BA90E944AE6882309F411C111E08B
:1031900092E02916310409F010E020E030E0A901A6
:1031A000C501B4010E944AE6881F8827881F1817A6
:1031B00059F020E030E040E85FEB28962CAF3DAFBF
:1031C0004EAF5FAF28970AC080E090E0A0E8BFE371
:1031D00028968CAF9DAFAEAFBFAF28972CA53DA56D
:1031E0004EA55FA56CA97DA98EA99FA90E94E5EABD
:1031F00024966CAF7DAF8EAF9FAF249728A939A9D5
:103200004AA95BA968AD79AD8AAD9BAD0E94E5EA9C
:103210006B017C0124962CAD3DAD4EAD5FAD249786
:10322000CA01B9010E94B0E62B013C01A701960139
:10323000C701B6010E94B0E69B01AC01C301B20117
:103240000E94E6EA0E9494ED6CAF7DAF8EAF9FAF17
:1032500020E030E040E05FE30E94B0E62B013C015B
:10326000A5019401C501B4010E94B0E64B015C01C7
:10327000A3019201C301B2010E94B0E69B01AC011F
:10328000C501B4010E94E5EA0E9494ED28962CAD98
:103290003DAD4EAD5FAD28970E94B0E64B015C019D
:1032A000C701B60190582CAD3DAD4EAD5FAD0E944B
:1032B000E0EBA50194010E94B0E66B017C012CA912
:1032C0003DA94EA95FA96CA57DA58EA59FA50E94CD
:1032D000E6EA20E030E040E05FE30E94B0E69B01D8
:1032E000AC01C701B6010E94E6EA2CA53DA54EA59A
:1032F0005FA50E94E5EA6B017C0128AD39AD4AADBE
:103300005BAD68A979A98AA99BA90E94E6EA20E099
:1033100030E040E05FE30E94B0E62B013C012CADC1
:103320003DAD4EAD5FAD24966CAD7DAD8EAD9FAD28
:1033300024970E94E0EBA50194010E94B0E69B0156
:10334000AC01C301B2010E94E6EA28A939A94AA941
:103350005BA90E94E5EA14C089E40E94CF34882367
:1033600029F00E9453346B017C0103C0C12CD12C85
:1033700076018AE40E94CF348823E9F00E94533416
:103380006CAB7DAB8EAB9FAB20E030E0A901C701F9
:10339000B6010E944AE681111BC020E030E0A9017D
:1033A0006CA97DA98EA99FA90E944AE6811110C02F
:1033B000E5E6F8E08CC320E030E0A901C701B601E2
:1033C0000E944AE68823A1F31CAA1DAA1EAA1FAACE
:1033D000A701960150582CA73DA74EA75FA78CA91F
:1033E0009DA9AEA9BFA9B05888AB99ABAAABBBAB9E
:1033F000CA01B9010E94B0E64B015C0128A939A9B4
:103400004AA95BA9CA01B9010E94B0E69B01AC01BF
:10341000C501B4010E94E6EA0E9494ED64966CAF87
:103420007DAF8EAF9FAF64972091CC083091CD08CF
:103430004091CE085091CF0828AF39AF4AAF5BAF6B
:10344000A701960168AD79AD8AAD9BAD0E94E6EA11
:1034500028966CAF7DAF8EAF9FAF28978091D00834
:103460009091D108A091D208B091D30824968CAF46
:103470009DAFAEAFBFAF24972CA93DA94EA95FA9C0
:10348000BC01CD010E94E6EA68966CAF7DAF8EAFBD
:103490009FAF68972091DC123091DD124091DE12CF
:1034A0005091DF122C962CAF3DAF4EAF5FAF2C97F3
:1034B00028962CAD3DAD4EAD5FAD28972C966CADEA
:1034C0007DAD8EAD9FAD2C970E94E5EA6B017C012E
:1034D0008091E0129091E112A091E212B091E3127A
:1034E00060968CAF9DAFAEAFBFAF609768962CADC6
:1034F0003DAD4EAD5FAD6897BC01CD010E94E5EAE0
:103500004B015C012091D4083091D5084091D60838
:103510005091D7086C962CAF3DAF4EAF5FAF6C9714
:103520006091E4127091E5128091E6129091E71299
:103530000E94E5EA6CAF7DAF8EAF9FAFA701960109
:103540006CA57DA58EA59FA50E94B0E62B013C0130
:10355000A501940168A979A98AA99BA90E94B0E64E
:103560009B01AC01C301B2010E94E6EA2B013C01C0
:10357000A50194016CA57DA58EA59FA50E94B0E62E
:103580004B015C01A701960168A979A98AA99BA9A9
:103590000E94B0E69B01AC01C501B4010E94E5EABE
:1035A000A30192010E9465EB6B017C0120E030E0F9
:1035B000A9010E944AE687FF0AC02BED3FE049ECD3
:1035C00050E4C701B6010E94E6EA6B017C0132E0DB
:1035D0002316310451F42BED3FE049EC50E4C701D0
:1035E000B6010E94E5EA6B017C0120E030E0A90110
:1035F000C701B6010E944AE6811126C02C962CAD67
:103600003DAD4EAD5FAD2C9768AD79AD8AAD9BAD4C
:103610000E944AE6811118C060962CAD3DAD4EADBA
:103620005FAD609724966CAD7DAD8EAD9FAD249758
:103630000E944AE6811108C07BEDC72E7FE0D72E9D
:1036400079ECE72E70E4F72EA701960164966CAD35
:103650007DAD8EAD9FAD64970E94B0E64B015C01DD
:1036600020E030E0A9016CAD7DAD8EAD9FAD0E9434
:103670004AE68823D9F0A5019401C501B4010E944E
:10368000B0E64B015C012CAD3DAD4EAD5FADCA0166
:10369000B9010E94B0E69B01AC01C501B4010E94D2
:1036A000E6EA0E9494ED4B015C010DC020E030E0A1
:1036B000A901C501B4010E9446ED87FF04C0B7FA15
:1036C000B094B7F8B0942FE632E143E85AE3C5016D
:1036D000B4010E944AE687FF02C00C944A2CC5013F
:1036E000B4010E9488EC0E9459EC22967FAF6EAF25
:1036F0002297672B31F481E090E022969FAF8EAF46
:1037000022974090D8085090D9086090DA087090BD
:10371000DB082296AEADBFAD2297BD0180E090E000
:103720000E944FE64B015C019B01AC01C701B60151
:103730000E94E0EB68AF79AF8AAF9BAFA50194011F
:103740006CAD7DAD8EAD9FAD0E94E0EB64966CAF2D
:103750007DAF8EAF9FAF6497A30192016091E81295
:103760007091E9128091EA129091EB120E94E5EAC1
:10377000A50194010E94E0EBA0966CAF7DAF8EAFE7
:103780009FAFA09728AD39AD4AAD5BADCA01B90175
:103790000E94B0E620E030E040E05FE30E94B0E647
:1037A0009B01AC0160E070E080E89FE30E94E5EAE5
:1037B0002C966CAF7DAF8EAF9FAF2C976C962CADD7
:1037C0003DAD4EAD5FAD6C9729873A874B875C87DF
:1037D0004D865E866F86788A60911A0170911B0112
:1037E000072E000C880B990B0E9451E620914D0189
:1037F00030914E0140914F01509150010E94B0E62E
:103800002AE037ED43E25CE30E94B0E668A779A7BF
:103810008AA79BA70E94EA9A9B01AC0128533F4FBD
:103820004F4F5F4F60962CAF3DAF4EAF5FAF60978D
:103830004CA45DA46EA47FA422242394312C39E1EE
:103840003CAF22964EAD5FAD22974215530509F469
:103850001AC10E94F56B0E94EA9ADC01CB016096C6
:103860002CAD3DAD4EAD5FAD6097821B930BA40BAD
:10387000B50BB7FD10C00E94EA9A9B01AC0128531A
:103880003F4F4F4F5F4F60962CAF3DAF4EAF5FAF96
:1038900060970E9491BB3CAD31503CAF332309F49B
:1038A00041C028A939A94AA95BA92C966CAD7DAD68
:1038B0008EAD9FAD2C970E94B0E66B017C0192010A
:1038C000A30168AD79AD8AAD9BAD0E94B0E6A701BA
:1038D00096010E94E6EA7B018C019201A3012C96DD
:1038E0006CAD7DAD8EAD9FAD2C970E94B0E64B01C7
:1038F0005C0128A939A94AA95BA968AD79AD8AAD4F
:103900009BAD0E94B0E69B01AC01C501B4010E94D1
:10391000E5EA2B013C01C701D80188AB99ABAAAB02
:10392000BBAB4DC0B10180E090E00E944FE628ADF6
:1039300039AD4AAD5BAD0E94B0E64B015C010E941F
:10394000DBEB6B017C01C501B4010E9486ED4B01EC
:103950005C01A70196016CA57DA58EA59FA50E947F
:10396000B0E62B013C012CA93DA94EA95FA9C501D8
:10397000B4010E94B0E6A30192010E94E6EA2B0185
:103980003C01A50194016CA57DA58EA59FA50E9473
:10399000B0E64B015C012CA93DA94EA95FA9C70166
:1039A000B6010E94B0E69B01AC01C501B4010E94C2
:1039B000E5EA68AB79AB8AAB9BAB49E14CAF9201CE
:1039C000A30128966CAD7DAD8EAD9FAD28970E946A
:1039D000E6EA69837A838B839C8328A939A94AA95B
:1039E0005BA968966CAD7DAD8EAD9FAD68970E946A
:1039F000E6EA6D837E838F83988764962CAD3DAD18
:103A00004EAD5FAD649769857A858B859C850E94F4
:103A1000E6EA69877A878B879C87A0962CAD3DADB7
:103A20004EAD5FADA0976D857E858F8598890E948C
:103A3000E6EA6D877E878F87988B8091280188239F
:103A400021F0CE0101960E947DB9E090620718A294
:103A500019A21AA21BA2CE0180966C018E01085DEC
:103A60001F4F9E01235F3F4FAE01475F5F4FBE0177
:103A70006B5F7F4F4F970E94059C882321F09FEF3B
:103A8000291A390ADECEE09062071CA21DA21EA2EE
:103A90001FA2DE0194966D018E01085D1F4F28EE76
:103AA00032E144EE52E160EE72E18CED92E10E946F
:103AB000059C80E1ECEDF2E1ACECB8E001900D92F8
:103AC0008A95E1F70C944A2C0E94E234F801849123
:103AD0008F010F5F1F4F8111F7CFE9ECF1E0849167
:103AE0008F010F5F1F4F882311F40C944A2C0E9402
:103AF000E234F801F4CF80E50E94CF34882329F026
:103B00000E940F346B017C0103C0C12CD12C7601C3
:103B100083E50E94CF34882361F00E94533420E073
:103B200030E04AE754E40E94B0E60E9459EC6B0191
:103B30007C010E94DA9280917A0C811105C060E0CC
:103B40008FED91E00E94A7880E94EA9AC60ED71EC8
:103B5000E81EF91E0E94EA9ADC01CB018C199D092E
:103B6000AE09BF09B7FD02C00C944A2C0E9491BB5C
:103B7000F1CF8091BF088770873011F00C94542CDE
:103B80008FE40E94CF34882319F00E94433403C08D
:103B90008FE40E94863481110C944A2C0C94542C8E
:103BA000109260020C944A2C209360020C944A2CD0
:103BB0000E9453342B013C01133049F0F60120815F
:103BC0003181428153810E94E5EA2B013C01ACA581
:103BD000BDA52D913D914D915C91C301B2010E9413
:103BE000E5EA4B015C012DEB37E346E855EB0E941B
:103BF00046ED87FD20C02DEB37E346E855E3C501D0
:103C0000B4010E944AE61816B4F01F5FB4E0EB0E50
:103C1000F11CECA5FDA53496FDA7ECA7F4E0CF0EB2
:103C2000D11C143039F1D1018D911D010E94CF3486
:103C3000882359F3BDCF133051F44092D8085092E5
:103C4000D9086092DA087092DB0801E0DECFA501A6
:103C50009401F70160817181828193810E94E6EA7B
:103C6000D7016D937D938D939C931397812F0E9421
:103C70005133CBCF002309F44EC020E030E0A9013E
:103C80006091D8087091D9088091DA089091DB088A
:103C90000E94E6EA20910212309103124091041230
:103CA000509105120E94B0E60E9453ED60934A03C2
:103CB00070934B0380934C0390934D039091280392
:103CC00080912903981719F00E947C9224C00E94C9
:103CD000DA9280916F00982F927081FF05C08091D9
:103CE0006F008D7F80936F0040914A0350914B038A
:103CF00060914C0370914D03409335065093360606
:103D00006093370670933806992329F080916F00ED
:103D1000826080936F000E943B7B0C944A2C0E942F
:103D2000DA8D0C944A2C80913112909132128237A4
:103D3000910509F448C70CF0D8C08B34910509F4FB
:103D400019C50CF067C08831910509F495C2ACF52E
:103D50008231910509F46CC6BCF497FF02C00C9443
:103D6000012C823091050CF4B7C1419711F00C94ED
:103D7000012C60E08BEF91E00E94A7885E985E982E
:103D800015985E980C944A2C8531910509F459C216
:103D90003CF4449711F00C94012CE3E1F2E013C2DF
:103DA0008631910509F451C2479711F00C94012C0A
:103DB000E0912F12F091301252C28D31910511F421
:103DC0000C944A2CC4F48A31910509F464C20CF4B1
:103DD0005CC28B31910509F46CC24C9711F00C94C4
:103DE000012C40E060E080912F12909130120E94EF
:103DF000023E0C944A2C8F31910509F4D0C30CF487
:103E0000F0C28032910509F47EC38A9709F47DC41B
:103E10000C94012C8836910509F4B8C4F4F5823568
:103E2000910509F4FEC504F58D34910509F4AAC481
:103E30000CF4A4C48135910511F00C94012C0E945E
:103E4000D76A0E94F19310921F0D10921E0D68EE1A
:103E500073E080E090E00E94A78760E087EF92E047
:103E60000E94A7880C944A2C8435910509F4E0C57A
:103E70000CF4DAC58535910509F40DC68C3591052C
:103E800011F00C94012C16E5C12E11E0D12E06EF95
:103E9000E02E01E1F02E10E017C68D36910509F4F1
:103EA00077C59CF48A36910509F48FC50CF430C5AA
:103EB0008B36910509F4A5C58C36910511F00C944B
:103EC000012C109245010C944A2C8F36910509F46F
:103ED0009BC40CF486C48037910509F4E8C481378B
:103EE000910509F4E8C40C94012C8D3D910511F461
:103EF0000C94D5290CF062C08B39910509F423C5C7
:103F00001CF58737910509F451C774F4853791057D
:103F100009F4F1C60CF0FEC68337910511F00C943C
:103F2000012CE9EEF3E08CC68937910509F447C707
:103F30000CF43FC78C38910509F42DC581399105E2
:103F400009F442C70C94012C8C3C910511F40C949B
:103F5000E4270CF5883C910511F40C945C274CF493
:103F60008E3B910511F00C94012C0E94917D0C94D4
:103F70004A2C893C910511F40C94AC278B3C91059B
:103F800011F00C94012C66E5E62E61E0F62E0EEEA3
:103F90001CE00C94D5278E3C910511F40C94C42898
:103FA00014F40C945928833D910509F491C08C3D7B
:103FB000910511F40C94C8290C94012C8C3A31E031
:103FC000930711F40C94E6280CF040C08E3251E0B7
:103FD000950711F40C94412BDCF48232B1E09B077D
:103FE00011F40C946D2A3CF4823E910511F40C946A
:103FF000442A0C94012C8C32F1E09F0711F40C94AC
:10400000782A8D32914011F40C94A12A0C94012C41
:10401000833631E0930709F457C04CF48F32914056
:1040200011F00C94012C0E94B5760C944A2C803926
:10403000A1E09A0711F40C94AB2B8A39914011F04E
:104040000C94012C0E947C760C944A2C883FE1E071
:104050009E0711F40C94C02BECF4853F21E09207ED
:1040600011F40C94AE2B4CF4843F914011F00C945D
:10407000012C0E9470610C944A2C863F51E09507F8
:1040800011F40C94B12B873F914011F40C94B42B94
:104090000C94012C8B38B3E09B0711F40C944A2C40
:1040A0003CF48C30924011F40C94E32B0C94012CD2
:1040B000803A23E0920709F465C2873E934011F4E9
:1040C0000C94EC2B0C94012CE5E6F8E00C94982B66
:1040D000E4E9F8E00C94E928A0902F12B090301297
:1040E00080E50E94CF34882359F00E940F346B0181
:1040F0007C0111E0672B682B692B31F410E004C0C0
:1041000010E0C12CD12C760183E50E94CF348823A6
:1041100011F40C94FD2D0E94533420E030E04AE766
:1041200054E40E94B0E60E9459EC6B017C0111112D
:104130000BC0672B682B692B39F4A114B10421F053
:10414000D5018C91811102C010E001C011E00E94E4
:10415000DA92112329F061E0C5010E94E38805C0CD
:1041600060E088EE91E00E94A78883E08093C2120D
:1041700081E080937107C114D104E104F104B1F02E
:104180000E94EA9AC60ED71EE81EF91E0E94EA9AFD
:10419000DC01CB018C199D09AE09BF09B7FF0DC029
:1041A0008091710781110C94022E07C080917107D4
:1041B000882319F00E9491BBF9CF0E94CED61092AD
:1041C00071070C944A2C84918F010F5F1F4F882335
:1041D00021F00E94E234F801F6CF1092130686EC2B
:1041E00093E00E9420AD8BE1E6ECF3E0DE01159652
:1041F00001900D928A95E1F78091C4039091C503D7
:104200009C838B8384E691E09A83898340E050E02D
:10421000BE016F5F7F4F80E090E00E943D3BCE018A
:1042200001960E9411BBE4E0F2E084918F010F5FE0
:104230001F4F882311F40C944A2C0E94E234F80199
:10424000F4CF0E94F48F0C944A2C10926E031092BB
:104250006F030C944A2C803209F4108231968081CD
:104260008111F9CF40E061E080912F1290913012DE
:104270000E94023E0C944A2C80916F03811120937E
:104280006E030E94B9400C944A2C10926E030E9457
:10429000DD400C944A2C80916F03882311F40C9418
:1042A0004A2C83E50E94CF3481110C94062E0C9485
:1042B0004A2C83E40E948634882309F450C0E1E547
:1042C000F2E084918F010F5F1F4F882321F00E943D
:1042D000E234F801F6CF80916105811103C0E4E278
:1042E000F2E012C0BE016F5F7F4F8EE595E00E9445
:1042F000E7AB8E010F5F1F4FF80181918F0188237B
:1043000049F10E94E234F8CF84918F010F5F1F4F73
:10431000882301F10E94E234F801F6CF8FECC82E19
:1043200082E0D82EE12CF12C20E08091F51190E074
:104330000E2C02C0959587950A94E2F780FD94C2F1
:10434000BFEFEB1AFB0AE2E0CE0ED11CF5E0EF1650
:10435000F10459F78AE00E94E2340C944A2C8091CF
:104360006F03882339F080916E03882319F0EEE201
:10437000F2E003C0E0E4F2E028C084918F010F5F17
:104380001F4F882321F00E94E234F801F6CF60919C
:104390000F067091100680911106909112064AE066
:1043A0000E9491378FE20E94E23460910B06709177
:1043B0000C0680910D0690910E064AE00E949137FE
:1043C0008AE00E94E2340C944A2C84918F010F5FA2
:1043D0001F4F882311F40C944A2C0E94E234F801F8
:1043E000F4CF80916F03882311F40C944A2C8EE54E
:1043F00095E00E946CD48EE595E00E94C2AB1092CD
:104400006D0310926C0380916F03882311F40C9458
:104410004A2C00912F12109130120E94CA3AB80112
:10442000CE0180960E94463D8C01892B11F40C949C
:104430004A2C68A179A16115710511F06C5F7F4F5D
:1044400019821C8222E0A801CE0101960E9471B15E
:10445000811102C0F12C14C0CE0101960E94383A9D
:104460008823C1F361E0CE0101960E94CBAB009797
:1044700089F325EEDC012C931C820E9411D2F82EC8
:10448000CE0101960E94DC34F11003C0EEE6F2E0AA
:1044900022C0E0E6F2E084917F01BFEFEB1AFB0A55
:1044A000882321F00E94E234F701F5CFF8018191D1
:1044B0008F01882319F00E94E234F8CF8AE00E942D
:1044C000E23410920F06109210061092110610920C
:1044D00012060C944A2C84917F012FEFE21AF20A03
:1044E000882321F00E94E234F701F5CFD8018D91A5
:1044F0008D01882319F00E94E234F8CF8EE20E94E9
:10450000E2340C944A2C80916E0381110E94DA925D
:1045100080916F03882311F40C944A2C80E50E944B
:10452000CF34882319F00E94433403C080E50E94F1
:104530008634182F482F61E080912F12909130120D
:104540000E94023E83E50E94CF34882381F00E94BE
:104550001F34AB01BC0140930F06509310066093CB
:104560001106709312068EE595E00E94D8AA8091FC
:104570006F03882319F081E080936E0311110C946E
:104580004A2C7FCE80912F129091301221E02093FF
:104590006D0340E060E00E94023E0C944A2C0E94B1
:1045A0006A407B018C0120E831E541E050E00E9447
:1045B00051EAC9016DE671E00E948DEA4B015C0190
:1045C000C801B70120E13EE040E050E00E9451EA1E
:1045D000CA01B90128E130E040E050E00E9451EA10
:1045E000762E672EC62ED72E9CE3292E312C412CF9
:1045F000512CC801B701A20191010E9451EAF62E87
:10460000E72ECA01B901A20191010E9451EACB0132
:104610008E010F5F1F4F8114910499F0EF92FF926A
:104620007F936F936F927F92BF92AF929F928F9280
:104630008EEA92E09F938F931F930F930E94E2E57F
:1046400013C0A114B104B1F0EF92FF927F936F9366
:104650006F927F92BF92AF928EE992E09F938F9379
:104660001F930F930E94E2E50FB6F894DEBF0FBED2
:10467000CDBF30C0CD2879F0EF92FF927F936F933A
:104680006F927F9282E992E09F938F931F930F9393
:104690000E94E2E5E9CF892B69F0EF92FF927F93C8
:1046A0006F938AE892E09F938F931F930F930E94DA
:1046B000E2E5DACFEF92FF9286E892E09F938F9344
:1046C0001F930F930E94E2E50F900F900F900F90B1
:1046D0000F900F9060E0C8010E94E388E4E9F8E0E1
:1046E00084917F019FEFE91AF90A882321F00E9443
:1046F000E234F701F5CFB80182EC92E00E94D24893
:104700008AE00E94E2340C944A2C83E50E94CF3464
:10471000882311F40C944A2C0E942F34E82E80E553
:104720000E94CF34882311F40C944A2C0E942F3419
:10473000182F87FF02C00C944A2C89E40E94CF34C2
:10474000882341F00E94433481110C94A22EEFE2A1
:10475000F5E00BC089E40E948634F6CF3196A5E0DF
:10476000EC35FA0711F40C94A22E84911813F6CFAD
:104770000C943C2E0E94B9400C944A2C0E94DD40BF
:104780000C944A2C0E94F2400C944A2C88E690E04B
:104790000E94FE3781110C944A2C8091F51183FF01
:1047A00002C00C944A2C83E50E94CF348823A9F0E0
:1047B0000E9453340E9452ECCB010E9442880E9416
:1047C000533420E030E04AEA52E40E944AE61816E8
:1047D00024F00E94F2400E94CED60E94ED480C9434
:1047E0004A2C8EE40E94CF34882311F40C944A2C76
:1047F0000E941F346093E1027093E2028093E3020F
:104800009093E4020C944A2C83E50E94863488231A
:1048100059F083E50E94CF34882319F00E942F3489
:1048200001C080E08093F511E4E9F8E084918F0104
:104830000F5F1F4F811103C0EDEDF2E004C00E9435
:10484000E234F801F3CF84918F010F5F1F4F88236B
:1048500021F00E94E234F801F6CF8091F511811128
:104860005DCDE9EDF2E018C0BB24B394B20E222373
:1048700019F08CE20E94E234F60185919491FC01DA
:1048800084918F010F5F1F4F882321F00E94E23433
:10489000F801F6CF2B2D54CD84918F010F5F1F4F60
:1048A000882309F457CD0E94E234F801F5CF84EE55
:1048B00092E00E942DBB83E50E94CF34811103C09A
:1048C000E4E9F8E00DC00E942F348D3320F480938A
:1048D00051010C944A2C8CE3809351010C944A2C86
:1048E00084918F010F5F1F4F882321F00E94E234D3
:1048F000F801F6CF4091510150E060E070E08DEE9C
:1049000092E00E947F488AE00E94E2340C944A2C94
:1049100089E690E00E94FE37811111C0E4EFF2E0D9
:1049200084918F010F5F1F4F882321F00E94E23492
:10493000F801F6CF0E9449688AE00E94E2341092A2
:10494000C2120C94B72E83E50E94CF34882309F459
:10495000A1C70E942F34182F8D3308F01CE3109349
:10496000CF120E94EA9A6B017C01212F30E0A8EE61
:10497000B3E00E947EEAC60ED71EE81EF91EC09262
:10498000CB12D092CC12E092CD12F092CE1282C70E
:104990000E946A7F7FC78091F51183FD7BC783E505
:1049A0000E94CF34882309F475C70E9453340E94B3
:1049B00052EC6E36710514F06EE670E070939F074E
:1049C00060939E070E948B6A65C780E50E94CF3482
:1049D000811106C083E50E94CF34882359F005C0B9
:1049E0000E942F34811156C7F5CF0E941F346F3FAC
:1049F000710510F06FEF70E070931F0D60931E0D46
:104A000049C780E50E94CF34811105C010921F0D67
:104A100010921E0D3FC70E941F34672B09F03AC742
:104A2000F5CF10925F0236C781E080935F0232C7F4
:104A300083E50E94CF34882399F00E94533420E00C
:104A400030E04AE754E40E94B0E60E9459EC6093DB
:104A500052017093530180935401909355011AC7EA
:104A600088E50E94863481110C94172E89E50E94F6
:104A7000863481110C94172E8AE50E9486348111A8
:104A80000C94172E85E40E94863481110C94172E05
:104A90000E94F193FFC683E50E948634882309F4BF
:104AA000F9C60E94533420E030E04AE754E40E9403
:104AB000B0E60E9459EC6093C7127093C8128093BD
:104AC000C9129093CA12E6C6D6018D916D010E945B
:104AD0008634882309F46DC0133009F063C00E9446
:104AE00053344B015C0120E030E040EA51E40E9485
:104AF0004AE687FF4EC0A5019401609102127091B1
:104B0000031280910412909105120E94E0EB2B0198
:104B10003C019B01AC016091CA0C7091CB0C80915F
:104B2000CC0C9091CD0C0E94B0E66093CA0C7093AF
:104B3000CB0C8093CC0C9093CD0CA301920160918F
:104B4000FA0C7091FB0C8091FC0C9091FD0C0E9472
:104B5000B0E66093FA0C7093FB0C8093FC0C90937E
:104B6000FD0C6091DA0C7091DB0C8091DC0C909163
:104B7000DD0C0E944FE6A30192010E94B0E60E9464
:104B800059EC6093DA0C7093DB0C8093DC0C9093FF
:104B9000DD0C8092021290920312A0920412B09245
:104BA000051207C00E945334F7016083718382832A
:104BB00093831F5FF4E0EF0EF11C143009F084CFF3
:104BC0000E94784967C60E94DA9283E50E94CF343A
:104BD000882309F4A0C80E941F346230710509F0CF
:104BE0009AC80E945FBF8BE50E94E2346091B612C2
:104BF0007091B7128091B8129091B91242E00E9460
:104C00005C384091BA125091BB126091BC12709105
:104C1000BD1287E093E00E949C484091BE125091E3
:104C2000BF126091C0127091C11284E093E00E94A3
:104C30009C488DE50E94E2348AE00E94E2342AC654
:104C400084918F010F5F1F4F882321F00E94E2346F
:104C5000F801F6CF60E089ED93E00E94047B61E00B
:104C600082ED93E00E94047B61E087EC93E00E9478
:104C7000047B61E087EB93E00E94047B60E08EEAB6
:104C800093E00E94047B61E084EA93E00E94047B4D
:104C900060E08AE993E00E94047B60E082E993E0AF
:104CA0000E94047B60E084E893E00E94047B60E063
:104CB00086E793E00E94047B60E087E693E00E9431
:104CC000047B60E089E593E00E94047B60E083E47C
:104CD00093E00E94047B60E082E393E00E94047B07
:104CE00060E08DE193E00E94047B61E08AE093E064
:104CF0000E94047BCFC580912F1290913012DC016D
:104D00002C91222321F060E00E94E388C3C50E9419
:104D1000CED6C0C500912F121091301283E0D12C55
:104D200040E08150E1F0F8019081292F2B7F213460
:104D3000C1F721812133A9F7913421F0953421F471
:104D400041E002C0DD24D39498012E5F3F4F8901DA
:104D50002F5F3F4FD8019C919032C9F3E2CF44239B
:104D600069F0E4E9F8E084917F01BFEFEB1AFB0AF8
:104D7000882321F00E94E234F701F5CFDD2069F0AD
:104D8000E3EBF4E084917F012FEFE21AF20A88232B
:104D900021F00E94E234F701F5CFD8018D918D0109
:104DA000882309F4D7CA0E94E234F7CF0E9477968D
:104DB00071C581E08093BE088093BD086BC51092D9
:104DC000BE081092BD0866C583E50E94CF348823D3
:104DD00019F00E941F3402C060E070E08B011127BF
:104DE00002301105D4F0E5E6F8E084918F010F5F01
:104DF0001F4F811103C0E7EBF4E004C00E94E234CE
:104E0000F801F3CF84918F010F5F1F4F882309F4BE
:104E100041C50E94E234F801F5CF88E40E94CF3406
:104E20008823A9F00E941F346A3A71053CF065306E
:104E3000B1E07B072CF064E071E002C06AEA70E048
:104E4000F801EE0FFF1FE256F94F7183608386E48D
:104E50000E94CF348823A9F00E941F34F801EE0F7E
:104E6000FF1FEE55F94F718360836F3F710519F095
:104E700014F06FEF70E077FF02C060E070E07183C4
:104E8000608382E40E94CF34882309F403C50E9422
:104E90001F346530710534F06F3671052CF06EE605
:104EA00070E002C065E070E0000F111FF801E656E7
:104EB000F94F71836083EEC488EC90E00E94FE3766
:104EC0008111E8C484E40E948634882309F441C037
:104ED0000E9453346B017C0111E020E030E0A90115
:104EE0000E944AE6811101C010E01093101220E0E8
:104EF00030E0A901C701B6010E944AE6882349F1C2
:104F00000E945334E091D80624E0E29FF00111247E
:104F1000E45FFD4E608371838283938320E030E001
:104F2000A90160910C1270910D1280910E12909156
:104F30000F120E944AE681110CC080E090E0A0EEC2
:104F4000BFE380930C1290930D12A0930E12B093B6
:104F50000F120E94E4919EC476E5E72E71E0F72ED1
:104F600008EF12E1E8E0CE2EE3E1DE2ED7018D91CD
:104F70007D010E948634882349F00E9453340E94A8
:104F800059ECF80160837183828393830C5F1F4F18
:104F9000C016D10659F70E941D497CC40C5F1F4FF3
:104FA000FCE00E3F1F0709F475C4D7018D917D0108
:104FB0000E948634882391F30E945334F801608361
:104FC000718382839383EACF83E50E94CF34882361
:104FD000A1F00E9453346093E60C7093E70C809329
:104FE000E80C9093E90C6093E20C7093E30C8093CF
:104FF000E40C9093E50C10E001C011E080E50E9404
:10500000CF34882359F00E9453346093E60C709398
:10501000E70C8093E80C9093E90C10E082E50E9485
:10502000CF34882359F00E9453346093EA0C709374
:10503000EB0C8093EC0C9093ED0C10E084E50E9457
:10504000CF34882359F00E9453346093E20C70935C
:10505000E30C8093E40C9093E50C1CC4112309F439
:1050600019C44091E60C5091E70C6091E80C7091E6
:10507000E90C8FED94E00E949C484091EA0C50911D
:10508000EB0C6091EC0C7091ED0C8CED94E00E94B7
:105090009C484091E20C5091E30C6091E40C7091BB
:1050A000E50C89ED94E00E949C488AE00E94E2347D
:1050B000F1C381E50E948634882351F00E940F34A9
:1050C0006093020D7093030D8093040D9093050D72
:1050D00083E50E948634882351F00E945334609304
:1050E0001A0D70931B0D80931C0D90931D0D84E57C
:1050F0000E948634882351F00E9453346093160D29
:105100007093170D8093180D9093190D88E50E94E8
:105110008634882351F00E9453346093BE0C709300
:10512000BF0C8093C00C9093C10C89E50E9486341B
:10513000882351F00E9453346093C20C7093C30CC7
:105140008093C40C9093C50C8AE50E948634882312
:1051500051F00E9453346093C60C7093C70C809337
:10516000C80C9093C90C85E40E948634882309F406
:1051700091C30E9453346093CA0C7093CB0C8093FC
:10518000CC0C9093CD0C86C346E5C42E41E0D42EC2
:1051900050ECE52E58E0F52E10E0D6018D916D0112
:1051A0000E948634882351F00E945334F7016083B3
:1051B000718382839383812F0E9451331F5FF4E0B8
:1051C000EF0EF11C133049F70C948B1E0E94057CE6
:1051D00061C384918F010F5F1F4F882321F00E94CC
:1051E000E234F801F6CF83E50E948634882321F06B
:1051F0000E94433480932801E7E1F5E084918F0118
:105200000F5F1F4F882321F00E94E234F801F6CF90
:1052100080912801882319F0EFE0F5E002C0E3E176
:10522000F5E084918F010F5F1F4F811103C0E7E00C
:10523000F5E004C00E94E234F801F3CF84918F01BD
:105240000F5F1F4F882321F00E94E234F801F6CF50
:105250002091B6063091B7064091B8065091B90634
:105260006091C2067091C3068091C4069091C506F4
:105270000E94E6EAAB01BC0185E095E00E949C48F3
:105280002091BA063091BB064091BC065091BD06F4
:105290006091C6067091C7068091C8069091C906B4
:1052A0000E94E6EAAB01BC0182E095E00E949C48C6
:1052B0002091BE063091BF064091C0065091C106B4
:1052C0006091CA067091CB068091CC069091CD0674
:1052D0000E94E6EAAB01BC018FEF94E00E949C487B
:1052E000E7EFF4E084918F010F5F1F4F882321F0D7
:1052F0000E94E234F801F6CF2091B6063091B7064D
:105300004091B8065091B90660911C0170911D0141
:1053100080911E0190911F010E94E6EAAB01BC0141
:1053200085EF94E00E949C482091BA063091BB061C
:105330004091BC065091BD06609120017091210101
:1053400080912201909123010E94E6EAAB01BC0109
:1053500082EF94E00E949C482091BE063091BF06E7
:105360004091C0065091C1066091240170912501C1
:1053700080912601909127010E94E6EAAB01BC01D1
:105380008FEE94E00E949C488AE00E94E23482C240
:1053900083E50E94CF34882309F47CC20E941F3425
:1053A00070931B0160931A0175C28DED90E00E940D
:1053B000FE3781116FC283E50E94CF34811103C093
:1053C000E4E9F8E03BC00091D80610E00E941F34E9
:1053D000000F111FF801E85EFE4F7183608380911A
:1053E000D80690E08C01000F111F000F111F9801CB
:1053F000295B3E4F7901880F991FFC01E85EFE4F43
:1054000060817181072E000C880B990B0E9451E678
:105410002AE037ED43E25CE30E94B0E6F801EE5487
:10542000F94F20813181428153810E94B0E6D7013A
:105430006D937D938D939C9313972CC284918F01D0
:105440000F5F1F4F882321F00E94E234F801F6CF4E
:1054500085E40E94E2348091D806805D0E94E234A7
:10546000E091D806F0E0EE0FFF1FE85EFE4F60818E
:10547000718187E295E00E94B94885E20E94E2349A
:105480008AE00E94E23406C280E50E9486348823C6
:1054900009F400C20E941F346B017C0183E50E9465
:1054A000CF34882321F00E941F348B0102C00FEFFC
:1054B0001FEFC8010196039708F0ECC1D7FCEAC1C1
:1054C0008C2DEFE2F5E09491891709F4D5C331965C
:1054D000B5E0EC35FB07B9F7D2C38AE50E94CF34BB
:1054E0008111F5C383E50E94CF348111F0C3D2C18D
:1054F00083E50E94CF34882319F00E941F3402C034
:1055000064E071E079A368A380E50E94CF3488232A
:1055100039F00E941F346938E3E17E0730F402C09D
:1055200068EE73E07A83698304C088E893E19A8324
:105530008983BE01605E7F4FCE0101960E94093BC8
:10554000A9C185E40E94CF34811110C080E50E947A
:105550008634882391F00E94533460938D067093B3
:105560008E0680938F069093900607C00E942F347A
:10557000882361F3E5E6F8E071C089E40E9486348F
:10558000882381F00E9453342CEA35EC47E25EE335
:105590000E94B0E6609395067093960680939706F6
:1055A0009093980684E40E948634882381F00E94B8
:1055B00053342CEA35EC47E25EE30E94E0EB609363
:1055C0009106709392068093930690939406E4E973
:1055D000F8E084918F010F5F1F4F882321F00E9414
:1055E000E234F801F6CF40918D0650918E0660911D
:1055F0008F067091900684E695E00E949C482CEA04
:1056000035EC47E25EE360919506709196068091D5
:105610009706909198060E94E0EBAB01BC0180E6F2
:1056200095E00E949C482CEA35EC47E25EE36091ED
:1056300091067091920680919306909194060E9433
:10564000B0E6AB01BC018CE595E00E949C488AE085
:105650000E94E2341FC10E94E234F80184918F015C
:105660000F5F1F4F8111F7CFE8E6F5E084918F01BE
:105670000F5F1F4F882309F40DC10E94E234F80127
:10568000F5CF83E50E948634182F882371F00E949D
:1056900053340E9452EC70934C0160934B0121E013
:1056A000672B09F020E02093200D80E50E948634CE
:1056B000882359F020914B0130914C01232B11F09C
:1056C0000E9443348093200DE5C01111E3C0E4E94A
:1056D000F8E084918F010F5F1F4F882321F00E9413
:1056E000E234F801F6CF8091200D882319F064E1AF
:1056F00072E002C067E172E08FE895E00E94D24854
:1057000060914B0170914C018EE795E00E94B94881
:10571000EAE7F5E084918F010F5F1F4F882309F4BA
:10572000B9C00E94E234F801F5CF0E94E234F801DA
:1057300084918F010F5F1F4F8111F7CFE2EAF5E0EF
:1057400084918F010F5F1F4F882309F4A3C00E942B
:10575000E234F801F5CF0E94DA929CC00E946261A7
:1057600099C00E94E35A96C083E50E94863488233C
:1057700021F00E94433491E089270E94AB968AC0B1
:105780002093D5060E94F25B1092D506882309F477
:1057900081C0E4E9F8E084918F010F5F1F4F811110
:1057A00003C0E1EBF5E004C00E94E234F801F3CF5E
:1057B00084918F010F5F1F4F882309F46BC00E94F3
:1057C000E234F801F5CF80916E03882309F462C0BA
:1057D00081E0809371035EC081E0809309011092A3
:1057E000BD0C83E50E94CF34882339F00E944334F6
:1057F000811150C00E9498BF4DC083E50E9486343D
:10580000F7CF0E94DA8D46C0F09031120E94DA92F2
:10581000FF2029F1E4E9F8E084918F010F5F1F4F29
:10582000882321F00E94E234F801F6CF84E50E943B
:10583000E2346F2D70E080E090E04AE00E94913702
:1058400080E20E94E234EEECF5E084918F010F5F7C
:105850001F4F8823F9F00E94E234F801F6CF10922E
:105860006207E4E9F8E084918F010F5F1F4F8823FE
:1058700021F00E94E234F801F6CF6091620770E0F7
:105880008CEB95E00E94B9488AE00E94E23402C0A5
:105890000E94DA8D1092C2120E947BBF68C20E94E1
:1058A00059810E944ABEF6CF0E94DA9280914D0142
:1058B00090914E01A0914F01B091500180936302ED
:1058C00090936402A0936502B093660280911A01DE
:1058D00090911B01909362028093610284E690E0B4
:1058E00090931B0180931A0111E01093BE0888E584
:1058F0000E948634282E89E50E948634382E8AE557
:105900000E948634A82E211005C0311005C0BA2C83
:10591000B12605C0311002C0B12C01C0BA2C80E103
:10592000ECECF8E0ACEDB2E101900D928A95E1F774
:1059300082E50E94CF34882369F00E9453342B0102
:105940003C0120E030E0A9010E944AE6882309F4E6
:105950003FC006C0412C512C50EA652E50E4752EF4
:10596000B11005C0211003C0332009F41DC14092BD
:10597000E4125092E5126092E6127092E712A301CF
:1059800092016091D4087091D5088091D6089091C9
:10599000D7080E944AE687FF1BC019821A821B8221
:1059A0001C822091D0083091D1084091D2085091AA
:1059B000D3086091CC087091CD088091CE08909169
:1059C000CF08FE0131966F01830172010E945F32A0
:1059D000B1100DC0211003C03110E1C0E5C031107D
:1059E00006C080E00E940FBABB20B1F3D8C010926D
:1059F000D0081092D1081092D2081092D3081092B9
:105A0000CC081092CD081092CE081092CF080E94B8
:105A10000534EBEBFCE2249128AFEFEAFCE2C59001
:105A2000D590E590F490E3EBFCE2459055906590BD
:105A30007490A7019601C301B2010E944AE687FF54
:105A400005C0A7019601C301B20104C0A3019201E0
:105A5000C701B6010E94E0EB6CAB7DAB8EAB9FAB98
:105A6000E2E7FCE285919591A591B4918CA79DA761
:105A7000AEA7BFA7EEE6FCE2259135914591549182
:105A800028AB39AB4AAB5BABBC01CD010E9446ED04
:105A900018162CF498A809A91AA98BA804C09CA4CC
:105AA0000DA51EA58FA42CA93DA94EA95FA9CA01C9
:105AB000B9010E94B0E620E030E040E85FE30E94D8
:105AC000E6EA0E9494ED292D302F412F582D0E9497
:105AD000B0E669837A838B839C83ECEBFCE21491C0
