:100000000C9414150C943E150C943E150C943E154E
:100010000C943E150C943E150C943E150C943E1514
:100020000C943E150C943E150C943E150C943E1504
:100030000C943E150C9474D20C943E150C943E1501
:100040000C943E150C9404620C94F6D90C943E1555
:100050000C946A330C943E150C943E150C943E158A
:100060000C943E150C943E150C943E150C943E15C4
:100070000C943E150C943E150C943E150C943E15B4
:100080000C94DFD30C943E150C943E15FCCBC3CAE4
:10009000FACA38CCFACAFACAFACAFACAFACAFACA00
:1000A000FACAFACAFACAFACAFACAFACAFACAFACA30
:1000B000FACAFACAFACAFACAFACAFACAFACAFACA20
:1000C000FACAFACAFACAFACA32CCFACAFACAFACAD6
:1000D000FACAFACAFACAFACAFACA0BCCFACAFACAED
:1000E000FACAFACAFACAFACAFACAFACAFACAFACAF0
:1000F0004FCCF7CA3AD73DD730D734D754D754D797
:1001000041D745D74BD74FD765D96AD96FD979D958
:10011000A7D9A7D983D98BD993D99DD94E414E4917
:100120004E495459494E46CDCCCC3D0AD7233C17B5
:10013000B7D13877CC2B329595E6241FB14F0A0002
:100140000020410000C84200401C4620BCBE4CCAF2
:100150001B0E5AAEC59D74434F4D4D554E494341FC
:1001600054494F4E0044525952554E004552524F39
:10017000525300494E464F004543484F00536C656B
:1001800065702E2E2E00486F6D65205859206669C7
:100190007273740A00486F6D652058592066697241
:1001A000737400205A3A200020593A2000426564B6
:1001B00020583A20004D65736820706F696E742076
:1001C00063616E6E6F74206265207265736F6C760A
:1001D00065640A00436C69636B20746F20726573F9
:1001E000756D652E2E2E004E6F206D6F76652E007C
:1001F000456E642066696C65206C6973740A004200
:100200006567696E2066696C65206C6973740A00A5
:10021000286E6F2066696C652900534420707269EE
:100220006E74696E67206279746520004E6F742069
:100230005344207072696E74696E670A0043757268
:1002400072656E742066696C653A200025697300DA
:1002500025696D20256973002569682025696D2051
:1002600025697300256964202569682025696D204A
:10027000256973002569792025696420256968202E
:1002800025696D20256973005072696E7420746948
:100290006D653A2000780173016C01650157016FAB
:1002A00066660044454255473A004B494C4C45442C
:1002B0002E20004D3131332053006F6B00456E64AA
:1002C00065722D33204F66662E002C20002C2000F6
:1002D000544845524D414C5F50524F544543544948
:1002E0004F4E004155544F5245504F52545F534466
:1002F0005F53544154555300454D455247454E4375
:10030000595F50415253455200434153455F4C4958
:100310004748545F4252494748544E45535300544E
:100320004F47474C455F4C494748545300534F464D
:1003300054574152455F504F574552004255494C22
:10034000445F50455243454E54004C4556454C4938
:100350004E475F44415441005A5F50524F4245005E
:100360004155544F4C4556454C005052494E545FF0
:100370004A4F420050524F47524553530041555443
:100380004F5245504F52545F54454D5000564F4CBC
:10039000554D455452494300454550524F4D005329
:1003A000455249414C5F584F4E5F584F46460046B4
:1003B00049524D574152455F4E414D453A4D61724C
:1003C0006C696E206275676669782D312E312E78E2
:1003D00020284769746875622920534F5552434558
:1003E0005F434F44455F55524C3A68747470733A9A
:1003F0002F2F6769746875622E636F6D2F4D617260
:100400006C696E4669726D776172652F4D61726CB1
:10041000696E2050524F544F434F4C5F56455253D4
:10042000494F4E3A312E30204D414348494E455FA9
:10043000545950453A456E6465722D3320455854E1
:1004400052554445525F434F554E543A312055550D
:1004500049443A63656465326132662D34316132F4
:100460002D343734382D396231322D6335356336CA
:10047000326633363766660A002F2F20004D31343E
:100480003520533C696E6465783E206F7574206F2B
:10049000662072616E67652028302D31290A0020A0
:1004A0005400205200416363656C65726174696F2A
:1004B0006E3A2050005741524E494E4721204C6F12
:1004C00077205A204A65726B206D6179206C6561D6
:1004D0006420746F20756E77616E7465642070613E
:1004E000757365732E0A0020466C6F773A20000002
:1004F000010F150E12FFFFFFFF16170E13FFFFFF70
:10050000FF03021A14FFFFFFFFFFFFFF0C04FFFFB2
:10051000FF01000EFFFFFF0C190DFF18206F75740F
:10052000206F662072616E67650A00536572766F90
:1005300020003A200020536572766F200050726FC1
:100540006265205A204F66667365743A200043291D
:100550000A0061626C656420286D696E2074656DA7
:10056000702000436F6C64206578747275646573E5
:100570002061726520004E6F2063617365206C6995
:100580006768740A004D65736820706F696E742027
:1005900063616E6E6F74206265207265736F6C7636
:1005A00065640A004D34323120696E636F72726582
:1005B000637420706172616D65746572207573611A
:1005C00067650A00454550524F4D204F4B0A003F8A
:1005D0005A206F7574206F662072616E67652028DF
:1005E0002D323020746F203230290A003A2000501A
:1005F000726F6265205A204F6666736574003F4BC8
:100600002076616C7565206F7574206F662072614D
:100610006E67652028302D3130292E0A004164761E
:10062000616E6365204B3D004163746976652045CA
:10063000787472756465723A2000496E76616C69EF
:10064000642065787472756465720A004B494C4C7D
:1006500045442E200053544F505045442E20005006
:1006600072696E7465722073746F70706564206453
:10067000756520746F206572726F72732E204669E3
:100680007820746865206572726F7220616E6420D4
:10069000757365204D39393920746F207265737414
:1006A0006172742E202854656D7065726174757264
:1006B000652069732072657365742E2053657420FC
:1006C00069742061667465722072657374617274F6
:1006D000696E67290A004E6F20436865636B737506
:1006E0006D2077697468206C696E65206E756D6227
:1006F00065722C204C617374204C696E653A200041
:100700004E6F20436865636B73756D2077697468FD
:10071000206C696E65206E756D6265722C204C616F
:100720007374204C696E653A2000636865636B736F
:10073000756D206D69736D617463682C204C6173F5
:1007400074204C696E653A20004C696E65204E75C8
:100750006D626572206973206E6F74204C617374D2
:10076000204C696E65204E756D6265722B312C20B0
:100770004C617374204C696E653A20004D31313004
:10078000004D3331005344207265616420657272FC
:100790006F720A00446F6E65207072696E74696EC4
:1007A000672066696C650A0020496E76616C696431
:1007B0002065787472756465722000000000000086
:1007C0000000000000000000006B4300006B4300CD
:1007D000007A4324F4D43050C38E20C2A240178242
:1007E0008B7011127A910D816CD90AA861E108C74A
:1007F000586607615143061E4B5D05C145A7041AA3
:10080000411104093D9803713931034036DB02651B
:10081000339102D4305402802E1D02632CEE0175F8
:100820002AC501B028A001102781018F2564012B62
:10083000244B01E0223401AC211F018D200D0180E9
:100840001FFC00841EED00971DDF00B81CD200E6DF
:100850001BC600201BBC00641AB200B219A8000A13
:1008600019A0006A189900D117910040178B00B5A4
:1008700016840031167E00B31579003A157300C74F
:10088000146F0058146A00EE136600881363002585
:10089000135E00C7125B006C12570015125400C1A2
:1008A00011510070114F0021114B00D61049008DDD
:1008B0001047004610440002104200C00F40008064
:1008C0000F3E00420F3C00060F3B00CB0E3800935A
:1008D0000E37005C0E3500270E3400F30D3200C1D8
:1008E0000D3100900D3000600D2E00320D2D0005F1
:1008F0000D2C00D90C2B00AE0C2900850C29005CB6
:100900000C2700350C27000E0C2600E80B2400C431
:100910000B2400A00B23007D0B23005A0B21003970
:100920000B2100180B2000F80A1F00D90A1E00BB7B
:100930000A1E009D0A1D00800A1D00630A1C004754
:100940000A1B002C0A1B00110A1A00F7091A00DD05
:10095000091900C4091900AB091900920917007B95
:10096000091800630917004C091600360916002003
:100970000916000A091500F5081500E0081400CC56
:10098000081400B8081400A4081400900813007D8F
:100990000812006B081300580812004608120034B1
:1009A000081100230811001208110001081100F0BD
:1009B000071000E0071000D0071000C0071000B0BB
:1009C000070F00A107100091070E0083070F0074A6
:1009D000070F0065070E0057070E0049070E003B82
:1009E000070D002E070E0020070D0013070D00064F
:1009F000070D00F9060C00ED060D00E0060C00D412
:100A0000060C00C8060C00BC060C00B0060C00A4C6
:100A1000060B0099060C008D060B0082060B007772
:100A2000060B006C060B0061060A0057060B004C13
:100A3000060A0042060A0038060A002E060A0024AA
:100A4000060A001A060A001006090007060A00FD39
:100A5000050900F4050900EB050900E2050900D9C4
:100A6000050900D0050900C7050900BE050900B544
:100A7000050800AD050800A50509009C05080094BF
:100A80000508008C050800840508007C0508007432
:100A90000508006C050700650508005D05070056A0
:100AA0000508004E05070047050700400508003807
:100AB000050700310507002A050700230507001C6C
:100AC000050600160507000F0507000805060002C9
:100AD000050700FB040600F5040700EE040600E825
:100AE000040600E2040700DB040600D5040600CF7C
:100AF000040600C9040600C3040600BD040600B7CE
:100B0000040600B1040500AC040600A6040600A01B
:100B10000405009B04060095040500900406008A65
:100B200004050085040500800406007A04050075AC
:100B3000040500700405006B0405006604050061EF
:100B40000405005C04050057040500520405004D2F
:100B500004050048040500430405003E0404003A6F
:100B600004050035040500300404002C04050027AA
:100B7000040400230405001E0404001A04040016E3
:100B8000040500110404000D040400090405000418
:100B900004040000040400FC030400F8030400F44F
:100BA000030400F0030400EC030400E8030400E481
:100BB000030400E0030400DC030400D8030400D4B1
:100BC000030400D0030400CC030400C8030300C5E1
:100BD00003030024F404D9201BC40C5C0E9804C445
:100BE000095F0265077101F405F900FB04B30048D1
:100BF000048700C10369005803550003034500BE84
:100C0000023A008402310053022A0029022500041E
:100C1000022000E4011C00C8011900AF0117009870
:100C200001140084011300710110006101100051D2
:100C3000010E0043010D0036010B002B010B0020BB
:100C4000010B00150109000C01090003010800FB5C
:100C5000000800F3000800EB000700E4000600DED7
:100C6000000600D8000600D2000600CC000500C730
:100C7000000500C2000500BD000400B9000400B575
:100C8000000400B1000400AD000400A9000400A5A8
:100C9000000300A20003009F0004009B00030098D3
:100CA0000003009500020093000300900003008DF4
:100CB0000002008B0003008800020086000200840E
:100CC000000300810002007F0002007D0002007B23
:100CD0000002007900020077000100760002007433
:100CE00000020072000100710002006F0002006D3E
:100CF0000001006C0002006A000100690002006748
:100D0000000100660001006500010064000200624D
:100D100000010061000100600001005F0002005D51
:100D20000001005C0001005B0001005A0001005955
:100D30000001005800010057000100560001005555
:100D40000001005400010053000000530001005254
:100D500000010051000100500001004F0001004E51
:100D60000000004E0001004D0001004C0001004B4E
:100D70000000004B0001004A00010049000100484A
:100D80000000004800010047000100460000004646
:100D9000000100450000004500010044000100433F
:100DA0000000004300010042000000420001004139
:100DB00000000041000100400001003F0000003F32
:100DC0000001003E0000003E0001003D0000003D2B
:100DD0000001003C0000003C0000003C0001003B22
:100DE0000000003B0001003A0000003A0001003919
:100DF0000000003900010038000000380000003811
:100E00000001003700000037000100360000003606
:100E100000000036000100350000003500000035FC
:100E200000010034000000340000003400010033F1
:100E300000000033000000330001003200000032E7
:100E400000000032000100310000003100000031DC
:100E50000001003000000030000000300001002FD1
:100E60000000002F0000002F0000002F0001002EC6
:100E70000000002E0000002E0001002D0000002DBB
:100E80000000002D0000002D0001002C0000002CAF
:100E90000000002C0000002C0001002B0000002BA3
:100EA0000000002B0000002B0001002A0000002A97
:100EB0000000002A0000002A00010029000000298B
:100EC000000000290000002900000029000100287E
:100ED0000000002800000028000000280000002872
:100EE0000001002700000027000000270000002765
:100EF0000000002700010026000000260000002658
:100F0000000000260000002600010025000000254A
:100F1000000000250000002500000025000000253D
:100F20000001002400000024000000240000002430
:100F30000000002400010023000000230000002323
:100F40000000002300000023000000230000002315
:100F50000001002200000022000000220000002208
:100F600000000022000000220001002100000021FA
:100F700000000021000000210000002100000021ED
:100F800000000021000100200000002000000020DF
:100F900000000020000000200000002000000020D1
:100FA000000000200001001F0000001F0000001FC3
:100FB0000000001F0000001F0000001F0000001FB5
:100FC0000001001E0000001E0000001E0000001EA8
:100FD000000000C23100001C260000F4190000D8F7
:100FE0000F0000EB080000C0040000750200004084
:100FF0000100006265640A002C2073797374656DCA
:101000002073746F70706564212048656174657227
:101010005F49443A20004265642068656174696EE6
:1010200067206661696C65640048656174696E6714
:10103000206661696C6564004531204865617469AA
:101040006E67206661696C65640048656174696EED
:1010500067206661696C6564002020506C616E6E6B
:10106000657242756666657242797465733A2000EE
:101070002046726565204D656D6F72793A20004398
:101080006F6D70696C65643A204F63742031322053
:10109000323031390A00207C20417574686F723A11
:1010A00020287468697369736B65697468622C20A1
:1010B000456E6465722D33290A00323031382D3087
:1010C000372D333100204C61737420557064617486
:1010D00065643A20006275676669782D312E312E7D
:1010E000780A004D61726C696E0020536F667477E8
:1010F0006172652052657365740A002057617463DC
:1011000068646F672052657365740A002042726FCD
:10111000776E206F75742052657365740A002045E0
:10112000787465726E616C2052657365740A005044
:101130006F77657255700A0073746172740A00618A
:1011400075746F25692E67006572726F72207772F1
:101150006974696E6720746F2066696C650A004562
:101160006E6473746F70732025632025632025637C
:1011700020256300205A3A0020593A0020583A00AE
:10118000656E6473746F7073206869743A200044EC
:101190006F6E6520736176696E672066696C652E77
:1011A0000A004D32390057726974696E6720746F96
:1011B0002066696C653A20006F70656E2066616913
:1011C0006C65642C2046696C653A20006F70656E12
:1011D000206661696C65642C2046696C653A200064
:1011E00046696C652073656C65637465640A0020EC
:1011F00053697A653A200046696C65206F70656EA8
:1012000065643A20002066696C653A2000646F6965
:101210006E67006672657368004E6F772000454EFA
:101220004420535542524F5554494E450A002220FE
:10123000706F73002220706172656E743A220053E1
:101240005542524F5554494E452043414C4C207411
:1012500061726765743A22004B494C4C45442E201C
:1012600000747279696E6720746F2063616C6C2002
:101270007375622D67636F64652066696C657320A2
:101280007769746820746F6F206D616E79206C656A
:1012900076656C732E204D4158206C6576656C2008
:1012A00069733A004572726F723A006F70656E2012
:1012B0006661696C65642C2046696C653A20004360
:1012C000616E6E6F74206F70656E207375626469F5
:1012D0007220006563686F3A0020746F6F206C6F36
:1012E0006E6720657874727573696F6E20707265B1
:1012F00076656E7465640A0020636F6C642065789F
:1013000074727573696F6E2070726576656E746540
:10131000640A00627573793A2070617573656420A0
:10132000666F7220696E7075740A00627573793A1F
:101330002070617573656420666F722075736572C5
:101340000A00627573793A2070726F63657373690E
:101350006E670A004B494C4C45442E20004B494CCB
:101360004C2063617573656420627920746F6F200F
:101370006D75636820696E61637469766520746950
:101380006D65202D2063757272656E7420636F6DBC
:101390006D616E643A2000506C6561736520726502
:1013A000736574005052494E5445522048414C5484
:1013B0004544005072696E7465722068616C746592
:1013C000642E206B696C6C28292063616C6C6564E9
:1013D000210A00656E7175657565696E672022006A
:1013E0000000000000000000000000000000A0411C
:1013F0000000A04100008040000000005761726EB4
:10140000696E673A20486F6D696E672042756D702E
:101410002044697669736F72203C20310A00020211
:10142000040000A0400000A0400000004000006B4D
:101430004300006B4300007A43FFFFFF25753A2508
:1014400030327500253032753A25303275002575F9
:101450006420253032753A25303275002020202056
:101460002020005A00590020202020005800092088
:1014700000000000000000000000000000003FFF2E
:10148000F000000000000000000000000000380034
:10149000700000000000000000000000000030FCB0
:1014A000300000000000000000000000000020FCF0
:1014B0001000000000000000000000000000207884
:1014C00010000000000000000000000000002030BC
:1014D00010000000000000000000000000002C00D0
:1014E000D0F80180000C1FE00000082080002E31A1
:1014F000D048008000123FF00000041040002F7B15
:10150000D043C38CD0023FF00000041040002F7B7A
:10151000D071249267CC3FF00000082080002E316B
:10152000D041249E40021FE00000104100002C002A
:10153000D049249040121FE000002082000020309B
:1015400010FBB3CEE00C3FF00000208200002078BA
:101550001000000000003FF000001041000020FCDF
:101560001000000000003FF000000820800030FC68
:101570003000000000000FC0000000000000380034
:1015800070000000000007800000FFFFC0003FFF68
:10159000F0000000000003000000FFFFC00000009A
:1015A00000000000000000000000000000003FFFFD
:1015B000F000000000000000000000000000380003
:1015C00070000000000000000000000000003387F1
:1015D000300000000000000000000000000027872D
:1015E00090000000000000000000000000002F87B5
:1015F000D0000000000000000000000000002F8765
:10160000D0000000000000000000000000002F03D8
:10161000D0F80180000C1FE000000820800020307E
:101620001048008000123FF00000041040002078B5
:101630001043C38CD0023FF000000410400020781B
:101640001071249267CC3FF0000008208000203009
:101650001041249E40021FE00000104100002F03B3
:10166000D049249040121FE00000208200002F8704
:10167000D0FBB3CEE00C3FF00000208200002F87AB
:10168000D000000000003FF000001041000027875C
:101690009000000000003FF0000008208000338729
:1016A0003000000000000FC0000000000000380003
:1016B00070000000000007800000FFFFC0003FFF37
:1016C000F0000000000003000000FFFFC000000069
:1016D0000070012C0190012701B0012201C0011D01
:1016E00001F00118011002130130020E016002091D
:1016F0000190020401C002FF000003FA004003F55C
:10170000008003F000D003EB002004E6007004E149
:1017100000E004DC004005D700C005D2004006CD43
:1017200000D006C8008007C3003008BE00F008B92A
:1017300000C009B400B00AAF00B00BAA00D00CA5DD
:1017400000000EA000500F9B00C010960050129198
:101750000000148C00C0158700B0178200B0197DFE
:1017600000D01B7800001E730040206E009022699C
:1017700000F024640040275F0090295A00E02B55B8
:1017800000102E500020304B0010324600E0334154
:101790000090353C001037370070383200A0392DEA
:1017A00000B03A2800A03B2300603C1E00103D1909
:1017B00000903D1400103E0F00703E0A00C03E0530
:1017C00000003F0000403FFBFF803FF6FFC03FF1BD
:1017D000FF453120544845524D414C2052554E4111
:1017E0005741590042454420544845524D414C20F0
:1017F00052554E4157415900546865726D616C20D5
:1018000052756E61776179004531204572723A20D8
:101810004D415854454D50004572723A204D415843
:1018200054454D5020424544004D415854454D507B
:10183000207472696767657265640045312045727E
:10184000723A204D494E54454D50004572723A202F
:101850004D494E54454D5020424544004D494E544B
:10186000454D5020747269676765726564004D3834
:101870003420582059205A204500202F0020424073
:101880003A0020403A0020746F6F206C6F6E672022
:10189000657874727573696F6E2070726576656EA7
:1018A0007465640A0020636F6C64206578747275D7
:1018B00073696F6E2070726576656E7465640A0078
:1018C00042696C696E656172204C6576656C696E03
:1018D0006720477269643A0A0020284452595255D9
:1018E0004E2900473239204175746F2042656420CB
:1018F0004C6576656C696E67003F20284C2C522C35
:10190000462C4229206F7574206F6620626F756EB9
:1019100064732E0A003F2856296572626F73652032
:101920006C6576656C20697320696D706C61757388
:1019300069626C652028302D34292E0A00426164CA
:10194000205A2076616C75650A004E6F2062696CC2
:10195000696E65617220677269640A0046696C6528
:101960002064656C657465643A0044656C657469EF
:101970006F6E206661696C65642C2046696C653AFF
:10198000200050726F7465637465642050696E0A3C
:101990000020573A004520436F6F6C696E672E2E0A
:1019A0002E00452048656174696E672E2E2E00203A
:1019B000573A0042656420636F6F6C696E672E2E24
:1019C0002E004265642068656174696E672E2E2E54
:1019D000004578747275646572004D6F7665205AA3
:1019E000004D6F76652059004D6F76652058005088
:1019F000726570617265004C6F6164207365747408
:101A0000696E677300526573746F726520666169F1
:101A10006C736166650053746F72652073657474CE
:101A2000696E677300424C546F7563680046696C59
:101A3000616D656E74004D6F74696F6E0054656DF5
:101A40007065726174757265004D61696E004D3329
:101A500030332055312045256920532569005049F0
:101A600044204175746F74756E650050494420417F
:101A700075746F74756E65005049442D440050496B
:101A8000442D44005049442D49005049442D4900FB
:101A90005049442D50005049442D50002008204604
:101AA0006163740020082046616374002008204DA3
:101AB0006178002008204D6178002008204D696E73
:101AC000002008204D696E004F6666004F6E2000B2
:101AD0004175746F74656D700046616E207370653A
:101AE00065640046616E20737065656400426564DC
:101AF00000426564004E6F7A7A6C65004E6F7A7AA8
:101B00006C6500436F6E74726F6C00546865726D23
:101B10006973746F727300426F61726420496E66FC
:101B20006F005072696E74657220496E666F004D69
:101B300061696E0000060900FE0701920321207F03
:101B4000FF07FF07FF00000006000001070706026D
:101B50000080808080800080030202060105A0A032
:101B60000507070600005050F850F85050050707C9
:101B70000600002078A07028F02005070706000066
:101B8000C0C810204098180507070600006090A004
:101B900040A89068020303060104C04080030707C1
:101BA00006010020408080804020030707060100D6
:101BB0008040202020408005050506000120A870F7
:101BC000A8200505050600012020F82020020303B7
:101BD0000602FFC04080050101060003F802020270
:101BE000060200C0C005050506000108102040805F
:101BF0000507070600007088888888887003070733
:101C000006010040C040404040E0050707060000D4
:101C1000708808708080F8050707060000F810201B
:101C2000100808F005070706000010305090F81063
:101C300010050707060000F880F0080888700507FF
:101C400007060000708080F088887005070706008E
:101C500000F80810202020200507070600007088E3
:101C600088708888700507070600007088887808E3
:101C70000870020505060200C0C000C0C0020606CA
:101C80000602FFC0C000C040800407070600001025
:101C9000204080402010050303060002F800F804ED
:101CA0000707060100804020102040800507070636
:101CB000000070880810200020050707060000704B
:101CC000880868A8A870050707060000708888F8CB
:101CD000888888050707060000F08888F08888F063
:101CE0000507070600007088808080887005070758
:101CF000060000F08888888888F00507070600003D
:101D0000F88080F08080F8050707060000F88080E2
:101D1000F0808080050707060000708880B88888FA
:101D200070050707060000888888F88888880107FA
:101D300007060200808080808080800507070600FB
:101D400000381010101090600507070600008890FA
:101D5000A0C0A090880507070600008080808080D2
:101D600080F805070706000088D8A88888888805B5
:101D700007070600008888C8A8988888050707060E
:101D8000000070888888888870050707060000F0C2
:101D90008888F080808005070706000070888888A2
:101DA000A89068050707060000F08888F0A09088D2
:101DB000050707060000788080700808F00507070F
:101DC000060000F82020202020200507070600003C
:101DD00088888888888870050707060000888888B2
:101DE000888850200507070600008888888888A80A
:101DF000500507070600008888502050888805078E
:101E00000706000088888850202020050707060064
:101E100000F80810204080F8030707060100E08062
:101E200080808080E00505050600018040201008C4
:101E3000030707060100E02020202020E00503031F
:101E4000060004205088050101060000F802020285
:101E500006020580400505050600007008788878B0
:101E60000507070600008080B0C88888F0050505D2
:101E700006000070808088700507070600000808CB
:101E800068988888780505050600007088F88070D5
:101E90000507070600003048E040404040050606C0
:101EA0000600FF7088887808700507070600008024
:101EB00080B0C888888801070706020080008080FB
:101EC0008080800308080601FF200020202020A039
:101ED00040040707060000808090A0C0A090030780
:101EE00007060100C04040404040E00505050600EF
:101EF00000D0A8A8A8A8050505060000B0C88888D5
:101F000088050505060000708888887005060606A5
:101F100000FFF08888F080800506060600FF7888BC
:101F200088780808050505060000B0C8808080058F
:101F3000050506000070807008F004070706000021
:101F40004040E04040403005050506000088888894
:101F50009868050505060000888888502005050555
:101F60000600008888A8A8500505050600008850CE
:101F70002050880506060600FF88888878087005C6
:101F80000505060000F8102040F8030707060100C9
:101F900020404080404020010707060200808080EA
:101FA0008080808003070706010080404020404079
:101FB000800502020600026890000000060000454D
:101FC0004550524F4D206461746173697A65206594
:101FD00072726F722E0A00290A002062797465738A
:101FE0003B20637263200053657474696E677320CD
:101FF00053746F726564202800290A002062797486
:1020000065733B2063726320002073746F72656494
:102010002073657474696E67732072657472696584
:10202000766564202800202863616C63756C617498
:10203000656429210A0020213D2000454550524F6A
:102040004D20435243206D69736D61746368202D88
:10205000202873746F7265642920002053697A65A3
:102060003A2000496E6465783A2000204D61726C18
:10207000696E3D563536290A0028454550524F4D68
:102080003D00454550524F4D2076657273696F6E25
:10209000206D69736D617463682000205A3A0020D6
:1020A000593A0020436F756E7420583A0020453A23
:1020B00000205A3A0020593A00583A003A00436149
:1020C000703A00205A00205900580020204D6178B5
:1020D0003A2000205A00205900580020204D696EF7
:1020E0003A20004F6E20004F666600536F667420E2
:1020F000656E6473746F70733A200020643A002038
:10210000693A0020703A00496E76616C6964206516
:10211000787472756465720A0023646566696E6519
:102120002044454641554C545F4B64200023646570
:1021300066696E652044454641554C545F4B6920A5
:102140000023646566696E652044454641554C54DC
:102150005F4B702000504944204175746F74756E58
:10216000652066696E697368656421205075742006
:10217000746865206C617374204B702C204B69204F
:10218000616E64204B6420636F6E7374616E747350
:102190002066726F6D2062656C6F7720696E746F58
:1021A00020436F6E66696775726174696F6E2E6821
:1021B0000A00504944204175746F74756E6520663D
:1021C00061696C6564212074696D656F75740A00BE
:1021D000453120544845524D414C2052554E4157AF
:1021E000415900546865726D616C2052756E61775B
:1021F00061790045312048656174696E67206661C8
:10220000696C65640048656174696E672066616920
:102210006C656400504944204175746F74756E6537
:10222000206661696C6564212054656D706572611A
:102230007475726520746F6F20686967680A002082
:102240004B643A2000204B693A2000204B703A2022
:10225000000A20436C617373696320504944200A6B
:10226000002054753A2000204B753A2000206D6103
:10227000783A2000206D696E3A200020643A2000F0
:1022800020626961733A2000504944204175746F9F
:1022900074756E65206661696C6564212054656D96
:1022A000706572617475726520746F6F20686967FC
:1022B000680A00504944204175746F74756E65203A
:1022C00073746172740A00504944204175746F74CC
:1022D000756E65206661696C6564212042616420C9
:1022E0006578747275646572206E756D6265720AC8
:1022F000004F66660A004661646520486569676844
:10230000742000426564204C6576656C696E6720B8
:10231000004661696C656420746F20656E61626C53
:102320006520426564204C6576656C696E670A00BD
:102330004F666673657473206170706C69656400C4
:102340004572723A20546F6F206661722100546F9B
:102350006F206661722066726F6D207265666572AD
:10236000656E636520706F696E740A007C3C3E5E2A
:102370002B3D3F2F5B5D3B2C2A225C004D3234000D
:102380004D323320257300556E6B6E6F776E206370
:102390006F6D6D616E643A20220050726F62696EDB
:1023A00067206661696C65640A0050726F62696ECD
:1023B00067206661696C656400205A3A20002059E4
:1023C0003A200042656420583A200053442063615B
:1023D0007264206F6B0A006F70656E526F6F7420AD
:1023E0006661696C65640A00766F6C756D652E694F
:1023F0006E6974206661696C65640A0053442069E3
:102400006E6974206661696C0A00486F6D652025ED
:102410007325732573206669727374002066697270
:1024200073740A005A0059005800486F6D65200007
:10243000456E6465722D332052656164792E0050BB
:1024400072696E74696E672E2E2E005072696E74FA
:102450002070617573656400436D643A2053746F36
:102460007700436D643A204465706C6F7900436D6A
:10247000643A2053656C662D5465737400436D6433
:102480003A2053572D4D6F646500436D643A2052D6
:1024900065736574004D61696E005072696E7420D9
:1024A00061626F7274656400496E69742E205344D2
:1024B0002063617264004D3231004E6F205344201E
:1024C00063617264004368616E67652053442063F2
:1024D000617264004D3231005072696E7420667210
:1024E0006F6D2053440053746F70207072696E7466
:1024F00000526573756D65207072696E740041627B
:102500006F7574205072696E7465720050617573D6
:1025100065207072696E7400436F6E74726F6C0028
:10252000507265706172650054756E6500496E6623
:102530006F2073637265656E0050726F6265205A1A
:10254000204F66667365740050726F6265205A2072
:102550004F666673657400466C6F7700466C6F77E4
:102560000046616E2073706565640046616E20737D
:10257000706565640042656400426564004E6F7A70
:102580007A6C65004E6F7A7A6C650053706565648D
:10259000005370656564004D61696E005072656836
:1025A00065617420504C4120456E6400507265682E
:1025B00065617420504C412042656400507265682A
:1025C00065617420504C4100507265706172650005
:1025D000507265686561742041425320456E640005
:1025E0005072656865617420414253204265640001
:1025F0005072656865617420414253005072657085
:1026000061726500436D643A205265736574004DD4
:10261000323830205030205331363000436D643A28
:102620002053656C662D54657374004D323830202C
:10263000503020533132300050726568656174202B
:10264000414253005072656865617420504C4100EE
:10265000436F6F6C646F776E0044697361626C6581
:10266000207374657070657273004D383400417565
:10267000746F20686F6D6500473238004D6F766566
:102680002061786973004D61696E004D6F76652039
:1026900058004D6F76652059004D6F7665205A00C1
:1026A0004578747275646572004D6F766520302EC2
:1026B000316D6D004D6F766520316D6D004D6F761B
:1026C000652031306D6D004D6F76652061786973DE
:1026D000004578747275646572004D6F7665205A96
:1026E000004D6F76652059004D6F7665205800507B
:1026F000726F6265205A204F666673657400436F7F
:102700006E74726F6C0046696C2E204469612E00F5
:1027100046696C2E204469612E004F6666004F6E3C
:1027200020004520696E206D6D3300416476616E36
:102730006365204B00416476616E6365204B004306
:102740006F6E74726F6C0043616E6E6F7420656E95
:10275000746572207375626469723A2000022E2ECD
:10276000000152656672657368004D61696E004DC7
:1027700061782054656D703A20313235004D696EB4
:102780002054656D703A203500544265643A4550D6
:10279000434F53203130304B004D61782054656DEC
:1027A000703A20323735004D696E2054656D703AAD
:1027B00020350054303A204550434F5320313030BB
:1027C0004B005053553A2047656E6572696300505F
:1027D000726F746F636F6C3A20312E3000426175F6
:1027E000643A20313135323030004D656C7A6920E1
:1027F00028437265616C697479290042696C696E5D
:10280000656172204C6576656C696E670045787409
:102810007275646572733A203100687474703A2F6F
:102820002F6D61726C696E66772E6F726700456EF0
:102830006465722D3300323031382D30372D33310D
:10284000006275676669782D312E312E78004D61F2
:10285000726C696E0048617264636F6465642044E1
:10286000656661756C742053657474696E67732056
:102870004C6F616465640A00F4010000F40100001B
:1028800064000000881300000000FA430000FA43CF
:102890000000A0400000C8410000A0420000A0428B
:1028A0000000C8430000BA42486F6D696E67206639
:1028B00061696C656400545249474745524544007C
:1028C0006F70656E003A20007A5F6D696E00795F07
:1028D0006D696E00785F6D696E005265706F72741D
:1028E000696E6720656E6473746F702073746174B1
:1028F00075730A0000060900FE00000000000109CF
:102900000008FE000005080806000040F0C888889E
:10291000987810050808060000C0F888888888881C
:10292000F80505050600012030F8302005080806E6
:1029300000002070F820202020E00509090600FF93
:102940002070A8A8B8888870200509090600FFE053
:1029500080C0B0A8283028280509090600FFF8A87B
:102960008888888888A8F8050A0A0600FE20505042
:10297000505088A8A8887003030306000340A040B5
:102980004572726F722077726974696E6720746F16
:1029900020454550524F4D210A00000021002400DF
:1029A00027002A0000002200250028002B0000003C
:1029B0002000230026002900020202020202020275
:1029C00004040404040404040303030303030303CF
:1029D00001010101010101010102040810204080F0
:1029E00001020408102040800102040810204080E9
:1029F0008040201008040201000000010200090AC2
:102A000000000000040308070000000000000000B0
:102A10000000000000000000526573656E643A20FB
:102A2000006F6B006DE039E111241FBECFEFD0E4E1
:102A3000DEBFCDBF12E0A0E0B1E0ECEBF0EE01E0D4
:102A40000BBF02C007900D92A836B107D9F724E159
:102A5000A8E6B2E001C01D92A837B207E1F715E180
:102A6000C3E1D5E104C02197FE010E94AFEDC23160
:102A7000D107C9F70E9409DC0C9451F00C940000B6
:102A80002F923F924F925F926F927F928F929F927E
:102A9000AF92BF92CF92DF92EF92FF920F931F936C
:102AA000CF93DF93CDB7DEB7E0970FB6F894DEBFD4
:102AB0000FBECDBF21E0209399088091EF138D3494
:102AC00009F48BC3843511F40C94A126873411F0DA
:102AD0000C94ED268091ED139091EE138D319105BC
:102AE00009F408C164F48430910509F4AEC01CF403
:102AF000029768F16EC34C9709F4E5C06AC38A3542
:102B0000910509F49DC244F48E31910509F4F6C093
:102B10008A9709F4C8C15DC38B35910509F494C245
:102B20008C35910509F055C32FE6222E21E0322E77
:102B300037EAE32E38E0F32E85E39AE09DA38CA3D9
:102B400045E2C42E4AE0D42E00E010E0BCC28091E1
:102B50001101882311F40C94EF266FE6862E61E0B4
:102B6000962E73EBE72E78E0F72E05E31AE0E5E208
:102B7000AE2EEAE0BE2EF8E6CF2EF2E0DF2E712C6C
:102B8000D4018D914D010E94152F882319F10E94C7
:102B9000E22EF6012081211104C020916C02222333
:102BA00041F0D8012D913D914D915C910E94B9ED7C
:102BB0000AC0B3E07B1639F0F501208131814281F2
:102BC00053810E94B8EDD7016D937D938D939C93B3
:102BD00013970AC0F80180819181A281B381F70126
:102BE00080839183A283B3837394F4E0EF0EF11C8E
:102BF0000C5F1F4F24E0A20EB11C3FEFC31AD30A93
:102C000044E07412BDCF86E40E945E2F8823C9F091
:102C10000E94E22E20E030E0A9010E943CEF18164D
:102C200084F40E94E22E20E030E040E752E40E946B
:102C30003CEE60934E0170934F018093500190934E
:102C400051010E94EC4E0C94EF2680E50E945E2F0D
:102C5000882329F00E949E2E6B017C0103C0C12CA9
:102C6000D12C760183E50E945E2F882361F00E94BB
:102C7000E22E20E030E04AE754E40E9477E90E9427
:102C8000B5EE6B017C010E94C37480915F0C8111D1
:102C900005C060E08DE791E00E948E8B0E94EAD92A
:102CA000C60ED71EE81EF91E0E94EAD9DC01CB0130
:102CB0008C199D09AE09BF09B7FD02C00C94EF261F
:102CC0000E94334CF1CF8091240A8770873011F035
:102CD0000C94F4268FE40E945E2F882319F00E9442
:102CE000D22E03C08FE40E94152F81110C94EF2681
:102CF0000C94F4260E948B7A0C94EF26C090350A2F
:102D0000D090360AE090370AF090380A88E50E94A1
:102D10005E2F811109C020E030E040E452E4C70199
:102D2000B6010E94B8ED02C00E94E22E68A379A30A
:102D30008AA39BA3C090390AD0903A0AE0903B0A3C
:102D4000F0903C0A89E50E945E2F811109C020E0C5
:102D500030E040E251E4C701B6010E94B8ED02C084
:102D60000E94E22E9B01AC0169837A838B839C8352
:102D700068A179A18AA19BA10E94254B882311F407
:102D80000C94EF2680E00E94022E0E94372B85E4EF
:102D90000E945E2F882321F00E94D22E182F04C09B
:102DA00085E40E94152F11E086E50E945E2F88239E
:102DB00021F00E94AE2E262F01C021E0412FBE013E
:102DC0006F5F7F4FCE0180960E94BCAF6B017C018C
:102DD0009B01AC010E94BAEF81115FC088A099A04D
:102DE000AAA0BBA020E030E0A901C501B4010E9467
:102DF00011E987FF05C027E137EB41E558EB04C037
:102E000027E137EB41E558E3C501B4010E94B9ED74
:102E1000AB01BC018DEA91E00E94C1D489809A8007
:102E2000AB80BC8020E030E0A901C501B4010E9464
:102E300011E987FF05C027E137EB41E558EB04C0F6
:102E400027E137EB41E558E3C501B4010E94B9ED34
:102E5000AB01BC0188EA91E00E94C1D420E030E0DF
:102E6000A901C701B6010E9411E987FF05C027E14A
:102E700037EB41E558EB04C027E137EB41E558E378
:102E8000C701B6010E94B9EDAB01BC0183EA91E034
:102E90000E94C1D48AE00E947B2F0E941E2B0E94B8
:102EA0003BA00C94EF2680911101882311F40C941F
:102EB000EF2689E40E945E2F082F882321F00E94CC
:102EC000AE2EE62E01C0E12C8AE40E945E2F182F60
:102ED000882321F00E94AE2EF62E01C0F12C002393
:102EE00019F032E03E1528F0112389F042E04F1529
:102EF00070F4E5EBF1E084918F010F5F1F4F8823A1
:102F000011F40C94EF260E947B2FF801F4CF0E945D
:102F1000712F0023F1F02091190A30911A0A4E2DD9
:102F20004203B001439F700D11248091150A9091C6
:102F3000160A680F791F072E000C880B990B0E9448
:102F400018E96093B3087093B4088093B508909320
:102F5000B6081123F1F020911B0A30911C0A4F2D65
:102F60004203B001439F700D11248091170A909184
:102F7000180A680F791F072E000C880B990B0E9406
:102F800018E96093B7087093B8088093B9089093D4
:102F9000BA0880E50E945E2F8823E9F00E94D22EB5
:102FA0008823A9F10023D9F020E030E040E452E486
:102FB0006091B3087091B4088091B5089091B608FB
:102FC0000E94B9ED6093B3087093B4088093B5087C
:102FD0009093B60804C080E50E94152FE1CF11231D
:102FE000B1F020E030E040E251E46091B708709128
:102FF000B8088091B9089091BA080E94B9ED609321
:10300000B7087093B8088093B9089093BA0886E41B
:103010000E945E2F882309F414CE0E94E22E6B01D9
:103020007C0120E030E0A9010E943CEF18160CF072
:1030300008CE20E030E040E752E4C701B601F7CD0A
:1030400010926C020C94EF2620936C020C94EF26E5
:103050000E94E22E2B013C01133049F0F601208141
:103060003181428153810E94B8ED2B013C01ACA11A
:10307000BDA12D913D914D915C91C301B2010E9482
:10308000B8ED4B015C012DEB37E346E855EB0E94B0
:103090003CEF87FD20C02DEB37E346E855E3C50143
:1030A000B4010E9411E91816B4F01F5FB4E0EB0EF2
:1030B000F11CECA1FDA13496FDA3ECA3F4E0CF0E2E
:1030C000D11C143039F1D1018D911D010E945E2F68
:1030D000882359F3BDCF133051F44092410A5092E6
:1030E000420A6092430A7092440A01E0DECFA501D1
:1030F0009401F70160817181828193810E94B9ED11
:10310000D7016D937D938D939C931397812F0E948C
:10311000072DCBCF002309F458C0C090410AD090AE
:10312000420AE090430AF090440A20E030E0A9010E
:10313000C701B6010E94B9ED20911B0E30911C0E03
:1031400040911D0E50911E0E0E9477E90E9441EFA2
:1031500060938D0570938E0580938F0590939005F5
:10316000C0927D05D0927E05E0927F05F0928005A9
:1031700090915B0580915C05981719F00E94657429
:1031800024C00E94C37480916F00982F927081FFB9
:1031900005C080916F008D7F80936F0040918D05F9
:1031A00050918E0560918F05709190054093F702C4
:1031B0005093F8026093F9027093FA02992329F070
:1031C00080916F00826080936F000E943BA00C94FE
:1031D000EF260E94C4B10C94EF268091ED139091DC
:1031E000EE138637910509F4A6C70CF0BFC08C34E6
:1031F000910509F4A4C40CF050C08931910509F47B
:10320000ADC21CF58431910509F4BAC17CF4813159
:10321000910509F42FC22CF4029708F4B4C10C9460
:103220009E26429709F40AC60C949E268631910583
:1032300009F46DC20CF467C28731910509F46DC2BF
:10324000489709F480C20C949E268E31910509F4AA
:103250003BC384F48B31910509F494C20CF484C20D
:103260008C31910509F426C34D9711F40C94EF2687
:103270000C949E268032910509F42AC30CF474C381
:103280008A32910509F426C48B34910511F00C940F
:103290009E260E94BE360C94EF268A36910509F4CC
:1032A00084C5B4F58435910509F4C8C5E4F48135C5
:1032B000910509F4AAC54CF48D34910511F00C94D4
:1032C0009E260E94F7360C94EF268235910509F46C
:1032D000B1C58335910511F00C949E2681E0809351
:1032E0006B020C94EF268C35910509F4F5C534F486
:1032F0008535910509F4D7C50C949E26883691052D
:1033000009F421C48936910509F4E7C40C949E267A
:103310008F36910509F455C484F48C36910509F46F
:10332000A3C40CF460C58D36910509F418C58E361A
:10333000910509F433C40C949E268237910509F453
:1033400053C654F48037910509F492C4813791052E
:1033500009F496C40C949E268337910509F40DC197
:103360008537910509F4D8C60C949E268D3231E03C
:10337000930711F40C948E240CF073C08B3C9105D0
:1033800011F40C94D6218CF58139910509F42DC7DF
:1033900084F48837910509F41DC70CF418C78937E0
:1033A000910509F41DC78C38910509F4DCC40C940F
:1033B0009E268E3B910509F4F4C434F48B399105B3
:1033C00009F4A6C40C949E26883C910509F485C78F
:1033D000893C910511F00C949E267FE6E72E71E062
:1033E000F72E0FEF1DE00C94BD218C3D910511F4DB
:1033F0000C940A23B4F48D3C910511F40C946622CC
:1034000014F40C94F1218E3C910511F40C94E522F6
:10341000833D910511F00C949E260E94269F0C94EA
:10342000EF268831A1E09A0711F40C94AF2364F4DD
:103430008D3D910511F40C941723823E910511F4F2
:103440000C9486230C949E268232E1E09E0711F4B0
:103450000C945A248C32914011F40C9465240C94F1
:103460009E268C3A31E0930711F40C940723ECF577
:103470008139A1E09A0711F40C94FE24BCF48F3238
:10348000E1E09E0711F40C94E52414F40C949124CB
:10349000833621E0920709F46CC08039914011F025
:1034A0000C949E260E94C3740C94EF268A3941E046
:1034B000940709F4E1C364F48239914011F00C944B
:1034C0009E2680E00E94682C0E943BA00C94EF2670
:1034D000843AE1E09E0711F40C940425853A91406A
:1034E00011F40C9407250C949E268C3032E093073F
:1034F00011F40C94C425ECF4853FA1E09A0711F473
:103500000C949A254CF4843F914011F00C949E2623
:103510000E949D950C94EF26863FF1E09F0711F4E1
:103520000C949D25883F914011F40C94A0250C9497
:103530009E268B3833E0930711F40C94EF266CF43D
:103540008335A3E09A0711F40C94CC25843893407A
:1035500011F40C9431260C949E26803AE3E09E07E9
:1035600009F4F5C1873E934011F40C9489260C941C
:103570009E26E4EAF2E10C94EB24EFEAF3E071C555
:10358000EFEFF1E082C0A090EB13B090EC1380E578
:103590000E945E2F882359F00E949E2E6B017C01B1
:1035A00011E0672B682B692B31F410E004C010E0A8
:1035B000C12CD12C760183E50E945E2F882311F463
:1035C0000C94C9280E94E22E20E030E04AE754E43F
:1035D0000E9477E90E94B5EE6B017C0111110BC0CE
:1035E000672B682B692B39F4A114B10421F0D501A4
:1035F0008C91811102C010E001C011E00E94C374DF
:10360000112329F061E0C5010E94CA8B05C060E06A
:1036100084ED91E00E948E8B83E08093990881E095
:103620008093DB09C114D104E104F104B1F00E94DC
:10363000EAD9C60ED71EE81EF91E0E94EAD9DC019F
:10364000CB018C199D09AE09BF09B7FF0DC0809150
:10365000DB0981110C94CE2807C08091DB098823F7
:1036600019F00E94334CF9CF0E94ABB61092DB09DF
:103670000C94EF2660E087EE91E00E948E8B5E98BE
:103680005E9815985E980C94EF2684918F010F5FD9
:103690001F4F882321F00E947B2FF801F6CF109254
:1036A0007E0881E396E00E9433A68BE1E1E3F6E039
:1036B000DE01159601900D928A95E1F780912F0613
:1036C000909130069C838B8389E891E09A8389836B
:1036D00040E050E0BE016F5F7F4F80E090E00E94CD
:1036E0003A45CE0101960E94A64BE0EFF1E08491AD
:1036F0008F010F5F1F4F882311F40C94EF260E9457
:103700007B2FF801F4CF0E94E3AD0C94EF261092CA
:10371000D9051092DA050C94EF26E091EB13F091A5
:10372000EC138081882329F0803209F410823196CD
:10373000F8CF40E061E08091EB139091EC130E9490
:10374000FF470C94EF268091DA05882319F081E079
:103750008093D9050E94BE360C94EF261092D905AD
:103760000E94E2360C94EF268091DA05882311F44A
:103770000C94EF2683E50E945E2F81110C94D228D1
:103780000C94EF2683E40E94152F882309F450C07F
:10379000EDE3F2E084918F010F5F1F4F882321F04A
:1037A0000E947B2FF801F6CF8091CC07811103C0D6
:1037B000E0E1F2E012C0BE016F5F7F4F89EC97E05D
:1037C0000E94FAA48E010F5F1F4FF80181918F01B3
:1037D000882349F10E947B2FF8CF84918F010F5FDE
:1037E0001F4F882301F10E947B2FF801F6CF85E956
:1037F000C82E82E0D82EE12CF12C20E08091AA097D
:1038000090E00E2C02C0959587950A94E2F780FD12
:1038100008C24FEFE41AF40A82E0C80ED11C95E00A
:10382000E916F10459F78AE00E947B2F0C94EF26E9
:103830008091DA05882339F08091D905882319F021
:10384000EAE1F2E003C0ECE2F2E028C084918F01EB
:103850000F5F1F4F882321F00E947B2FF801F6CFC6
:1038600060917A0870917B0880917C0890917D0826
:103870004AE00E942A328FE20E947B2F60917608F4
:103880007091770880917808909179084AE00E94B9
:103890002A328AE00E947B2F0C94EF2684918F01BC
:1038A0000F5F1F4F882311F40C94EF260E947B2F8B
:1038B000F801F4CF40E060E08091EB139091EC13BD
:1038C0000E94FF470C94EF260E94067F0C94EF267F
:1038D0008091D90581110E94C3748091DA058823F3
:1038E00011F40C94EF2680E50E945E2F882319F0D6
:1038F0000E94D22E03C080E50E94152F182F482F5A
:1039000061E08091EB139091EC130E94FF4783E5F7
:103910000E945E2F882381F00E94AE2EAB01BC0175
:1039200040937A0850937B0860937C0870937D08DD
:1039300089EC97E00E94EBA38091DA05882319F0C7
:1039400081E08093D90511110C94EF2603CF80916B
:10395000EB139091EC1321E02093D80540E060E058
:103960000E94FF470C94EF260E946F367B018C016A
:1039700020E831E541E050E00E9418EDC9016DE614
:1039800071E00E9487ED4B015C01C801B70120E1A5
:103990003EE040E050E00E9418EDCA01B90128E184
:1039A00030E040E050E00E9418ED762E672EC62EE3
:1039B000D72E9CE3292E312C412C512CC801B70164
:1039C000A20191010E9418EDF62EE72ECA01B9015D
:1039D000A20191010E9418EDCB018E010F5F1F4FD4
:1039E0008114910499F0EF92FF927F936F936F92FD
:1039F0007F92BF92AF929F928F9284E792E09F93C3
:103A00008F931F930F930E94A9E813C0A114B104D0
:103A1000B1F0EF92FF927F936F936F927F92BF927C
:103A2000AF9284E692E09F938F931F930F930E942F
:103A3000A9E80FB6F894DEBF0FBECDBF30C0CD28C9
:103A400079F0EF92FF927F936F936F927F9288E568
:103A500092E09F938F931F930F930E94A9E8E9CF61
:103A6000892B69F0EF92FF927F936F9380E592E04C
:103A70009F938F931F930F930E94A9E8DACFEF9241
:103A8000FF928CE492E09F938F931F930F930E9479
:103A9000A9E80F900F900F900F900F900F9060E09B
:103AA000C8010E94CA8BE3EDF2E184917F012FEF00
:103AB000E21AF20A882321F00E947B2FF701F5CF4A
:103AC000B80188E892E00E94F7D48AE00E947B2F38
:103AD0000C94EF2683E50E945E2F882311F40C944A
:103AE000EF260E94BE2EE82E80E50E945E2F8823DE
:103AF00011F40C94EF260E94BE2E182F87FF02C0EF
:103B00000C94EF2689E40E945E2F882341F00E94E6
:103B1000D22E81110C94AD29EFEEF4E00BC089E4B4
:103B20000E94152FF6CF319635E0EC31F30711F4F2
:103B30000C94AD2984911813F6CF0C9408290E9497
:103B4000E2360C94EF2688E690E00E9497328111CD
:103B50000C94EF268091AA0983FF02C00C94EF26F3
:103B600083E50E945E2F8823A9F00E94E22E0E9426
:103B7000AEEECB010E94298B0E94E22E20E030E0C5
:103B80004AEA52E40E9411E9181624F00E94F7361E
:103B90000E94ABB60E9412D50C94EF268EE40E94D0
:103BA0005E2F882311F40C94EF260E94AE2E6093B2
:103BB00014057093150580931605909317050C94C2
:103BC000EF2683E50E94152F882359F083E50E9494
:103BD0005E2F882319F00E94BE2E01C080E08093E2
:103BE000AA09E3EDF2E184918F010F5F1F4F81116C
:103BF00003C0E3EAF2E004C00E947B2FF801F3CF98
:103C000084918F010F5F1F4F882321F00E947B2F2B
:103C1000F801F6CF8091AA098111E9CDEFE9F2E030
:103C200018C0BB24B394B20E222319F08CE20E9478
:103C30007B2FF60185919491FC0184918F010F5F98
:103C40001F4F882321F00E947B2FF801F6CF2B2DE8
:103C5000E0CD84918F010F5F1F4F882309F4E3CDDE
:103C60000E947B2FF801F5CF109218010C94EF26DB
:103C70008AEA92E00E94C24B0E94F7990C94EF26C8
:103C800083E50E945E2F811103C0E3EDF2E10DC0D8
:103C90000E94BE2E8D3320F4809323010C94EF26D6
:103CA0008CE3809323010C94EF2684918F010F5FA6
:103CB0001F4F882321F00E947B2FF801F6CF4091FF
:103CC000230150E060E070E083EB92E00E94A4D416
:103CD0008AE00E947B2F0C94EF2689E690E00E94F8
:103CE0009732811111C0EAEBF2E084918F010F5FEE
:103CF0001F4F882321F00E947B2FF801F6CF0E94EE
:103D0000FD5F8AE00E947B2F109299080C94C229D3
:103D100083E50E945E2F882311F40C94EF260E9405
:103D2000BE2E182F8D3308F01CE31093A6080E94B6
:103D3000EAD96B017C01212F30E0A8EEB3E00E94AC
:103D40006CEDC60ED71EE81EF91EC092A208D092D6
:103D5000A308E092A408F092A5080C94EF260E9414
:103D6000AC760C94EF268091AA0983FF02C00C94D4
:103D7000EF2683E50E945E2F882311F40C94EF2632
:103D80000E94E22E0E94AEEE6E36710514F06EE6D1
:103D900070E07093B8136093B7130E942F630C9474
:103DA000EF260E94D3740C94EF2680E50E945E2FCC
:103DB000811106C083E50E945E2F882361F006C052
:103DC0000E94BE2E81110C94EF26F4CF0E94AE2EDD
:103DD0006F3F710510F06FEF70E07093BA1360934E
:103DE000B9130C94EF2680E50E945E2F811106C066
:103DF0001092BA131092B9130C94EF260E94AE2EB3
:103E0000672B11F00C94EF26F3CF0E947B630E9486
:103E10008FC51092BA131092B91368EE73E080E068
:103E200090E00E948E8A60E08DEB92E00E948E8B83
:103E30000C94EF2610926B020C94EF2683E50E94FF
:103E40005E2F8823A1F00E94E22E20E030E04AE7B6
:103E500054E40E9477E90E94B5EE609324017093C8
:103E6000250180932601909327010C94EF2688E585
:103E70000E94152F81110C94E32889E50E94152FCB
:103E800081110C94E3288AE50E94152F81110C946E
:103E9000E32885E40E94152F81110C94E3280E94E9
:103EA0008FC50C94EF2683E50E94152F882309F413
:103EB00096C70E94E22E20E030E04AE754E40E94D8
:103EC00077E90E94B5EE60939E0870939F088093F7
:103ED000A0089093A10883C71FE6C12E11E0D12E40
:103EE0000FE0E02E0EE0F02E10E0D6018D916D0176
:103EF0000E94152F882309F46DC0133009F063C0A8
:103F00000E94E22E4B015C0120E030E040EA51E4E7
:103F10000E9411E987FF4EC0A501940160911B0E1C
:103F200070911C0E80911D0E90911E0E0E943CEE11
:103F30002B013C019B01AC0160917D0970917E09D0
:103F400080917F09909180090E9477E960937D09B3
:103F500070937E0980937F0990938009A301920159
:103F60006091990970919A0980919B0990919C099F
:103F70000E9477E96093990970939A0980939B094D
:103F800090939C096091FB0D7091FC0D8091FD0D4B
:103F90009091FE0D0E9416E9A30192010E9477E91B
:103FA0000E94B5EE6093FB0D7093FC0D8093FD0DA8
:103FB0009093FE0D80921B0E90921C0EA0921D0EEF
:103FC000B0921E0E07C00E94E22EF701608371833B
:103FD000828393831F5FF4E0EF0EF11C143009F02D
:103FE00084CF0E94B3D6FBC60E94C37483E50E94AF
:103FF0005E2F882309F4E9C80E94AE2E6230710555
:1040000009F0E3C80E945F538BE50E947B2F60910B
:104010008D0870918E0880918F089091900842E0F1
:104020000E94F53240919108509192086091930856
:10403000709194088DEC92E00E94C1D44091950853
:104040005091960860919708709198088AEC92E0D8
:104050000E94C1D48DE50E947B2F8AE00E947B2FB5
:10406000BEC684918F010F5F1F4F882321F00E94ED
:104070007B2FF801F6CF60E08FE993E00E9404A067
:1040800061E088E993E00E9404A061E08DE893E09C
:104090000E9404A061E08DE793E00E9404A060E02C
:1040A00084E793E00E9404A061E08AE693E00E9426
:1040B00004A061E080E693E00E9404A061E088E54E
:1040C00093E00E9404A061E08AE493E00E9404A0CF
:1040D00060E08CE393E00E9404A060E08DE293E056
:1040E0000E9404A060E08FE193E00E9404A060E0E1
:1040F00089E093E00E9404A060E088EF92E00E94D3
:1041000004A060E083EE92E00E9404A061E080EDF4
:1041100092E00E9404A063C68091EB139091EC138F
:10412000DC012C91222321F060E00E94CA8B57C64B
:104130000E94ABB654C60091EB131091EC1383E0D0
:10414000D12C40E08150E1F0F8019081292F2B7FA4
:104150002134C1F721812133A9F7913421F095341D
:1041600021F441E002C0DD24D39498012E5F3F4F3B
:1041700089012F5F3F4FD8019C919032C9F3E2CF64
:10418000442369F0E3EDF2E184917F01BFEFEB1A84
:10419000FB0A882321F00E947B2FF701F5CFDD2059
:1041A00069F0E9E7F4E084917F012FEFE21AF20A67
:1041B000882321F00E947B2FF701F5CFD8018D9144
:1041C0008D01882309F42FCB0E947B2FF7CF0E940B
:1041D000D1C805C681E080937B0380937A03FFC535
:1041E00010927B0310927A03FAC583E50E945E2F3A
:1041F000882319F00E94AE2E02C060E070E08B01AF
:10420000112702301105D4F0E4EAF2E184918F0124
:104210000F5F1F4F811103C0EDE7F4E004C00E945F
:104220007B2FF801F3CF84918F010F5F1F4F8823FD
:1042300009F4D5C50E947B2FF801F5CF88E40E94D0
:104240005E2F8823A9F00E94AE2E6A3A71053CF0D9
:104250006530B1E07B072CF064E071E002C06AEAEF
:1042600070E0F801EE0FFF1FE254F24F718360839C
:1042700086E40E945E2F8823A9F00E94AE2EF801EA
:10428000EE0FFF1FEA53F24F718360836F3F71059A
:1042900019F014F06FEF70E077FF02C060E070E09B
:1042A0007183608382E40E945E2F882309F497C59E
:1042B0000E94AE2E6530710534F06F3671052CF01A
:1042C0006EE670E002C065E070E0000F111FF801BB
:1042D000EE53F24F7183608382C588EC90E00E94B8
:1042E000973281117CC584E40E94152F882309F43C
:1042F00041C00E94E22E6B017C0111E020E030E021
:10430000A9010E9411E9811101C010E01093E00D94
:1043100020E030E0A901C701B6010E9411E988231D
:1043200049F10E94E22EE091540924E0E29FF0015D
:104330001124E452F24F608371838283938320E0DF
:1043400030E0A9016091DC0D7091DD0D8091DE0DF2
:104350009091DF0D0E9411E981110CC080E090E086
:10436000A0EEBFE38093DC0D9093DD0DA093DE0DF6
:10437000B093DF0D0E9450C432C5D7018D917D01ED
:104380000E94152F882349F00E94E22E0E94B5EE6C
:10439000F80160837183828393830C5F1F4FFEE07B
:1043A0000F301F0751F70E9442D519C56FE6E62E60
:1043B00061E0F62E0DE819E0D7018D917D010E9494
:1043C000152F882339F00E94E22EF8016083718353
:1043D000828393830C5F1F4FF9E00D391F0761F74C
:1043E000FEC483E50E945E2F8823A1F00E94E22E86
:1043F0006093850970938609809387099093880953
:104400006093810970938209809383099093840952
:1044100010E001C011E080E50E945E2F882359F072
:104420000E94E22E60938509709386098093870924
:104430009093880910E082E50E945E2F882359F04E
:104440000E94E22E6093890970938A0980938B09F8
:1044500090938C0910E084E50E945E2F882359F028
:104460000E94E22E609381097093820980938309F0
:1044700090938409B4C4112309F4B1C4409185090F
:1044800050918609609187097091880985EA94E0C6
:104490000E94C1D44091890950918A0960918B0989
:1044A00070918C0982EA94E00E94C1D44091810904
:1044B0005091820960918309709184098FE994E099
:1044C0000E94C1D48AE00E947B2F89C481E50E94AA
:1044D000152F882351F00E949E2E60939D097093A2
:1044E0009E0980939F099093A00983E50E94152F50
:1044F000882351F00E94E22E6093A5097093A609CB
:104500008093A7099093A80984E50E94152F88231A
:1045100051F00E94E22E6093A1097093A20980934A
:10452000A3099093A40988E50E94152F882351F0D0
:104530000E94E22E6093710970937209809373094F
:104540009093740989E50E94152F882351F00E94E9
:10455000E22E6093750970937609809377099093A2
:1045600078098AE50E94152F8823F1F00E94E22E37
:104570006093790970937A0980937B0990937C0901
:104580002DEC3CEC4CEC5DE30E9411E9181664F054
:10459000E5EBF4E084918F010F5F1F4F882321F03A
:1045A0000E947B2FF801F6CF85E40E94152F882307
:1045B00009F415C40E94E22E60937D0970937E0970
:1045C00080937F09909380090AC44FE6C42E41E08E
:1045D000D42E5DE7E52E53E0F52E10E0D6018D9147
:1045E0006D010E94152F882351F00E94E22EF701E1
:1045F0006083718382839383812F0E94072D1F5FC5
:10460000F4E0EF0EF11C133049F70C94E5180E940A
:1046100005A1E5C383E50E945E2F882309F4DFC36B
:104620000E94AE2E70935A0160935901D8C38DED4C
:1046300090E00E9497328111D2C383E50E945E2FE1
:10464000811103C0E3EDF2E13BC00091540910E099
:104650000E94AE2E000F111FF801E95AFE4F718320
:1046600060838091540990E08C01000F111F000FAE
:10467000111F98012D5A3E4F7901880F991FFC0197
:10468000E95AFE4F60817181072E000C880B990B4F
:104690000E9418E92AE037ED43E25CE30E9477E9E3
:1046A000F801E654F24F20813181428153810E940A
:1046B00077E9D7016D937D938D939C9313978FC367
:1046C00084918F010F5F1F4F882321F00E947B2F61
:1046D000F801F6CF85E40E947B2F80915409805D1C
:1046E0000E947B2FE0915409F0E0EE0FFF1FE95A82
:1046F000FE4F6081718187EE94E00E94DED485E2F6
:104700000E947B2F8AE00E947B2F69C380E50E9474
:10471000152F882309F463C30E94AE2E6B017C0120
:1047200083E50E945E2F882321F00E94AE2E8B012C
:1047300002C00FEF1FEFC8010196039708F04FC3A7
:10474000D7FC4DC38C2DEFEEF4E09491891709F45A
:104750005FC53196B5E0EC31FB07B9F75CC580E584
:104760000E94152F882309F43AC30E94AE2E6B01D4
:104770007C018B01672B19F0E4EAF2E17FC083E54D
:104780000E94152F811103C0E3EDF2E107C00E94E2
:10479000AE2E86EB95E00E9431D321C384917F0138
:1047A0002FEFE21AF20A882321F00E947B2FF701F3
:1047B000F5CF60E070E085E395E00E94DED4809163
:1047C000B80528E532E06901C81AD10887FDD394FD
:1047D000CC0CDD1CCC0CDD1C0D2C000CEE08FF08F5
:1047E0008091B70528E830E04901881A910887FDD3
:1047F0009394880C991C880C991C092C000CAA080D
:10480000BB088091B6058F3FB9F090E0FC01EE0F38
:10481000FF1F8E0F9F1FFC01EF56FA4F018112817F
:1048200073E0000F111F7A95E1F7E4E01695079504
:10483000EA95E1F70E5F1F4F98012F5F3F4FC901C7
:10484000330FAA0BBB0B9C01AD01281939094A098A
:104850005B09A4EBB0E00E9459EDA701960128196D
:1048600039094A095B090E943AEDB90182E395E0F2
:104870000E94DED48AE00E947B2FB1C284918F0116
:104880000F5F1F4F882321F00E947B2FF801F6CF86
:10489000B6018BE295E00E94DED4ECE1F5E0849174
:1048A0008F010F5F1F4F882309F499C20E947B2F4D
:1048B000F801F5CF8AE50E945E2F8111D4C483E50B
:1048C0000E945E2F8111CFC48AC283E50E945E2FB1
:1048D000882319F00E94AE2E02C064E071E079A333
:1048E00068A380E50E945E2F882339F00E94AE2ED7
:1048F000693833E1730730F402C068EE73E07A83FD
:10490000698304C088E893E19A838983BE01605E6D
:104910007F4FCE0101960E94064561C20E94839E90
:104920005EC283E50E94152F182F882371F00E9424
:10493000E22E0E94AEEE70932C0160932B0121E0D9
:10494000672B09F020E02093A90980E50E94152F2C
:10495000882359F020912B0130912C01232B11F049
:104960000E94D22E8093A9093AC2111138C2E3EDF8
:10497000F2E184918F010F5F1F4F882321F00E9485
:104980007B2FF801F6CF8091A909882319F069E3FC
:1049900072E002C06CE372E083E695E00E94F7D417
:1049A00060912B0170912C0182E595E00E94DED48C
:1049B000EEE4F5E084918F010F5F1F4F882309F427
:1049C0000EC20E947B2FF801F5CF0E94349A07C2D5
:1049D0000E947B2FF80184918F010F5F1F4F81117F
:1049E000F7CFE6E7F5E084918F010F5F1F4F882333
:1049F00009F4F5C10E947B2FF801F5CF81E00E94F8
:104A0000682C0E943BA0EBC10E940BA2E8C189E484
:104A10000E945E2F882321F00E94AE2E162F01C027
:104A20001FEF8AE40E945E2F882321F00E94AE2EA1
:104A3000062F01C00FEF8AE50E94152FF82E811175
:104A400005C081E50E94152FD82E01C0D12C17FD7D
:104A500006C007FD04C0F1101CC0D1101AC0E4EA62
:104A6000F2E184918F010F5F1F4F811103C0E4EACF
:104A7000F5E004C00E947B2FF801F3CF84918F01F1
:104A80000F5F1F4F882309F4AAC10E947B2FF801F2
:104A9000F5CF133010F40330D0F0E4EAF2E1849162
:104AA0008F010F5F1F4F811103C0E5E8F5E004C0DF
:104AB0000E947B2FF801F3CF84918F010F5F1F4F6E
:104AC000882309F48CC10E947B2FF801F5CFE12ED9
:104AD000110FFF08002E000C110B0E94E22ED701CF
:104AE000AA0FBB1FDD2081F0FD01EE0DFF1DE00FC1
:104AF000F11FEE0FFF1FEE0FFF1FEF50F64F20814B
:104B000031814281538103C020E030E0A901EA0EE7
:104B1000FB1E0E0D1F1D000F111F000F111F0F5048
:104B2000164F0E94B9EDD8016D937D938D939C93A0
:104B3000139755C10E9451CA52C10E9428C94FC142
:104B400081E08093E50D0E94F98F1092E50D882396
:104B500009F445C1E3EDF2E184918F010F5F1F4F2E
:104B6000811103C0E4ECF5E004C00E947B2FF80142
:104B7000F3CF84918F010F5F1F4F882309F42FC15A
:104B80000E947B2FF801F5CF8091D905882309F485
:104B900026C12093DC0523C18AE50E945E2F811186
:104BA00003C0E3EDF2E13BC00E94E22E6B017C0109
:104BB00020E030E040EA51EC0E943CEF87FD0AC063
:104BC00020E030E040EA51E4C701B6010E9411E95B
:104BD00018161CF4E4EAF2E10CC0C092310AD0923B
:104BE000320AE092330AF092340AF9C00E947B2F15
:104BF000F80184918F010F5F1F4F8111F7CFEFEC08
:104C0000F5E084918F010F5F1F4F882309F4E7C0FF
:104C10000E947B2FF801F5CF0E947B2FF801849131
:104C20008F010F5F1F4F8111F7CFEFEEF5E08491F9
:104C30008F010F5F1F4F882321F00E947B2FF80107
:104C4000F6CF4091310A5091320A6091330A709147
:104C5000340A8CEE95E00E94C1D48AE00E947B2F3A
:104C6000BEC08BE40E945E2F811103C0E3EDF2E130
:104C700036C08BE40E945E2F8823C1F00E94E22E92
:104C80006B017C0120E030E0A9010E943CEF87FD30
:104C90000AC020E030E040E251E4C701B6010E94C2
:104CA00011E9181634F4EEEFF5E00EC0C12CD12C4A
:104CB00076010E94C374C092E10DD092E20DE092A1
:104CC000E30DF092E40D8BC084918F010F5F1F4FB5
:104CD000882309F484C00E947B2FF801F5CF8491CA
:104CE0008F010F5F1F4F882321F00E947B2FF80157
:104CF000F6CF4091E10D5091E20D6091E30D70917E
:104D0000E40D8DE196E00E94C1D48AE00E947B2FE1
:104D100066C081E0809311011092A20C83E50E948D
:104D20005E2F882339F00E94D22E811158C00E9434
:104D30005DDA55C083E50E94152FF7CF0E94C4B1FC
:104D40004EC0F090ED130E94C37410914D0A80E0A4
:104D50000E94022EFF2029F1E3EDF2E184918F0100
:104D60000F5F1F4F882321F00E947B2FF801F6CFA1
:104D700084E50E947B2F6F2D70E080E090E04AE098
:104D80000E942A3280E20E947B2FEAE3F6E08491BF
:104D90008F010F5F1F4F882311F10E947B2FF801B5
:104DA000F6CF1092C809812F0E94022EE3EDF2E1A6
:104DB00084918F010F5F1F4F882321F00E947B2F6A
:104DC000F801F6CF6091C80970E088E296E00E9491
:104DD000DED48AE00E947B2F02C00E94C4B11092F0
:104DE00099080E9440DACEC20E94C37480E00E94FB
:104DF000022E84EF91E0A0E0B0E089839A83AB8338
:104E0000BC83BE016F5F7F4F80EA0E94C92A0E9467
:104E1000E82A0E94372B11E010937B0388E50E945B
:104E2000152F282E89E50E94152F382E8AE50E941D
:104E3000152FA82E211005C0311005C0BA2CB1269F
:104E400005C0311002C0B12C01C0BA2C0E94712FD4
:104E500082E50E945E2F882361F00E94E22E6B01A2
:104E60007C0120E030E0A9010E9411E9882379F15A
:104E700006C0C12CD12C50EAE52E50E4F52EB1101D
:104E800005C0211003C0332009F411C1C092BB0832
:104E9000D092BC08E092BD08F092BE08A70196012E
:104EA00060913D0A70913E0A80913F0A9091400ABC
:104EB0000E9411E987FF0BC019821A821B821C8293
:104EC000BE016F5F7F4F8BEB98E00E94492CB110C1
:104ED0000DC0211003C03110E5C0E9C0311006C07B
:104EE00080E00E94B849BB20B1F3DCC01092390ABF
:104EF00010923A0A10923B0A10923C0A1092350A1C
:104F00001092360A1092370A1092380A0E94BB2D6E
:104F1000E9E3F4E1849188ABEDE2F4E1C590D5904A
:104F2000E590F490E1E3F4E145905590659074903C
:104F3000A7019601C301B2010E9411E987FF05C0D4
:104F4000A7019601C301B20104C0A3019201C701E8
:104F5000B6010E943CEE6CA77DA78EA79FA7E0EF4D
:104F6000F3E185919591A591B4918CA39DA3AEA3F6
:104F7000BFA3ECEEF3E185919591A591B49188A73B
:104F800099A7AAA7BBA79C01AD016CA17DA18EA189
:104F90009FA10E943CEF18162CF498A409A51AA50D
:104FA0008BA404C09CA00DA11EA18FA02CA53DA583
:104FB0004EA55FA5CA01B9010E9477E920E030E063
:104FC00040E85FE30E94B9ED0E947AEF292D302F6F
:104FD000412F582D0E9477E969837A838B839C83C4
:104FE000EAE3F4E1149180913D0A90913E0AA09188
:104FF0003F0AB091400A8CA39DA3AEA3BFA320E0BB
:1050000030E040EC5FE3C301B2010E9477E92B017D
:105010003C01612F110F770B880B990B0E9418E947
:105020009B01AC01C301B2010E9477E92B013C0155
:1050300020E030E040EC5FE3C701B6010E9477E971
:105040006B017C01A8A96A2FAA0F770B880B990B1B
:105050000E9418E99B01AC01C701B6010E9477E9E3
:10506000FE0131966F01ECA0FDA00EA11FA1A301CE
:1050700092010E94562B0E941DC91092390A10926B
:105080003A0A10923B0A10923C0A1092350A10928A
:10509000360A1092370A1092380AB11021CF211027
:1050A0001FCF19CF81E00E94B849B11003C0AA20D8
:1050B00009F461C08091240A83708330F9F060E0C4
:1050C00085E991E00E948E8BE3EDF2E184918F01FE
:1050D0000F5F1F4F811103C0E6E8F1E004C00E949A
:1050E0007B2FF801F3CF84918F010F5F1F4F88232F
:1050F00009F441C00E947B2FF801F5CF0E94BB2D1F
:10510000E0903D0AF0903E0A00913F0A1091400A5B
:10511000E092BB08F092BC080093BD081093BE0853
:1051200080E090E0A5E2B3E48093B3089093B408E4
:10513000A093B508B093B60880E090E0AEEFB2E47B
:105140008093B7089093B808A093B908B093BA08B1
:1051500019821A821B821C829E012F5F3F4F6901B8
:105160009C01AD0160E070E085E293E40E94562B63
:1051700082E00E94B8490E94BB2D80917A038093FF
:105180007B030E941E2B83E0809352010E943BA070
:1051900026CE11110C94FB1A0C94F41A0E94334C75
:1051A0000C941D1B0E94AE2EAB01BC0140937A08EB
:1051B00050937B0860937C0870937D0889EC97E09E
:1051C0000E94EBA30CCE0E94C37488E50E94152FA9
:1051D000882331F05E9A8091240A8E7F8093240A7E
:1051E00089E50E94152F882331F05E9A8091240A68
:1051F0008D7F8093240A8AE50E94152F882309F465
:10520000EECD159A8091240A8B7F8093240AE7CDF6
:105210000E9457E3E4CD0E94C374BC2C60E08C2D47
:105220000E9402D90F3FBFEF1B0759F48C2D0E943B
:10523000AAD831E020E0892B09F030E0032F122FAB
:1052400005C00130110561F401E010E08B2D0E94D2
:10525000AAD88017910709F4C2CD0E94334CF6CF2B
:1052600000E010E0F3CF0E94E22E20E030E040E0CA
:1052700050EC0E9411E987FD15C00E94E22E20E04B
:1052800030E040E050E40E943CEF18162CF00E9401
:10529000E22E6B017C010BC0C12CD12CE12C50E41F
:1052A000F52E05C0C12CD12CE12C40ECF42E8091C0
:1052B000240A82FF18C00091A80D1091A90D209119
:1052C000170E3091180E4091190E50911A0EC70109
:1052D000B6010E9477E90E94AEEE600F711F7093D5
:1052E000A90D6093A80D80E50E94152F882329F051
:1052F0000E94D22E882309F472CDA70196016091F5
:10530000310A7091320A8091330A9091340A0E94D6
:10531000B9ED6093310A7093320A8093330A909307
:10532000340AE3EDF2E184918F010F5F1F4F882370
:1053300021F00E947B2FF801F6CF4091310A509165
:10534000320A6091330A7091340A8DE395E00E942D
:10535000C1D48AE00E947B2F42CD61E0812F0E9460
:1053600002D96E2D812F0E94D3D8F12CB701812F45
:105370000E943ED9143009F032CDF092BA13E09277
:10538000B9132DCDE0960FB6F894DEBF0FBECDBF9A
:10539000DF91CF911F910F91FF90EF90DF90CF9011
:1053A000BF90AF909F908F907F906F905F904F9045
:1053B0003F902F90089590918D03E92FF0E0E757EB
:1053C000FC4F80839F5F943018F490938D0302C04C
:1053D00010928D03809110058F5F809310050895C2
:1053E000089580E090E00895809170149091711478
:1053F000981759F0E92FF0E0E051FC4E80819F5F53
:105400009F779093711490E008958FEF9FEF089528
:10541000CF92DF92EF920F931F93CF93DF93CDB78D
:10542000DEB760970FB6F894DEBF0FBECDBFE09039
:10543000C809E5E3FAE080859185A285B3854481BA
:1054400055816681778100811181228133810983B1
:105450001A832B833C834D835E836F837887898790
:105460009A87AB87BC871D861E861F86188AAE0169
:10547000475F5F4FBE016B5F7F4FCE0101960E9479
:1054800004C6CE010D966C010EE411E021E43AE071
:10549000AE01475F5F4FBE016B5F7F4F0C970E946D
:1054A000996460960FB6F894DEBF0FBECDBFDF9152
:1054B000CF911F910F91EF90DF90CF900895CF93F0
:1054C000FC0120812B33A9F020911005243088F4B1
:1054D000C62FBC0180918D03F0E68F9FC00111247F
:1054E00081579C4F0E9422F08C2F0E94DB2981E083
:1054F00001C080E0CF9108950F931F93CF93DF9366
:10550000EC010E94EAD90E811F8128853985011599
:1055100011052105310559F52C852223A9F13A857C
:1055200021502C8721E0230F2A874D85241301C0A9
:105530001A86FE0124E0329FE00DF11D112406853C
:105540001785208931890A831B832C833D83DC01E5
:10555000CB01800F911FA11DB11D8E839F83A88752
:10556000B9878C819D81892B79F0149A0DC0DC015B
:10557000CB01801B910BA20BB30BB7FD05C0149898
:105580001E821F8218861986DF91CF911F910F917D
:105590000895CF93DF93EB01682F70E086EB95E0E1
:1055A0000E9431D3688179818A819B81673721E0AC
:1055B00072078105910520F467E771E080E090E0D3
:1055C0000E948E8A86B182958170DF91CF91089575
:1055D000CF93DF9300D000D0CDB7DEB78EEE92E050
:1055E000A0E0B0E089839A83AB83BC83BE016F5F88
:1055F0007F4F8AE50E94C92A0F900F900F900F905D
:10560000DF91CF910895CF93DF9300D000D0CDB735
:10561000DEB78EEE92E0A0E0B0E089839A83AB83A0
:10562000BC83BE016F5F7F4F8AE00E94C92A0F9042
:105630000F900F900F90DF91CF9108958091D80235
:105640009091D902A091DA02B091DB0280934E01D1
:1056500090934F01A0935001B09351018091D602D5
:105660009091D70290935A018093590108958091A7
:105670004E0190914F01A0915001B0915101809342
:10568000D8029093D902A093DA02B093DB02809102
:10569000590190915A019093D7028093D60284E6E3
:1056A00090E090935A018093590108952F923F9270
:1056B0004F925F926F927F928F929F92AF92BF9222
:1056C000CF92DF92EF92FF920F931F93CF93DF93CE
:1056D000CDB7DEB72A970FB6F894DEBF0FBECDBFA9
:1056E0002B013C012D833E834F835887470158018E
:1056F000DA86C98680914E0190914F01A0915001A8
:10570000B091510189839A83AB83BC83D6011C91EC
:1057100011960C91119712963C90129713962C901B
:1057200020E030E0A901612F702F832D922D0E947F
:1057300011E981110AC0E4EFF3E185919591A591FA
:10574000B491182F092F3A2E2B2EA50194016091A8
:105750003D0A70913E0A80913F0A9091400A0E9452
:1057600011E987FF16C0812F902FA32DB22D8093B2
:105770004E0190934F01A0935001B093510180923C
:105780003D0A90923E0AA0923F0AB092400A0E94BF
:10579000082AE985FA85C080D180E280F38020E084
:1057A00030E0A901C701B6010E9411E9811108C0CA
:1057B000C0904A01D0904B01E0904C01F0904D0117
:1057C000C0924E01D0924F01E0925001F0925101EF
:1057D0004092350A5092360A6092370A7092380A1F
:1057E0008D819E81AF81B8858093390A90933A0A62
:1057F000A0933B0AB0933C0A0E94082A20913D0ADC
:1058000030913E0A40913F0A5091400AC501B401CF
:105810000E9411E987FF16C0812F902FA32DB22D72
:1058200080934E0190934F01A0935001B09351018A
:1058300080923D0A90923E0AA0923F0AB092400A9E
:105840000E94082A0E94C37489819A81AB81BC811D
:1058500080934E0190934F01A0935001B09351015A
:105860002A960FB6F894DEBF0FBECDBFDF91CF9161
:105870001F910F91FF90EF90DF90CF90BF90AF906E
:105880009F908F907F906F905F904F903F902F9060
:105890000895CF92DF92EF92FF920F931F936B01C7
:1058A000FC01E080F18002811381E5E3FAE02481CC
:1058B00035814681578160817181828193810E9407
:1058C000562B1F910F91FF90EF90DF90CF9008958E
:1058D000BF92CF92DF92EF92FF920F931F93CF93DD
:1058E000DF93CDB7DEB728970FB6F894DEBF0FBEB3
:1058F000CDBF90917C03981709F478C0B82E80E052
:1059000090E0A0E2B1E48D839E83AF83B887C0901E
:10591000310AD090320AE090330AF090340A20E045
:1059200030E0A901C701B6010E9411E987FF0CC050
:10593000A701960160E070E080E291E40E94B8ED7A
:105940006D837E838F83988720E030E04AE753E4BD
:105950006D817E818F8198850E943CEF181644F4FA
:1059600080E090E0AAE7B3E48D839E83AF83B8879D
:105970002D813E814F81588560913D0A70913E0A8C
:1059800080913F0A9091400A0E9411E987FF0BC065
:1059900019821A821B821C82BE016F5F7F4FCE016B
:1059A00005960E94492C6091350A7091360A8091C3
:1059B000370A9091380A2091390A30913A0A409179
:1059C0003B0A50913C0A19821A821B821C82E09089
:1059D0003D0AF0903E0A00913F0A1091400AFE01F4
:1059E00031966F010E94562BB0927C0380E028967E
:1059F0000FB6F894DEBF0FBECDBFDF91CF911F91E0
:105A00000F91FF90EF90DF90CF90BF9008950F938C
:105A10001F93CF93DF9394E0899FE00111248E01BF
:105A20000B5D154FFE01E358FC4FDE01A955B74F42
:105A30002D913D914D915C91608171818281938125
:105A40000E94B9EDF8016083718382839383FE0124
:105A5000E554F84F85919591A591B491FE01E653D7
:105A6000F24F80839183A283B383FE01E953F84F01
:105A700085919591A591B491C55ADE4F88839983FC
:105A8000AA83BB83DF91CF911F910F910895CF938C
:105A9000DF93EC0160E0CE010E945F2A811103C018
:105AA0000E94334CF7CFCE010E94044B8823C1F3F0
:105AB000DF91CF910895DF92EF92FF920F931F93A2
:105AC000CF93DF93CDB7DEB76E970FB6F894DEBFF6
:105AD0000FBECDBF60911F0A7091200A611571053C
