:100000000C94FE170C9428180C9428180C9428189B
:100010000C9428180C9428180C9428180C94281860
:100020000C9428180C943BBA0C9428180C9428189B
:100030000C9428180C94E4410C9428180C9428185B
:100040000C9428180C944F600C9481930C942818ED
:100050000C9472390C9428180C9428180C942818B5
:100060000C9428180C9428180C9428180C94281810
:100070000C9428180C9428180C9428180C94281800
:100080000C9428180C9428180C94281872927592C5
:1000900068926C928C928C9279927D9283928792E4
:1000A000F092F592FA920493329332930E93169350
:1000B0001E93289359D520D457D495D557D457D4C7
:1000C00057D457D457D457D457D457D457D457D4D8
:1000D00057D457D457D457D457D457D457D457D4C8
:1000E00057D457D457D457D457D457D457D457D4B8
:1000F0008FD557D457D457D457D457D457D457D46F
:1001000057D468D557D457D457D457D457D457D485
:1001100057D457D457D457D4ACD554D4084AD73B26
:100120003BCE016E84BCBFFDC12F3D6C74319ABDC6
:1001300056833DDA3D00C77F11BED9E4BB4C3E91EA
:100140006BAAAABE000000803F05A84CCDB2D44ED9
:10015000B93836A9020C50B9918688083CA6AAAADB
:100160002ABE000000803F004E414E494E4954597E
:10017000494E46CDCCCC3D0AD7233C17B7D1387772
:10018000CC2B329595E6241FB14F0A000020410088
:1001900000C84200401C4620BCBE4CCA1B0E5AAED2
:1001A000C59D74434F4D4D554E49434154494F4EA3
:1001B0000044525952554E004552524F5253004935
:1001C0004E464F004543484F0047322F4733206289
:1001D000616420706172616D65746572730A0053A9
:1001E0006C6565702E2E2E00436C69636B20746FF6
:1001F00020726573756D652E2E2E004E6F206D6F0B
:1002000076652E00456E642066696C65206C6973A6
:10021000740A00426567696E2066696C65206C69C6
:1002200073740A00286E6F2066696C652900534458
:10023000207072696E74696E67206279746520003F
:100240004E6F74205344207072696E74696E670A31
:100250000043757272656E742066696C653A2000A1
:1002600046696C652064656C657465643A00446534
:100270006C6574696F6E206661696C65642C2046DC
:10028000696C653A20002569730025696D20256930
:1002900073002569682025696D202569730025692B
:1002A00064202569682025696D202569730025690A
:1002B0007920256964202569682025696D202569D4
:1002C00073005072696E742074696D653A2000C4C1
:1002D00001BF01B801B101A3016F66660044454248
:1002E00055473A004B494C4C45442E20004D313186
:1002F000332053006F6B00456E6465722D33204FC1
:1003000066662E002C20002C2000544845524D419A
:100310004C5F50524F54454354494F4E0041555441
:100320004F5245504F52545F53445F5354415455BC
:100330005300454D455247454E43595F5041525336
:10034000455200434153455F4C494748545F425230
:10035000494748544E45535300544F47474C455F17
:100360004C494748545300534F4654574152455FF8
:10037000504F574552004255494C445F50455243F7
:10038000454E54004C4556454C494E475F444154F8
:1003900041005A5F50524F4245004155544F4C4521
:1003A00056454C005052494E545F4A4F42005052FD
:1003B0004F4752455353004155544F5245504F52A9
:1003C000545F54454D5000564F4C554D455452497D
:1003D0004300454550524F4D0053455249414C5FF3
:1003E000584F4E5F584F4646004649524D5741526E
:1003F000455F4E414D453A4D61726C696E206275A4
:10040000676669782D312E312E7820284769746807
:1004100075622920534F555243455F434F44455F12
:1004200055524C3A68747470733A2F2F6769746828
:1004300075622E636F6D2F4D61726C696E466972C5
:100440006D776172652F4D61726C696E2050524FED
:10045000544F434F4C5F56455253494F4E3A312EFD
:1004600030204D414348494E455F545950453A4527
:100470006E6465722D332045585452554445525F81
:10048000434F554E543A3120555549443A636564BB
:1004900065326132662D343161322D343734382D76
:1004A000396231322D63353563363266333637661D
:1004B000660A002F2F20004D31343520533C696EE1
:1004C0006465783E206F7574206F662072616E6778
:1004D000652028302D31290A002054002052004187
:1004E0006363656C65726174696F6E3A20500020B9
:1004F0005A00205900580020204D61783A200020F1
:100500005A00205900580020204D696E3A20004FB3
:100510006E20004F666600536F667420656E6473CC
:10052000746F70733A200020466C6F773A20000099
:10053000010F150E12FFFFFFFF16170E13FFFFFF2F
:10054000FF03021A14FFFFFFFFFFFFFF0C04FFFF72
:10055000FF01000EFFFFFF0C190DFF1820643A0089
:1005600020693A0020703A00496E76616C69642017
:1005700065787472756465720A0043290A006162C5
:100580006C656420286D696E2074656D7020004371
:100590006F6C642065787472756465732061726530
:1005A00020004E6F2063617365206C696768740A70
:1005B00000454550524F4D204F4B0A003F4B20768F
:1005C000616C7565206F7574206F662072616E674F
:1005D000652028302D3130292E0A00416476616E65
:1005E0006365204B3D0041637469766520457874EE
:1005F00072756465723A2000496E76616C69642098
:1006000065787472756465720A004B494C4C4544B8
:100610002E200053544F505045442E2000507269F4
:100620006E7465722073746F707065642064756594
:1006300020746F206572726F72732E204669782065
:10064000746865206572726F7220616E64207573C4
:1006500065204D39393920746F2072657374617269
:10066000742E202854656D706572617475726520F2
:1006700069732072657365742E20536574206974E4
:100680002061667465722072657374617274696E3C
:1006900067290A004E6F20436865636B73756D2090
:1006A00077697468206C696E65206E756D6265721D
:1006B0002C204C617374204C696E653A20004E6F9B
:1006C00020436865636B73756D2077697468206C6F
:1006D000696E65206E756D6265722C204C61737455
:1006E000204C696E653A2000636865636B73756DB5
:1006F000206D69736D617463682C204C6173742084
:100700004C696E653A20004C696E65204E756D62CD
:100710006572206973206E6F74204C617374204C75
:10072000696E65204E756D6265722B312C204C61AF
:100730007374204C696E653A20004D313130004DA4
:1007400033310053442072656164206572726F72A8
:100750000A00446F6E65207072696E74696E67205E
:1007600066696C650A0020496E76616C6964206573
:10077000787472756465722000000000000000004B
:10078000000000000000006B4300006B4300007A93
:100790004357726974696E6720746F2066696C656F
:1007A0003A20006F70656E206661696C65642C206C
:1007B00046696C653A20006F70656E206661696CF1
:1007C00065642C2046696C653A200046696C65209A
:1007D00073656C65637465640A002053697A653AD1
:1007E000200046696C65206F70656E65643A200074
:1007F0002066696C653A2000646F696E67006672F6
:10080000657368004E6F772000454E442053554273
:10081000524F5554494E450A002220706F730022F2
:1008200020706172656E743A2200535542524F55E2
:1008300054494E452043414C4C20746172676574A5
:100840003A22004B494C4C45442E20007472796981
:100850006E6720746F2063616C6C207375622D6706
:10086000636F64652066696C6573207769746820BE
:10087000746F6F206D616E79206C6576656C732E78
:10088000204D4158206C6576656C2069733A0045AF
:1008900072726F723A006F70656E206661696C6586
:1008A000642C2046696C653A200043616E6E6F745B
:1008B000206F70656E2073756264697220006563D5
:1008C000686F3A0024F4D43050C38E20C2A240177F
:1008D000828B7011127A910D816CD90AA861E1089E
:1008E000C7586607615143061E4B5D05C145A70405
:1008F0001A411104093D9803713931034036DB0276
:1009000065339102D4305402802E1D02632CEE0117
:10091000752AC501B028A001102781018F25640127
:100920002B244B01E0223401AC211F018D200D014D
:10093000801FFC00841EED00971DDF00B81CD20054
:10094000E61BC600201BBC00641AB200B219A80046
:100950000A19A0006A189900D117910040178B005E
:10096000B516840031167E00B31579003A15730070
:10097000C7146F0058146A00EE13660088136300F2
:1009800025135E00C7125B006C125700151254004D
:10099000C111510070114F0021114B00D6104900B8
:1009A0008D1047004610440002104200C00F400066
:1009B000800F3E00420F3C00060F3B00CB0E38007C
:1009C000930E37005C0E3500270E3400F30D320015
:1009D000C10D3100900D3000600D2E00320D2D0044
:1009E000050D2C00D90C2B00AE0C2900850C29001C
:1009F0005C0C2700350C27000E0C2600E80B2400A9
:100A0000C40B2400A00B23007D0B23005A0B2100F4
:100A1000390B2100180B2000F80A1F00D90A1E000C
:100A2000BB0A1E009D0A1D00800A1D00630A1C00EF
:100A3000470A1B002C0A1B00110A1A00F7091A00AA
:100A4000DD091900C4091900AB0919009209170042
:100A50007B091800630917004C09160036091600B7
:100A6000200916000A091500F5081500E008140011
:100A7000CC081400B8081400A4081400900813004F
:100A80007D0812006B081300580812004608120077
:100A90003408110023081100120811000108110088
:100AA000F0071000E0071000D0071000C00710008A
:100AB000B0070F00A107100091070E0083070F0079
:100AC00074070F0065070E0057070E0049070E0058
:100AD0003B070D002E070E0020070D0013070D0029
:100AE00006070D00F9060C00ED060D00E0060C00EF
:100AF000D4060C00C8060C00BC060C00B0060C00A6
:100B0000A4060B0099060C008D060B0082060B0054
:100B100077060B006C060B0061060A0057060B00F7
:100B20004C060A0042060A0038060A002E060A0091
:100B300024060A001A060A001006090007060A0021
:100B4000FD050900F4050900EB050900E2050900AF
:100B5000D9050900D0050900C7050900BE0509002F
:100B6000B5050800AD050800A50509009C050800AD
:100B7000940508008C050800840508007C05080021
:100B8000740508006C050700650508005D05070091
:100B9000560508004E0507004705070040050800F8
:100BA00038050700310507002A050700230507005F
:100BB0001C050600160507000F05070008050600BE
:100BC00002050700FB040600F5040700EE0406001A
:100BD000E8040600E2040700DB040600D504060072
:100BE000CF040600C9040600C3040600BD040600C5
:100BF000B7040600B1040500AC040600A604060014
:100C0000A00405009B04060095040500900406005E
:100C10008A04050085040500800406007A040500A6
:100C200075040500700405006B04050066040500EA
:100C3000610405005C04050057040500520405002A
:100C40004D04050048040500430405003E0404006B
:100C50003A04050035040500300404002C040500A6
:100C600027040400230405001E0404001A040400E1
:100C700016040500110404000D0404000904050015
:100C80000404040000040400FC030400F80304004E
:100C9000F4030400F0030400EC030400E803040080
:100CA000E4030400E0030400DC030400D8030400B0
:100CB000D4030400D0030400CC030400C8030300E1
:100CC000C503030024F404D9201BC40C5C0E980453
:100CD000C4095F0265077101F405F900FB04B30064
:100CE00048048700C1036900580355000303450009
:100CF000BE023A008402310053022A002902250074
:100D000004022000E4011C00C8011900AF01170013
:100D1000980114008401130071011000610110009A
:100D200051010E0043010D0036010B002B010B0099
:100D300020010B00150109000C0109000301080046
:100D4000FB000800F3000800EB000700E4000600C9
:100D5000DE000600D8000600D2000600CC00050028
:100D6000C7000500C2000500BD000400B900040072
:100D7000B5000400B1000400AD000400A9000400A7
:100D8000A5000300A20003009F0004009B000300D5
:100D900098000300950002009300030090000300F8
:100DA0008D0002008B000300880002008600020014
:100DB00084000300810002007F0002007D00020029
:100DC0007B0002007900020077000100760002003B
:100DD0007400020072000100710002006F00020046
:100DE0006D0001006C0002006A0001006900020051
:100DF0006700010066000100650001006400020058
:100E00006200010061000100600001005F0002005B
:100E10005D0001005C0001005B0001005A00010060
:100E20005900010058000100570001005600010060
:100E30005500010054000100530000005300010060
:100E40005200010051000100500001004F0001005C
:100E50004E0000004E0001004D0001004C0001005A
:100E60004B0000004B0001004A0001004900010056
:100E70004800000048000100470001004600000053
:100E8000460001004500000045000100440001004B
:100E90004300000043000100420000004200010046
:100EA0004100000041000100400001003F0000003F
:100EB0003F0001003E0000003E0001003D00000038
:100EC0003D0001003C0000003C0000003C0001002F
:100ED0003B0000003B0001003A0000003A00010026
:100EE000390000003900010038000000380000001F
:100EF0003800010037000000370001003600000014
:100F0000360000003600010035000000350000000A
:100F100035000100340000003400000034000100FE
:100F200033000000330000003300010032000000F5
:100F300032000000320001003100000031000000EA
:100F400031000100300000003000000030000100DE
:100F50002F0000002F0000002F0000002F000100D4
:100F60002E0000002E0000002E0001002D000000C9
:100F70002D0000002D0000002D0001002C000000BD
:100F80002C0000002C0000002C0001002B000000B1
:100F90002B0000002B0000002B0001002A000000A5
:100FA0002A0000002A0000002A0001002900000099
:100FB000290000002900000029000000290001008C
:100FC0002800000028000000280000002800000081
:100FD0002800010027000000270000002700000073
:100FE0002700000027000100260000002600000066
:100FF0002600000026000000260001002500000059
:10100000250000002500000025000000250000004C
:10101000250001002400000024000000240000003E
:101020002400000024000100230000002300000031
:101030002300000023000000230000002300000024
:101040002300010022000000220000002200000016
:101050002200000022000000220001002100000008
:1010600021000000210000002100000021000000FC
:1010700021000000210001002000000020000000ED
:1010800020000000200000002000000020000000E0
:1010900020000000200001001F0000001F000000D1
:1010A0001F0000001F0000001F0000001F000000C4
:1010B0001F0001001E0000001E0000001E000000B6
:1010C0001E000000C23100001C260000F4190000C0
:1010D000D80F0000EB080000C004000075020000FB
:1010E000400100006265640A002C20737973746506
:1010F0006D2073746F70706564212048656174653C
:10110000725F49443A2000457874727564657200D4
:101110004D6F7665205A004D6F76652059004D6FF2
:1011200076652058005072657061726500496E697D
:101130007469616C697A6520454550524F4D004392
:101140006F6E74726F6C00526573746F7265206697
:1011500061696C73616665004C6F616420736574CE
:1011600074696E677300496E697469616C697A6548
:1011700020454550524F4D0053746F726520736582
:101180007474696E67730046696C616D656E740096
:101190004D6F74696F6E0054656D70657261747522
:1011A0007265004D61696E004D333033205531203A
:1011B0004525692053256900507265686561742072
:1011C00041425320636F6E660050726568656174BA
:1011D00020504C4120636F6E660050494420417599
:1011E000746F74756E6500504944204175746F7456
:1011F000756E6500504944204175746F74756E6555
:10120000005049442D44005049442D440050494465
:101210002D49005049442D49005049442D5000505B
:1012200049442D50002008204661637400200820A6
:1012300046616374002008204D6178002008204D2D
:101240006178002008204D6178002008204D696EEB
:10125000002008204D696E002008204D696E004F67
:101260006666004F6E20004175746F74656D700086
:1012700046616E2073706565640046616E20737010
:101280006565640046616E20737065656400426543
:10129000640042656400426564004E6F7A7A6C6552
:1012A000004E6F7A7A6C65004E6F7A7A6C650043F7
:1012B0006F6E74726F6C0053746F72652073657417
:1012C00074696E677300426564004265640042653C
:1012D00064004E6F7A7A6C65004E6F7A7A6C6500A6
:1012E0004E6F7A7A6C650046616E20737065656436
:1012F0000046616E2073706565640046616E207300
:10130000706565640054656D7065726174757265B1
:10131000004261627973746570205A00466C6F7781
:1013200000466C6F7700466C6F770046616E2073E5
:10133000706565640046616E207370656564004683
:10134000616E207370656564004265640042656487
:1013500000426564004E6F7A7A6C65004E6F7A7A4F
:101360006C65004E6F7A7A6C650053706565640039
:101370005370656564005370656564004D61696E06
:10138000005072656865617420504C4120456E6460
:10139000005072656865617420504C41204265645C
:1013A000005072656865617420504C410050726550
:1013B00070617265005072656865617420414253C6
:1013C00020456E6400507265686561742041425327
:1013D0002042656400507265686561742041425323
:1013E0000050726570617265004D34323800507281
:1013F000656865617420504C4100436F6F6C646F89
:10140000776E0050726568656174204142530044F4
:10141000697361626C6520737465707065727300C6
:101420004D38340053657420686F6D65206F6666B3
:1014300073657473004175746F20686F6D65004744
:101440003238004D6F76652061786973004D6169AF
:101450006E004D6F76652058004D6F7665205900FF
:101460004D6F7665205A0045787472756465720018
:101470004D6F766520302E316D6D004D6F76652095
:10148000316D6D004D6F76652031306D6D004D6FA3
:101490007665206178697300457874727564657249
:1014A000004D6F7665205A004D6F76652059004DCE
:1014B0006F76652058004265642068656174696EC6
:1014C00067206661696C65640048656174696E6770
:1014D000206661696C656400453120486561746906
:1014E0006E67206661696C65640048656174696E49
:1014F00067206661696C65640070012C01900127AA
:1015000001B0012201C0011D01F0011801100213F8
:101510000130020E016002090190020401C002FFC5
:10152000000003FA004003F5008003F000D003EB55
:10153000002004E6007004E100E004DC004005D770
:1015400000C005D2004006CD00D006C8008007C309
:10155000003008BE00F008B900C009B400B00AAFFE
:1015600000B00BAA00D00CA500000EA000500F9BED
:1015700000C01096005012910000148C00C0158716
:1015800000B0178200B0197D00D01B7800001E73D8
:101590000040206E0090226900F024640040275F24
:1015A0000090295A00E02B5500102E500020304B9F
:1015B0000010324600E033410090353C00103737D0
:1015C0000070383200A0392D00B03A2800A03B232B
:1015D00000603C1E00103D1900903D1400103E0FAD
:1015E00000703E0A00C03E0500003F0000403FFB87
:1015F000FF803FF6FFC03FF1FF4531205448455280
:101600004D414C2052554E415741590042454420CE
:10161000544845524D414C2052554E415741590076
:10162000546865726D616C2052756E6177617900E6
:101630004531204572723A204D415854454D500075
:101640004572723A204D415854454D502042454410
:10165000004D415854454D5020747269676765725A
:101660006564004531204572723A204D494E54451B
:101670004D50004572723A204D494E54454D502010
:10168000424544004D494E54454D5020747269679F
:101690006765726564004D383420582059205A20FF
:1016A0004500202F002042403A0020403A0000062A
:1016B0000900FE000000000001090008FE0000050E
:1016C000080806000040F0C88888987810050808C7
:1016D000060000C0F88888888888F8050505060097
:1016E000012030F830200508080600002070F8209E
:1016F000202020E00509090600FF2070A8A8B8886E
:101700008870200509090600FFE080C0B0A82830D5
:1017100028280509090600FFF8A88888888888A86D
:10172000F8050A0A0600FE205050505088A8A888E4
:101730007003030306000340A04025753A253032AC
:101740007500253032753A253032750025756420D4
:10175000253032753A253032750020202020202097
:10176000005A0059002020202000580009200000C5
:101770000000000000000000000000003FFFF0003B
:1017800000000000000000000000000038007000B1
:1017900000000000000000000000000030FC3000ED
:1017A00000000000000000000000000020FC10000D
:1017B0000000000000000000000000002078100081
:1017C00000000000000000000000000020301000B9
:1017D0000000000000000000000000002C00D0F815
:1017E0000180000C1FE00000082080002E31D0484E
:1017F000008000123FF00000041040002F7BD04317
:10180000C38CD0023FF00000041040002F7BD07149
:10181000249267CC3FF00000082080002E31D04198
:10182000249E40021FE00000104100002C00D0491F
:10183000249040121FE0000020820000203010FBA6
:10184000B3CEE00C3FF000002082000020781000B2
:10185000000000003FF000001041000020FC1000DC
:10186000000000003FF000000820800030FC300045
:10187000000000000FC000000000000038007000F1
:101880000000000007800000FFFFC0003FFFF000E5
:101890000000000003000000FFFFC0000000000087
:1018A0000000000000000000000000003FFFF0000A
:1018B0000000000000000000000000003800700080
:1018C000000000000000000000000000338730002E
:1018D00000000000000000000000000027879000CA
:1018E0000000000000000000000000002F87D00072
:1018F0000000000000000000000000002F87D00062
:101900000000000000000000000000002F03D0F8DD
:101910000180000C1FE000000820800020301048EB
:10192000008000123FF000000410400020781043B7
:10193000C38CD0023FF000000410400020781071EA
:10194000249267CC3FF00000082080002030104136
:10195000249E40021FE00000104100002F03D049E8
:10196000249040121FE00000208200002F87D0FB4F
:10197000B3CEE00C3FF00000208200002F87D000A3
:10198000000000003FF00000104100002787900099
:10199000000000003FF00000082080003387300086
:1019A000000000000FC000000000000038007000C0
:1019B0000000000007800000FFFFC0003FFFF000B4
:1019C0000000000003000000FFFFC0000000004511
:1019D00078747275646572733A203100687474703B
:1019E0003A2F2F6D61726C696E66772E6F72670089
:1019F000456E6465722D3300323031382D30372D0D
:101A00003331006275676669782D312E312E78008A
:101A10004D61726C696E00546865726D6973746FA4
:101A2000727300426F61726420496E666F0050727B
:101A3000696E74657220496E666F004D61696E0053
:101A400050726F7465637465642050696E0A00207B
:101A5000573A004520436F6F6C696E672E2E2E003B
:101A6000452048656174696E672E2E2E0020573A16
:101A70000042656420636F6F6C696E672E2E2E00C6
:101A80004265642068656174696E672E2E2E0020A1
:101A90005A3A0020593A0020436F756E7420583A24
:101AA0000020453A00205A3A0020593A00583A009E
:101AB0003A004361703A0023646566696E652044AC
:101AC000454641554C545F4B64200023646566696C
:101AD0006E652044454641554C545F4B69200023B8
:101AE000646566696E652044454641554C545F4BBC
:101AF000702000504944204175746F74756E6520E4
:101B000066696E6973686564212050757420746815
:101B100065206C617374204B702C204B6920616EC2
:101B200064204B6420636F6E7374616E74732066FF
:101B3000726F6D2062656C6F7720696E746F2043E1
:101B40006F6E66696775726174696F6E2E680A00E0
:101B5000504944204175746F74756E6520666169E3
:101B60006C6564212074696D656F75740A00453178
:101B700020544845524D414C2052554E41574159F1
:101B800000546865726D616C2052756E6177617981
:101B90000045312048656174696E67206661696C33
:101BA00065640048656174696E67206661696C658B
:101BB0006400504944204175746F74756E652066E9
:101BC00061696C6564212054656D7065726174751E
:101BD000726520746F6F20686967680A00204B6423
:101BE0003A2000204B693A2000204B703A20000A2E
:101BF00020436C617373696320504944200A0020BC
:101C000054753A2000204B753A2000206D61783AD7
:101C10002000206D696E3A200020643A2000206286
:101C20006961733A2000504944204175746F74759E
:101C30006E65206661696C6564212054656D706510
:101C400072617475726520746F6F20686967680AC5
:101C500000504944204175746F74756E652073742B
:101C60006172740A00504944204175746F74756E36
:101C700065206661696C6564212042616420657835
:101C8000747275646572206E756D6265720A0048C3
:101C90006F6D6520257325732573206669727374D3
:101CA000002066697273740A005A0059005800488F
:101CB0006F6D6520004F6666736574732061707088
:101CC0006C696564004572723A20546F6F206661DA
:101CD000722100546F6F206661722066726F6D20F2
:101CE0007265666572656E636520706F696E740AF1
:101CF0000020746F6F206C6F6E672065787472754A
:101D000073696F6E2070726576656E7465640A0023
:101D100020636F6C6420657874727573696F6E20D0
:101D200070726576656E7465640A00FFFFFFFFEFF1
:101D3000FFFFFFFFFFFFFFFFFFFFEFEFFFFFFFFFD3
:101D4000FFFFFFFFFFE7DFFFFFFFFFFFFFFFFFFFDB
:101D5000E7DFFFFFFFFFFFFFFFFFFFE3DFFFFFFF07
:101D6000FFFFFFFFFFFFF3CFFFFFFFFFFFFFFFFFBF
:101D7000E1E1CFFFFFFFFFFFFFFE78000003DDFF83
:101D8000FFFFFFFEFF807E0001EEFFFFFFFFFE7DF5
:101D9000CFFC0000F77FFFFFFFFF8E060000007BF7
:101DA000BFFFFFFFFFC0000000007DDFFFFFFFFF60
:101DB000FC01FE00003EE7FFFFFFFFFFFFFC00030A
:101DC0001F73FFFFFFFFFFFFF800018F81FFFFFF81
:101DD000FFFFFFE0000083F9FFFFFFFFFFFF00FCB4
:101DE0000000F0FFFFFFFFFFE00FFFC00000FFFF5C
:101DF000FFFFFE03FFFFC00000FFFFFFFFFFFFFF2D
:101E0000F9000000FFFFFFFFFFFFFFFC0007C0FF1E
:101E1000FFFFFFFFFFFFFF0007E0FFFFFFFFFFFFE8
:101E2000FFFFE007F1FFFFFFFFFFFFFFFFFC07F9E8
:101E3000FFFFFFFFFFFFFFFFFF03F9FFFFFFFFFFB4
:101E4000FFFFFFFF83F9FFFFFFFFFFFFFFFFFFC360
:101E5000FFFFFFFFFFFFFFFFFFFFE1FFFFFFFFFFB0
:101E6000FFFFFFFFFFF0BFFFFFFFFFFFFFFFFFFBD5
:101E7000F83FFFFFFFFFFFFFFFFFF9F83FFFFFFF06
:101E8000FFFFFFFFFF7EF0FFFFFFFFFFFFFFFFFFF2
:101E90008E03FFFFFFFFFFFFFFFFFFE01FFFFFFFBE
:101EA000FFFFFFFFFFFFFFFFFFFFFFFFFFFFFFFF42
:101EB000FFFFFFFFFFFFFFFFFFFFFFFFFFFF7FFFB2
:101EC000FFFFFF00007FFFFFF87FFFFFFFFF8000A5
:101ED0007FFFFFE07FFFFFFFFFC3FCFFFFFFF8FF77
:101EE000FFFFFFFFC3FCFFFFFFF8FFFFFFFFFF87C0
:101EF000FDFFFFFFF1FFFFFFFFFF87FFFFFFFFF188
:101F0000FFFFFFFFFF0FE7F30FFC23FC3FFFFFFF87
:101F10000FEF8007F003F01E007FFE1FCF8187C701
:101F200087C70C007FFE001FC7C78FC79F0F0CFF1E
:101F3000FE001F878F1F8F1F0F1FFFFC3F9F8F8F7C
:101F40001F8E001E3FFFFC7F3F0F1E3F1E3FFE3FC8
:101F5000FFF87FFF1F1C3F1C7FFC7FFFF8FFFF1E69
:101F60001C7E1C7FFC7FFFF0FFCE3E3C7E3C7FB89A
:101F7000FFFFF0FF9E3C387C387E78FFFFE1FF3C9E
:101F80007C787C783CF1FFFFE1F838787810180114
:101F9000F1FFFF000060203C007C07807FFFFFFF17
:101FA000FFFFFE1FFE1FFFFFFF1FFFFFFFFFFFFFE3
:101FB000600000000001FF400000000000FF800002
:101FC000000000007F83CF00000C303F87FF8000BF
:101FD0000C301F867980000C000F8C30C7838C304A
:101FE000E78C30CFC7CC31F38C30DCECEC33B98CE0
:101FF00030D86C6C33198C30D06C0C33198C30D8D1
:102000006C0C33198C30DC6C0E3B198C30CF7C0798
:102010009F198C30C77C038F19400000000000021C
:10202000600000000000061FFFFFFFFFFFF82020F8
:10203000506C616E6E657242756666657242797447
:1020400065733A20002046726565204D656D6F729C
:10205000793A2000436F6D70696C65643A204F6374
:102060007420313220323031390A00207C20417511
:1020700074686F723A20287468697369736B656954
:102080007468622C20456E6465722D33290A003213
:102090003031382D30372D333100204C61737420AE
:1020A000557064617465643A20006275676669788A
:1020B0002D312E312E780A004D61726C696E002030
:1020C000536F6674776172652052657365740A0098
:1020D000205761746368646F672052657365740A82
:1020E000002042726F776E206F75742052657365A1
:1020F000740A002045787465726E616C20526573B5
:1021000065740A00506F77657255700A00737461C8
:1021100072740A006175746F25692E6700657272AA
:102120006F722077726974696E6720746F206669B8
:102130006C650A00456E6473746F707320256320AC
:10214000256320256320256300205A3A0020593A50
:102150000020583A00656E6473746F70732068696C
:10216000743A2000446F6E6520736176696E672053
:1021700066696C652E0A004D32390000002100248A
:102180000027002A0000002200250028002B000064
:10219000002000230026002900020202020202029F
:1021A00002040404040404040403030303030303F8
:1021B0000301010101010101010102040810204095
:1021C0008001020408102040800102040810204011
:1021D0008080402010080402010000000102000974
:1021E0000A000000000403080700000000000000CF
:1021F0000000000000000000004D3234004D32337A
:1022000020257300556E6B6E6F776E20636F6D6D5A
:10221000616E643A20220053442063617264206F2F
:102220006B0A006F70656E526F6F74206661696C27
:1022300065640A00766F6C756D652E696E69742031
:102240006661696C65640A00534420696E69742094
:102250006661696C0A00454550524F4D20646174B7
:102260006173697A65206572726F722E0A00290A9D
:10227000002062797465733B2063726320005365AC
:102280007474696E67732053746F726564202800DC
:10229000290A002062797465733B20637263200011
:1022A0002073746F7265642073657474696E6773EC
:1022B0002072657472696576656420280020286341
:1022C000616C63756C6174656429210A0020213D8D
:1022D0002000454550524F4D20435243206D6973B5
:1022E0006D61746368202D202873746F7265642992
:1022F00020002053697A653A2000496E6465783A77
:102300002000204D61726C696E3D563536290A00F9
:1023100028454550524F4D3D00454550524F4D20A8
:1023200076657273696F6E206D69736D6174636831
:1023300020004573746570732F6D6D00457374656F
:1023400070732F6D6D005A73746570732F6D6D000F
:102350005A73746570732F6D6D0059737465707363
:102360002F6D6D005973746570732F6D6D00587308
:10237000746570732F6D6D005873746570732F6D75
:102380006D004D6F74696F6E0053746570732F6DBF
:102390006D004A65726B00416363656C65726174C0
:1023A000696F6E0056656C6F6369747900436F6E78
:1023B00074726F6C0046696C2E204469612E004671
:1023C000696C2E204469612E004F6666004F6E20B6
:1023D000004520696E206D6D3300416476616E6347
:1023E00065204B00416476616E6365204B00436F4E
:1023F0006E74726F6C0043616E6E6F7420656E74E4
:102400006572207375626469723A2000022E2E0094
:102410000152656672657368004D61696E004D61B9
:10242000782054656D703A20313235004D696E2048
:1024300054656D703A203500544265643A45504306
:102440004F53203130304B004D61782054656D7012
:102450003A20323735004D696E2054656D703A2050
:10246000350054303A204550434F53203130304BE3
:10247000005053553A2047656E657269630050728B
:102480006F746F636F6C3A20312E30004261756457
:102490003A20313135323030004D656C7A69202870
:1024A000437265616C69747929007C3C3E5E2B3D0A
:1024B0003F2F5B5D3B2C2A225C00526573656E6486
:1024C0003A20006F6B0020746F6F206C6F6E672076
:1024D000657874727573696F6E2070726576656E5B
:1024E0007465640A0020636F6C642065787472758B
:1024F00073696F6E2070726576656E7465640A002C
:10250000627573793A2070617573656420666F72C5
:1025100020696E7075740A00627573793A20706173
:102520007573656420666F7220757365720A006248
:102530007573793A2070726F63657373696E670A99
:10254000004B494C4C45442E20004B494C4C2063D9
:10255000617573656420627920746F6F206D756397
:102560006820696E6163746976652074696D6520A1
:102570002D2063757272656E7420636F6D6D616E70
:10258000643A2000506C65617365207265736574F0
:10259000005052494E5445522048414C5445440045
:1025A0005072696E7465722068616C7465642E2067
:1025B0006B696C6C28292063616C6C6564210A006E
:1025C000656E7175657565696E6720220000000093
:1025D0000000000000000000000000A0410000A07A
:1025E0004100008040000000005761726E696E6714
:1025F0003A20486F6D696E672042756D702044699E
:102600007669736F72203C20310A000202040000D8
:10261000A0400000A0400000004000006B4300000C
:102620006B4300007A43FFFFFF00060900FE07012D
:10263000920321207FFF07FF07FF00000006000034
:10264000010707060200808080808000800302026C
:10265000060105A0A00507070600005050F850F835
:1026600050500507070600002078A07028F02005CC
:102670000707060000C0C810204098180507070685
:1026800000006090A040A89068020303060104C007
:10269000408003070706010020408080804020031F
:1026A0000707060100804020202040800505050620
:1026B000000120A870A8200505050600012020F8CB
:1026C00020200203030602FFC0408005010106002E
:1026D00003F8020202060200C0C00505050600015B
:1026E0000810204080050707060000708888888849
:1026F000887003070706010040C040404040E005E5
:102700000707060000708808708080F80507070634
:102710000000F81020100808F00507070600001058
:10272000305090F81010050707060000F880F008F8
:10273000088870050707060000708080F0888870A0
:10274000050707060000F8081020202020050707CD
:1027500006000070888870888870050707060000EA
:1027600070888878080870020505060200C0C0005D
:10277000C0C00206060602FFC0C000C040800407B9
:1027800007060000102040804020100503030600CB
:1027900002F800F8040707060100804020102040DE
:1027A0008005070706000070880810200020050734
:1027B0000706000070880868A8A8700507070600CB
:1027C00000708888F8888888050707060000F08868
:1027D00088F08888F00507070600007088808080F0
:1027E0008870050707060000F08888888888F0054B
:1027F0000707060000F88080F08080F805070706CC
:102800000000F88080F080808005070706000070D7
:102810008880B8888870050707060000888888F8CF
:102820008888880107070602008080808080808079
:102830000507070600003810101010906005070704
:102840000600008890A0C0A0908805070706000039
:10285000808080808080F805070706000088D8A85F
:10286000888888880507070600008888C8A898888F
:102870008805070706000070888888888870050723
:1028800007060000F08888F08080800507070600B2
:102890000070888888A89068050707060000F088FF
:1028A00088F0A090880507070600007880807008EF
:1028B00008F0050707060000F8202020202020054A
:1028C000070706000088888888888870050707063B
:1028D000000088888888885020050707060000883F
:1028E00088888888A8500507070600008888502037
:1028F0005088880507070600008888885020202017
:10290000050707060000F80810204080F8030707B5
:10291000060100E08080808080E00505050600015A
:102920008040201008030707060100E02020202037
:1029300020E005030306000420508805010106007D
:1029400000F80202020602058040050505060000A7
:1029500070087888780507070600008080B0C8886E
:1029600088F005050506000070808088700507075F
:1029700006000008086898888878050505060000A4
:102980007088F880700507070600003048E0404076
:1029900040400506060600FF708888780870050725
:1029A000070600008080B0C88888880107070602F3
:1029B00000800080808080800308080601FF2000DE
:1029C00020202020A040040707060000808090A05F
:1029D000C0A090030707060100C04040404040E00F
:1029E000050505060000D0A8A8A8A805050506004D
:1029F00000B0C888888805050506000070888888AA
:102A0000700506060600FFF08888F080800506063F
:102A10000600FF788888780808050505060000B0DC
:102A2000C880808005050506000070807008F004ED
:102A300007070600004040E040404030050505061D
:102A40000000888888986805050506000088888841
:102A500050200505050600008888A8A85005050532
:102A600006000088502050880506060600FF88886A
:102A700088780870050505060000F8102040F80366
:102A8000070706010020404080404020010707065C
:102A9000020080808080808080030707060100801C
:102AA000404020404080050202060002689000007D
:102AB00000060000025654726176206D696E005661
:102AC00054726176206D696E005654726176206D85
:102AD000696E00566D696E00566D696E00566D69BF
:102AE0006E00566D6178204500566D617820450076
:102AF000566D6178204500566D6178205A00566DFC
:102B00006178205A00566D6178205A00566D6178C0
:102B1000205900566D6178205900566D6178205912
:102B200000566D6178205800566D61782058005627
:102B30006D61782058004D6F74696F6E00416D6152
:102B400078204500416D6178204500416D61782015
:102B50005A00416D6178205A00416D61782059001A
:102B6000416D6178205900416D6178205800416DB8
:102B70006178205800412D74726176656C00412D9A
:102B800074726176656C00412D7265747261637454
:102B900000412D7265747261637400416363656CFA
:102BA00000416363656C004D6F74696F6E0056651C
:102BB0002D6A65726B0056652D6A65726B005665ED
:102BC0002D6A65726B00567A2D6A65726B00567AB3
:102BD0002D6A65726B0056792D6A65726B005679A5
:102BE0002D6A65726B0056792D6A65726B00567896
:102BF0002D6A65726B0056782D6A65726B00567887
:102C00002D6A65726B004D6F74696F6E00486F6D51
:102C1000696E67206661696C656400545249474774
:102C200045524544006F70656E003A20007A5F6D32
:102C3000696E00795F6D696E00785F6D696E005234
:102C400065706F7274696E6720656E6473746F70FF
:102C5000207374617475730A0048617264636F64F1
:102C600065642044656661756C742053657474698D
:102C70006E6773204C6F616465640A00F4010000A4
:102C8000F401000064000000881300000000FA4313
:102C90000000FA430000A0400000C8410000A0422C
:102CA0000000A0420000C8430000BA4220286D6D19
:102CB000290020204D393030204B004C696E656171
:102CC0007220416476616E63653A0A0020440020F8
:102CD000490020204D3330312050005049442073AA
:102CE000657474696E67733A0A00204600204200DA
:102CF00020480020204D3134352053004D6174654B
:102D00007269616C206865617475702070617261B0
:102D10006D65746572733A0A00205A0020590020CC
:102D2000204D323036205800486F6D65206F666642
:102D30007365743A0A00204500205A00205900208B
:102D4000580020540020530020204D3230352051AF
:102D50000020453C6D61785F655F6A65726B3E007F
:102D600020583C6D61785F785F6A65726B3E2059D0
:102D70003C6D61785F795F6A65726B3E205A3C6D8D
:102D800061785F7A5F6A65726B3E00416476616E5E
:102D90006365643A20513C6D696E5F7365676D656C
:102DA0006E745F74696D655F75733E20533C6D6929
:102DB0006E5F66656564726174653E20543C6D6942
:102DC0006E5F74726176656C5F666565647261746E
:102DD000653E0020540020520020204D3230342027
:102DE0005000416363656C65726174696F6E202881
:102DF000756E6974732F7332293A20503C70726972
:102E00006E745F616363656C3E20523C72657472E0
:102E10006163745F616363656C3E20543C747261EE
:102E200076656C5F616363656C3E0A002045002037
:102E30005A0020590020204D3230312058004D6179
:102E400078696D756D20416363656C657261746945
:102E50006F6E2028756E6974732F7332293A0A00D9
:102E6000204500205A0020590020204D32303320C8
:102E700058004D6178696D756D2066656564726195
:102E80007465732028756E6974732F73293A0A006C
:102E9000204500205A0020590020204D393220586A
:102EA0000053746570732070657220756E69743A92
:102EB0000A0020204D3230302044300A0020204DBE
:102EC0003230302044002044697361626C65640ACA
:102ED0000046696C616D656E742073657474696E0B
:102EE00067733A0020204D3134392043203B205570
:102EF0006E69747320696E2043656C736975730A1B
:102F0000002020473231202020203B004572726F84
:102F1000722077726974696E6720746F204545501E
:102F2000524F4D210A00456E6465722D3320526563
:102F30006164792E005072696E74696E672E2E2E50
:102F4000005072696E742070617573656400507210
:102F5000696E742061626F7274656400496E697491
:102F60002E2053442063617264004D3231004E6F55
:102F70002053442063617264004368616E6765207A
:102F800053442063617264004D3231005072696EA7
:102F9000742066726F6D2053440053746F702070FC
:102FA00072696E7400526573756D65207072696E1A
:102FB000740041626F7574205072696E746572009E
:102FC0005061757365207072696E7400436F6E7422
:102FD000726F6C00507265706172650054756E6539
:102FE00000496E666F2073637265656E00426162B0
:102FF0007973746570205A007BDE58E711241FBE78
:10300000CFEFD0E4DEBFCDBF12E0A0E0B1E0E8E159
:10301000F8EE01E00BBF02C007900D92A436B10795
:10302000D9F723E1A4E6B2E001C01D92AA3EB2079F
:10303000E1F717E1CDEFD7E104C02197FE010E942F
:1030400055F0CC3FD107C9F70E9476E00C94FFF30E
:103050000C9400002F923F924F925F926F927F925A
:103060008F929F92AF92BF92CF92DF92EF92FF9298
:103070000F931F93CF93DF93CDB7DEB7CF55D10911
:103080000FB6F894DEBF0FBECDBF21E020938813AA
:103090008091F9128D3409F47CC6843511F40C94B6
:1030A000A52C873411F00C94E92C2090F712309065
:1030B000F81234E02316310409F449C54CF437FC06
:1030C00064C68091110152E0251631047CF529C0B7
:1030D0008AE52816310409F48FC534F4ACE12A16C8
:1030E000310409F472C551C6BBE52B16310409F44D
:1030F00087C5ECE52E16310409F047C62EE5222ED1
:1031000021E0322E36E9E32E33E1F32E2DEF3DE0C0
:103110003DA72CA747EDC42E46E0D42E00E010E0DA
:10312000AEC581110C94F02C0C94EB2C882311F477
:103130000C94EB2C0E94398182E50E947035882323
:1031400009F436C10E94F4344B015C0120E030E008
:10315000A9010E94CBEB882309F456C12091FD0DF3
:103160003091FE0D4091FF0D5091000E2CA73DA710
:103170004EA75FA78091010E9091020EA091030EC1
:10318000B091040E88AB99ABAAABBBAB2091A21354
:103190003091A3134091A4135091A5132CAB3DABD8
:1031A0004EAB5FAB8091A6139091A713A091A8138B
:1031B000B091A91388AF99AFAAAFBBAF6CA57DA59D
:1031C0008EA59FA50E94CBEB81110DC028AD39AD16
:1031D0004AAD5BAD68A979A98AA99BA90E94CBEBEE
:1031E000882309F411C111E092E02916310409F095
:1031F00010E020E030E0A901C501B4010E94CBEB52
:10320000881F8827881F181759F020E030E040E811
:103210005FEB28962CAF3DAF4EAF5FAF28970AC04B
:1032200080E090E0A0E8BFE328968CAF9DAFAEAF02
:10323000BFAF28972CA53DA54EA55FA56CA97DA97C
:103240008EA99FA90E9466F024966CAF7DAF8EAFC9
:103250009FAF249728A939A94AA95BA968AD79AD80
:103260008AAD9BAD0E9466F06B017C0124962CAD6B
:103270003DAD4EAD5FAD2497CA01B9010E9431EC5E
:103280002B013C01A7019601C701B6010E9431EC58
:103290009B01AC01C301B2010E9467F00E9415F3CB
:1032A0006CAF7DAF8EAF9FAF20E030E040E05FE3DA
:1032B0000E9431EC2B013C01A5019401C501B40130
:1032C0000E9431EC4B015C01A3019201C301B201E8
:1032D0000E9431EC9B01AC01C501B4010E9466F073
:1032E0000E9415F328962CAD3DAD4EAD5FAD2897ED
:1032F0000E9431EC4B015C01C701B60190582CAD26
:103300003DAD4EAD5FAD0E9461F1A50194010E94FB
:1033100031EC6B017C012CA93DA94EA95FA96CA5DC
:103320007DA58EA59FA50E9467F020E030E040E0DB
:103330005FE30E9431EC9B01AC01C701B6010E9422
:1033400067F02CA53DA54EA55FA50E9466F06B0118
:103350007C0128AD39AD4AAD5BAD68A979A98AA9D0
:103360009BA90E9467F020E030E040E05FE30E940C
:1033700031EC2B013C012CAD3DAD4EAD5FAD249643
:103380006CAD7DAD8EAD9FAD24970E9461F1A5011E
:1033900094010E9431EC9B01AC01C301B2010E9477
:1033A00067F028A939A94AA95BA90E9466F014C050
:1033B00089E40E947035882329F00E94F4346B015F
:1033C0007C0103C0C12CD12C76018AE40E947035A7
:1033D0008823E9F00E94F4346CAB7DAB8EAB9FABDD
:1033E00020E030E0A901C701B6010E94CBEB8111BA
:1033F0001BC020E030E0A9016CA97DA98EA99FA97E
:103400000E94CBEB811110C0EFE8F8E08CC320E004
:1034100030E0A901C701B6010E94CBEB8823A1F3DC
:103420001CAA1DAA1EAA1FAAA701960150582CA7C4
:103430003DA74EA75FA78CA99DA9AEA9BFA9B0586B
:1034400088AB99ABAAABBBABCA01B9010E9431EC06
:103450004B015C0128A939A94AA95BA9CA01B90194
:103460000E9431EC9B01AC01C501B4010E9467F0E0
:103470000E9415F364966CAF7DAF8EAF9FAF6497DB
:103480002091FD0D3091FE0D4091FF0D5091000EE9
:1034900028AF39AF4AAF5BAFA701960168AD79ADF0
:1034A0008AAD9BAD0E9467F028966CAF7DAF8EAF62
:1034B0009FAF28978091010E9091020EA091030E6C
:1034C000B091040E24968CAF9DAFAEAFBFAF2497E2
:1034D0002CA93DA94EA95FA9BC01CD010E9467F0AE
:1034E00068966CAF7DAF8EAF9FAF68972091A213A7
:1034F0003091A3134091A4135091A5132C962CAF97
:103500003DAF4EAF5FAF2C9728962CAD3DAD4EAD85
:103510005FAD28972C966CAD7DAD8EAD9FAD2C9791
:103520000E9466F06B017C018091A6139091A71315
:10353000A091A813B091A91360968CAF9DAFAEAFC8
:10354000BFAF609768962CAD3DAD4EAD5FAD68974F
:10355000BC01CD010E9466F04B015C012091050E7B
:103560003091060E4091070E5091080E6C962CAFCC
:103570003DAF4EAF5FAF6C976091AA137091AB13E4
:103580008091AC139091AD130E9466F06CAF7DAF4B
:103590008EAF9FAFA70196016CA57DA58EA59FA5B7
:1035A0000E9431EC2B013C01A501940168A979A985
:1035B0008AA99BA90E9431EC9B01AC01C301B20115
:1035C0000E9467F02B013C01A50194016CA57DA52B
:1035D0008EA59FA50E9431EC4B015C01A7019601CD
:1035E00068A979A98AA99BA90E9431EC9B01AC0129
:1035F000C501B4010E9466F0A30192010E94E6F0A9
:103600006B017C0120E030E0A9010E94CBEB87FF39
:103610000AC02BED3FE049EC50E4C701B6010E941F
:1036200067F06B017C0132E02316310451F42BED7D
:103630003FE049EC50E4C701B6010E9466F06B011F
:103640007C0120E030E0A901C701B6010E94CBEB6C
:10365000811126C02C962CAD3DAD4EAD5FAD2C97A3
:1036600068AD79AD8AAD9BAD0E94CBEB811118C0DE
:1036700060962CAD3DAD4EAD5FAD609724966CADC0
:103680007DAD8EAD9FAD24970E94CBEB811108C01C
:103690007BEDC72E7FE0D72E79ECE72E70E4F72E76
:1036A000A701960164966CAD7DAD8EAD9FAD64971C
:1036B0000E9431EC4B015C0120E030E0A9016CADCF
:1036C0007DAD8EAD9FAD0E94CBEB8823D9F0A501D7
:1036D0009401C501B4010E9431EC4B015C012CAD99
:1036E0003DAD4EAD5FADCA01B9010E9431EC9B0109
:1036F000AC01C501B4010E9467F00E9415F34B01B3
:103700005C010DC020E030E0A901C501B4010E94B8
:10371000C7F287FF04C0B7FAB094B7F8B0942FE6A9
:1037200032E143E85AE3C501B4010E94CBEB87FFC5
:1037300002C00C94EB2CC501B4010E9409F20E9456
:10374000DAF122967FAF6EAF2297672B31F481E0DA
:1037500090E022969FAF8EAF22974090090E509036
:103760000A0E60900B0E70900C0E2296AEADBFAD9F
:103770002297BD0180E090E00E94D0EB4B015C01FC
:103780009B01AC01C701B6010E9461F168AF79AF3E
:103790008AAF9BAFA50194016CAD7DAD8EAD9FADA1
:1037A0000E9461F164966CAF7DAF8EAF9FAF64975E
:1037B000A30192016091AE137091AF138091B01389
:1037C0009091B1130E9466F0A50194010E9461F1ED
:1037D000A0966CAF7DAF8EAF9FAFA09728AD39ADEF
:1037E0004AAD5BADCA01B9010E9431EC20E030E086
:1037F00040E05FE30E9431EC9B01AC0160E070E0CF
:1038000080E89FE30E9466F02C966CAF7DAF8EAF90
:103810009FAF2C976C962CAD3DAD4EAD5FAD6C97C8
:1038200029873A874B875C874D865E866F86788AC4
:103830006091220170912301072E000C880B990BD7
:103840000E94D2EB209154013091550140915601D4
:10385000509157010E9431EC2AE037ED43E25CE3DE
:103860000E9431EC68A779A78AA79BA70E9475934D
:103870009B01AC0128533F4F4F4F5F4F60962CAFD9
:103880003DAF4EAF5FAF60974CA45DA46EA47FA424
:1038900022242394312C39E13CAF22964EAD5FAD0A
:1038A00022974215530509F41AC10E94F1610E9442
:1038B0007593DC01CB0160962CAD3DAD4EAD5FAD97
:1038C0006097821B930BA40BB50BB7FD10C00E9431
:1038D00075939B01AC0128533F4F4F4F5F4F60964C
:1038E0002CAF3DAF4EAF5FAF60970E9405B43CADCB
:1038F00031503CAF332309F441C028A939A94AA962
:103900005BA92C966CAD7DAD8EAD9FAD2C970E94C2
:1039100031EC6B017C019201A30168AD79AD8AADF8
:103920009BAD0E9431ECA70196010E9467F07B01DC
:103930008C019201A3012C966CAD7DAD8EAD9FAD37
:103940002C970E9431EC4B015C0128A939A94AA9A6
:103950005BA968AD79AD8AAD9BAD0E9431EC9B014E
:10396000AC01C501B4010E9466F02B013C01C70106
:10397000D80188AB99ABAAABBBAB4DC0B10180E01D
:1039800090E00E94D0EB28AD39AD4AAD5BAD0E940E
:1039900031EC4B015C010E945CF16B017C01C501C3
:1039A000B4010E9407F34B015C01A70196016CA5CD
:1039B0007DA58EA59FA50E9431EC2B013C012CA971
:1039C0003DA94EA95FA9C501B4010E9431ECA30134
:1039D00092010E9467F02B013C01A50194016CA5A6
:1039E0007DA58EA59FA50E9431EC4B015C012CA901
:1039F0003DA94EA95FA9C701B6010E9431EC9B0108
:103A0000AC01C501B4010E9466F068AB79AB8AAB2A
:103A10009BAB49E14CAF9201A30128966CAD7DAD03
:103A20008EAD9FAD28970E9467F069837A838B8360
:103A30009C8328A939A94AA95BA968966CAD7DAD7C
:103A40008EAD9FAD68970E9467F06D837E838F83F4
:103A5000988764962CAD3DAD4EAD5FAD649769859A
:103A60007A858B859C850E9467F069877A878B872A
:103A70009C87A0962CAD3DAD4EAD5FADA0976D85FA
:103A80007E858F8598890E9467F06D877E878F87F6
:103A9000988B80913001882321F0CE0101960E94FD
:103AA000F1B1E090850718A219A21AA21BA2CE01BB
:103AB00080966C018E01085D1F4F9E01235F3F4F72
:103AC000AE01475F5F4FBE016B5F7F4F4F970E9414
:103AD0005382882321F09FEF291A390ADECEE09025
:103AE00085071CA21DA21EA21FA2DE0194966D01D5
:103AF0008E01085D1F4F2EEA33E14AEA53E166EA80
:103B000073E182EA93E10E94538280E1E2EAF3E109
:103B1000ADEFBDE001900D928A95E1F70C94EB2C8E
:103B20000E948335F80184918F010F5F1F4F81112F
:103B3000F7CFE9ECF1E084918F010F5F1F4F8823ED
:103B400011F40C94EB2C0E948335F801F4CF80E53E
:103B50000E947035882329F00E94B0346B017C01EB
:103B600003C0C12CD12C760183E50E9470358823D7
:103B700061F00E94F43420E030E04AE754E40E940F
:103B800031EC0E94DAF16B017C010E9469CA8091DC
:103B9000A107811105C060E08FED91E00E940BC18B
:103BA0000E947593C60ED71EE81EF91E0E947593DB
:103BB000DC01CB018C199D09AE09BF09B7FD02C01C
:103BC0000C94EB2C0E9405B4F1CF8091F00D87701E
:103BD000873011F00C94F52C8FE40E947035882307
:103BE00019F00E94E43403C08FE40E94273581114C
:103BF0000C94EB2C0C94F52C109268020C94EB2C8A
:103C0000209368020C94EB2C0E94F4342B013C01AD
:103C1000133049F0F60120813181428153810E94A5
:103C200066F02B013C01ACA5BDA52D913D914D91B8
:103C30005C91C301B2010E9466F04B015C012DEB67
:103C400037E346E855EB0E94C7F287FD20C02DEB15
:103C500037E346E855E3C501B4010E94CBEB1816E3
:103C6000B4F01F5FB4E0EB0EF11CECA5FDA534969B
:103C7000FDA7ECA7F4E0CF0ED11C143039F1D1012F
:103C80008D911D010E947035882359F3BDCF1330EB
:103C900051F44092090E50920A0E60920B0E7092EF
:103CA0000C0E01E0DECFA5019401F7016081718166
:103CB000828193810E9467F0D7016D937D938D93EC
:103CC0009C931397812F0E94F233CBCF002309F4EA
:103CD00058C0C090090ED0900A0EE0900B0EF090E4
:103CE0000C0E20E030E0A901C701B6010E9467F088
:103CF0002091DD0D3091DE0D4091DF0D5091E00DF2
:103D00000E9431EC0E94D4F26093620370936303CB
:103D10008093640390936503C0925203D09253033F
:103D2000E0925403F0925503909130038091310357
:103D3000981719F00E940BCA24C00E9469CA80918A
:103D40006F00982F927081FF05C080916F008D7F6A
:103D500080936F004091620350916303609164030C
:103D60007091650340934D0650934E0660934F0645
:103D700070935006992329F080916F0082608093A0
:103D80006F000E941B7B0C94EB2C0E94FF970C94FD
:103D9000EB2C8091F7129091F8128337910509F47A
:103DA000BEC10CF0C2C08B34910509F40AC50CF0F9
:103DB00067C08831910509F485C2ACF5823191055F
:103DC00009F47FC6BCF497FF02C00C94A22C823089
:103DD00091050CF4A7C1419711F00C94A22C60E05E
:103DE0008BEF91E00E940BC15E985E9815985E98EB
:103DF0000C94EB2C8531910509F449C23CF44497AD
:103E000011F00C94A22CE3E1F2E003C2863191059B
:103E100009F441C2479711F00C94A22CE091F512DD
:103E2000F091F61242C28D31910511F40C94EB2CF5
:103E3000C4F48A31910509F454C20CF44CC28B319C
:103E4000910509F45CC24C9711F00C94A22C40E04F
:103E500060E08091F5129091F6120E94A33E0C94BE
:103E6000EB2C8F31910509F4C0C30CF4E0C2803211
:103E7000910509F46EC38A9709F46DC40C94A22CC1
:103E80008936910509F473C544F58335910509F424
:103E900015C69CF48D34910509F49BC40CF495C4AB
:103EA0008135910509F4F6C58235910511F00C9420
:103EB000A22C109267020C94EB2C8535910509F425
:103EC00033C60CF4FEC58C35910509F446C6883618
:103ED000910509F482C40C94A22C8E36910509F444
:103EE000A7C49CF48B36910509F4C3C50CF4A3C593
:103EF0008C36910509F402C58D36910511F00C94AC
:103F0000A22C0E944A7F0C94EB2C8037910509F477
:103F1000F9C40CF4A0C48137910509F4FBC48237BD
:103F2000910509F4A2C60C94A22C823E910511F4CD
:103F30000C94872A0CF070C08E3B910509F477C56C
:103F40005CF58837910509F486C764F486379105D6
:103F500009F432C70CF07CC78537910509F41DC7F9
:103F60000C94A22C8C38910509F443C55CF4893774
:103F7000910511F00C94A22C1092EF0D1092EE0D01
:103F80000C94EB2C8139910509F46AC78B399105A2
:103F900009F408C50C94A22C8D3C910511F40C94E5
:103FA000A728CCF4893C910511F40C94F8273CF433
:103FB000883C910511F40C94A8270C94A22C8B3CFE
:103FC000910511F40C9417288C3C910511F40C9474
:103FD00032280C94A22C833D910509F49CC084F4F2
:103FE0008E3C910511F00C94A22C4EE5C42E41E0BC
:103FF000D42E51EFE52E5DE0F52E10E00C941A2939
:104000008C3D910511F40C940B2A8D3D910511F412
:104010000C94182A0C94A22C843F31E0930711F4DD
:104020000C94F42B0CF040C08F3251E0950711F442
:104030000C94D82BDCF48C32B1E09B0711F40C9477
:10404000BB2A3CF48232914011F40C94B02A0C94B7
:10405000A22C8D3221E0920711F40C94E42A8E32C6
:10406000914011F40C94842B0C94A22C803941E0E3
:10407000940711F40C94F12B4CF48336914011F019
:104080000C94A22CEFE8F8E00C94DE2B8A39B1E016
:104090009B0709F43BC48C3A914011F00C94A22C7C
:1040A0000E94E57B0C94EB2C8C30F2E09F0711F41E
:1040B0000C942D2CB4F4863F31E0930711F40C944A
:1040C000FA2B14F40C94F72B873F51E0950711F469
:1040D0000C94FD2B883F914011F40C94092C0C9406
:1040E000A22C8B38B3E09B0711F40C94EB2C3CF41E
:1040F0008438934011F40C94352C0C94A22C803A03
:1041000023E0920709F464C2873E934011F40C94B3
:104110008D2C0C94A22CEEEBF8E00C942C29E9EEFB
:10412000F3E0E0C5A090F512B090F61280E50E9491
:104130007035882359F00E94B0346B017C0111E086
:10414000672B682B692B31F410E004C010E0C12C00
:10415000D12C760183E50E947035882311F40C94EC
:104160009E2E0E94F43420E030E04AE754E40E949E
:1041700031EC0E94DAF16B017C0111110BC0672B4D
:10418000682B692B39F4A114B10421F0D5018C916D
:10419000811102C010E001C011E00E9469CA112320
:1041A00029F061E0C5010E9447C105C060E088EECA
:1041B00091E00E940BC183E08093881381E080939B
:1041C0009407C114D104E104F104B1F00E94759385
:1041D000C60ED71EE81EF91E0E947593DC01CB01A6
:1041E0008C199D09AE09BF09B7FF0DC080919407D6
:1041F00081110C94A32E07C080919407882319F095
:104200000E9405B4F9CF0E9448DC109294070C94E8
:10421000EB2C84918F010F5F1F4F882321F00E94A8
:104220008335F801F6CF10922B068EED93E00E94B5
:10423000A8AC8BE1EEEDF3E0DE01159601900D9256
:104240008A95E1F78091DC039091DD039C838B8359
:104250008CE691E09A83898340E050E0BE016F5F75
:104260007F4F80E090E00E94DE3BCE0101960E94ED
:1042700085B3E4E0F2E084918F010F5F1F4F882344
:1042800011F40C94EB2C0E948335F801F4CF0E94BA
:1042900002960C94EB2C10928603109287030C94D8
:1042A000EB2C803209F41082319680818111F9CF94
:1042B00040E061E08091F5129091F6120E94A33ED9
:1042C0000C94EB2C809187038111209386030E942C
:1042D0005A410C94EB2C109286030E947E410C9460
:1042E000EB2C80918703882311F40C94EB2C83E54D
:1042F0000E94703581110C94A72E0C94EB2C83E452
:104300000E942735882309F450C0E1E5F2E084914A
:104310008F010F5F1F4F882321F00E948335F80122
:10432000F6CF80917905811103C0E4E2F2E012C07A
:10433000BE016F5F7F4F86E795E00E946FAB8E01F5
:104340000F5F1F4FF80181918F01882349F10E946F
:104350008335F8CF84918F010F5F1F4F882301F1C0
:104360000E948335F801F6CF8FECC82E82E0D82E5C
:10437000E12CF12C20E08091D00D90E00E2C02C0B9
:10438000959587950A94E2F780FD95C2AFEFEA1AFA
:10439000FA0AB2E0CB0ED11CE5E0EE16F10459F7B3
:1043A0008AE00E9483350C94EB2C8091870388234C
:1043B00039F080918603882319F0EEE2F2E003C021
:1043C000E0E4F2E028C084918F010F5F1F4F882343
:1043D00021F00E948335F801F6CF60912706709195
:1043E00028068091290690912A064AE00E943238D8
:1043F0008FE20E948335609123067091240680919C
:104400002506909126064AE00E9432388AE00E94F2
:1044100083350C94EB2C84918F010F5F1F4F882301
:1044200011F40C94EB2C0E948335F801F4CF8091A9
:104430008703882311F40C94EB2C86E795E00E9407
:10444000E6D986E795E00E944AAB10928503109268
:10445000840380918703882311F40C94EB2C009142
:10446000F5121091F6120E946B3BB801CE018096B6
:104470000E94E73D8C01892B11F40C94EB2C68A170
:1044800079A16115710511F06C5F7F4F19821C8253
:1044900022E0A801CE0101960E94F9B0811102C06C
:1044A000F12C14C0CE0101960E94D93A8823C1F3A1
:1044B00061E0CE0101960E9453AB009789F325EE8F
:1044C000DC012C931C820E948BD7F82ECE01019622
:1044D0000E947D35F11003C0EEE6F2E022C0E0E676
:1044E000F2E084917F01BFEFEB1AFB0A882321F0F1
:1044F0000E948335F701F5CFF80181918F01882360
:1045000019F00E948335F8CF8AE00E94833510921B
:104510002706109228061092290610922A060C945B
:10452000EB2C84917F012FEFE21AF20A882321F00D
:104530000E948335F701F5CFD8018D918D01882335
:1045400019F00E948335F8CF8EE20E9483350C94D7
:10455000EB2C8091860381110E9469CA80918703A8
:10456000882311F40C94EB2C80E50E94703588238D
:1045700019F00E94E43403C080E50E942735182F0B
:10458000482F61E08091F5129091F6120E94A33EAF
:1045900083E50E947035882381F00E94C034AB010E
:1045A000BC01409327065093280660932906709318
:1045B0002A0686E795E00E9460AA809187038823F7
:1045C00019F081E08093860311110C94EB2C7FCEBF
:1045D0008091F5129091F61221E02093850340E03E
:1045E00060E00E94A33E0C94EB2C0E940B417B01E7
:1045F0008C0120E831E541E050E00E94D2EFC90192
:104600006DE671E00E940EF04B015C01C801B7013C
:1046100020E13EE040E050E00E94D2EFCA01B90143
:1046200028E130E040E050E00E94D2EF762E672E85
:10463000C62ED72E9CE3292E312C412C512CC8019B
:10464000B701A20191010E94D2EFF62EE72ECA0116
:10465000B901A20191010E94D2EFCB018E010F5F3F
:104660001F4F8114910499F0EF92FF927F936F9303
:104670006F927F92BF92AF929F928F928EEA92E05A
:104680009F938F931F930F930E9463EB13C0A1140A
:10469000B104B1F0EF92FF927F936F936F927F928C
:1046A000BF92AF928EE992E09F938F931F930F93E7
:1046B0000E9463EB0FB6F894DEBF0FBECDBF30C0D3
:1046C000CD2879F0EF92FF927F936F936F927F9254
:1046D00082E992E09F938F931F930F930E9463EB65
:1046E000E9CF892B69F0EF92FF927F936F938AE86D
:1046F00092E09F938F931F930F930E9463EBDACF07
:10470000EF92FF9286E892E09F938F931F930F930F
:104710000E9463EB0F900F900F900F900F900F90EF
:1047200060E0C8010E9447C1EEEBF8E084917F0190
:104730009FEFE91AF90A882321F00E948335F701D7
:10474000F5CFB80182EC92E00E9465C98AE00E9430
:1047500083350C94EB2C83E50E947035882311F48B
:104760000C94EB2C0E94D034E82E80E50E9470352A
:10477000882311F40C94EB2C0E94D034182F87FF5F
:1047800002C00C94EB2C89E40E947035882351F010
:104790000E94E43481110C94432FEFE2F5E08CE5A4
:1047A00095E00AC089E40E942735F4CF31968E1730
:1047B0009F0711F40C94432F24911213F7CF0C94FC
:1047C000DD2E0E945A410C94EB2C0E947E410C94E9
:1047D000EB2C0E9493410C94EB2C88E690E00E9415
:1047E0009F3881110C94EB2C8091D00D83FF02C077
:1047F0000C94EB2C83E50E9470358823A9F00E946D
:10480000F4340E94D3F1CB010E94A6C00E94F4347C
:1048100020E030E04AEA52E40E94CBEB181624F084
:104820000E9493410E9448DC0E9480C90C94EB2CAA
:104830008EE40E947035882311F40C94EB2C0E94B6
:10484000C0346093E9027093EA028093EB02909384
:10485000EC020C94EB2C83E50E942735882359F059
:1048600083E50E947035882319F00E94D03401C07E
:1048700080E08093D00DEEEBF8E084918F010F5F24
:104880001F4F811103C0EDEDF2E004C00E9483359B
:10489000F801F3CF84918F010F5F1F4F882321F020
:1048A0000E948335F801F6CF8091D00D81115CCD47
:1048B000E9EDF2E018C0BB24B394B20E222319F044
:1048C0008CE20E948335F60185919491FC018491DC
:1048D0008F010F5F1F4F882321F00E948335F8015D
:1048E000F6CF2B2D53CD84918F010F5F1F4F88235F
:1048F00009F456CD0E948335F801F5CF109242019C
:104900000C94EB2C84EE92E00E94A1B30E945C76A2
:104910000C94EB2C83E50E947035811103C0EEEB03
:10492000F8E00DC00E94D0348D3320F480935801FC
:104930000C94EB2C8CE3809358010C94EB2C849119
:104940008F010F5F1F4F882321F00E948335F801EC
:10495000F6CF4091580150E060E070E08DEE92E0BB
:104960000E94BC4A8AE00E9483350C94EB2C89E6B5
:1049700090E00E949F38811111C0E4EFF2E0849131
:104980008F010F5F1F4F882321F00E948335F801AC
:10499000F6CF0E94455E8AE00E948335109288130C
:1049A0000C94582F83E50E947035882311F40C94E1
:1049B000EB2C0E94D034182F8D3308F01CE3109399
:1049C00095130E9475936B017C01212F30E0A8EEB6
:1049D000B3E00E94FFEFC60ED71EE81EF91EC0927C
:1049E0009113D0929213E0929313F09294130C943B
:1049F000EB2C8091D00D83FF02C00C94EB2C83E54F
:104A00000E947035882311F40C94EB2C0E94F4342E
:104A10000E94D3F16E36710514F06EE670E070936B
:104A2000B70F6093B60F0E9487600C94EB2C0E9426
:104A3000717D0C94EB2C80E50E947035811106C0CD
:104A400083E50E947035882361F006C00E94D0344F
:104A500081110C94EB2CF4CF0E94C0346F3F710590
:104A600010F06FEF70E070934A08609349080C945F
:104A7000EB2C80E50E947035811106C010924A0827
:104A8000109249080C94EB2C0E94C034672B09F05B
:104A9000A2C7F4CF0E94D3600E94E8CB10924A08CC
:104AA0001092490868EE73E080E090E00E940BC02D
:104AB00060E087EF92E00E940BC18DC720936702F0
:104AC0008AC783E50E947035882399F00E94F434E8
:104AD00020E030E04AE754E40E9431EC0E94DAF131
:104AE0006093590170935A0180935B0190935C012C
:104AF00072C788E50E94273581110C94B82E89E58C
:104B00000E94273581110C94B82E8AE50E94273522
:104B100081110C94B82E85E40E94273581110C94E4
:104B2000B82E0E94E8CB57C783E50E94273588231B
:104B300009F451C70E94F43420E030E04AE754E41D
:104B40000E9431EC0E94DAF160938D1370938E1302
:104B500080938F13909390133EC71EE5C12E11E0F2
:104B6000D12E01EDE02E0DE0F02E10E0D6018D915A
:104B70006D010E942735882309F46DC0133009F0B8
:104B800063C00E94F4344B015C0120E030E040EA55
:104B900051E40E94CBEB87FF4EC0A50194016091C8
:104BA000DD0D7091DE0D8091DF0D9091E00D0E9482
:104BB00061F12B013C019B01AC01609105087091F2
:104BC000060880910708909108080E9431EC6093D4
:104BD0000508709306088093070890930808A301BE
:104BE0009201609125087091260880912708909184
:104BF00028080E9431EC6093250870932608809362
:104C00002708909328086091F1077091F20780912E
:104C1000F3079091F4070E94D0EBA30192010E9448
:104C200031EC0E94DAF16093F1077093F207809300
:104C3000F3079093F4078092DD0D9092DE0DA09221
:104C4000DF0DB092E00D07C00E94F434F7016083DD
:104C50007183828393831F5FF4E0EF0EF11C1430A5
:104C600009F084CF0E948FCBB6C60E9469CA83E543
:104C70000E947035882309F484C80E94C0346230D1
:104C8000710509F07EC80E94D3B78BE50E94833579
:104C900060917C1370917D1380917E1390917F13AE
:104CA00042E00E94FD384091801350918113609141
:104CB00082137091831387E093E00E942FC9409183
:104CC000841350918513609186137091871384E04B
:104CD00093E00E942FC98DE50E9483358AE00E94EF
:104CE000833579C684918F010F5F1F4F882321F090
:104CF0000E948335F801F6CF60E089ED93E00E94D1
:104D0000E47A61E082ED93E00E94E47A61E087EC6E
:104D100093E00E94E47A61E087EB93E00E94E47AFA
:104D200060E08EEA93E00E94E47A61E084EA93E036
:104D30000E94E47A60E08AE993E00E94E47A60E00D
:104D400082E993E00E94E47A60E084E893E00E94C4
:104D5000E47A60E086E793E00E94E47A60E087E628
:104D600093E00E94E47A60E089E593E00E94E47AAF
:104D700060E083E493E00E94E47A60E082E393E001
:104D80000E94E47A60E08DE193E00E94E47A61E0C1
:104D90008AE093E00E94E47A1EC68091F512909119
:104DA000F612DC012C91222321F060E00E9447C121
:104DB00012C60E9448DC0FC60091F5121091F6123F
:104DC00083E0D12C40E08150E1F0F8019081292F5F
:104DD0002B7F2134C1F721812133A9F7913421F0B0
:104DE000953421F441E002C0DD24D39498012E5F74
:104DF0003F4F89012F5F3F4FD8019C919032C9F3FB
:104E0000E2CF442369F0EEEBF8E084917F01BFEF3D
:104E1000EB1AFB0A882321F00E948335F701F5CFB6
:104E2000DD2069F0E3EBF4E084917F012FEFE21ADB
:104E3000F20A882321F00E948335F701F5CFD801CB
:104E40008D918D01882309F4ABCA0E948335F7CF79
:104E50000E9470CEC0C52093EF0D2093EE0DBBC510
:104E600083E50E947035882319F00E94C03402C087
:104E700060E070E08B01112702301105D4F0EFE8FB
:104E8000F8E084918F010F5F1F4F811103C0E7EBA2
:104E9000F4E004C00E948335F801F3CF84918F01C0
:104EA0000F5F1F4F882309F496C50E948335F801D0
:104EB000F5CF88E40E9470358823A9F00E94C034A1
:104EC0006A3A71053CF06530B1E07B072CF064E094
:104ED00071E002C06AEA70E0F801EE0FFF1FE154D2
:104EE000F94F7183608386E40E9470358823A9F0AE
:104EF0000E94C034F801EE0FFF1FED53F94F71838C
:104F000060836F3F710519F014F06FEF70E077FF69
:104F100002C060E070E07183608382E40E947035BB
:104F2000882309F458C50E94C0346530710534F0F7
:104F30006F3671052CF06EE670E002C065E070E03F
:104F4000000F111FF801E554F94F7183608343C5C9
:104F500088EC90E00E949F3881113DC584E40E9456
:104F60002735882309F441C00E94F4346B017C0189
:104F700011E020E030E0A9010E94CBEB811101C0DB
:104F800010E01093D61220E030E0A901C701B6016D
:104F90000E94CBEB882349F10E94F434E091F7069C
:104FA00024E0E29FF0011124EE52FD4E60837183F4
:104FB0008283938320E030E0A9016091D212709146
:104FC000D3128091D4129091D5120E94CBEB811113
:104FD0000CC080E090E0A0EEBFE38093D2129093EB
:104FE000D312A093D412B093D5120E9497C8F3C4E1
:104FF0007EE5E72E71E0F72E0BEC13E1D7018D91E2
:105000007D010E942735882349F00E94F4340E94D4
:10501000DAF1F80160837183828393830C5F1F4F01
:10502000F3E10B3D1F0751F70E94B0C9D4C46EE5F0
:10503000E62E61E0F62E09E118E0D7018D917D01A1
:105040000E942735882339F00E94F434F8016083E8
:105050007183828393830C5F1F4FF8E009321F072F
:1050600061F7B9C483E50E9470358823A1F00E94DE
:10507000F43460931108709312088093130890938E
:10508000140860930D0870930E0880930F08909396
:10509000100810E001C011E080E50E9470358823FF
:1050A00059F00E94F43460931108709312088093B1
:1050B00013089093140810E082E50E94703588234D
:1050C00059F00E94F4346093150870931608809389
:1050D00017089093180810E084E50E947035882323
:1050E00059F00E94F43460930D0870930E08809379
:1050F0000F08909310086FC4112309F46CC44091F9
:1051000011085091120860911308709114088FEDE6
:1051100094E00E942FC940911508509116086091A3
:105120001708709118088CED94E00E942FC94091E7
:105130000D0850910E0860910F087091100889EDCC
:1051400094E00E942FC98AE00E94833544C481E51F
:105150000E942735882351F00E94B03460932D08B7
:1051600070932E0880932F089093300883E50E9457
:105170002735882351F00E94F434609345087093DA
:105180004608809347089093480884E50E94273595
:10519000882351F00E94F4346093410870934208D0
:1051A000809343089093440888E50E94273588231C
:1051B00051F00E94F4346093F9077093FA078093DA
:1051C000FB079093FC0789E50E942735882351F05F
:1051D0000E94F4346093FD077093FE078093FF07ED
:1051E000909300088AE50E942735882351F00E9499
:1051F000F43460930108709302088093030890933D
:10520000040885E40E942735882309F4E4C30E943A
:10521000F434609305087093060880930708909310
:105220000808D9C31F5FF4E0EF0EF11C133011F42E
:105230000C94C11ED6018D916D010E9427358823E3
:1052400089F30E94F434F70160837183828393832E
:10525000812F0E94F233E6CF84918F010F5F1F4FA1
:10526000882321F00E948335F801F6CF83E50E9460
:105270002735882321F00E94E43480933001E7E150
:10528000F5E084918F010F5F1F4F882321F00E946A
:105290008335F801F6CF80913001882319F0EFE0D3
:1052A000F5E002C0E3E1F5E084918F010F5F1F4F4D
:1052B000811103C0E7E0F5E004C00E948335F801E6
:1052C000F3CF84918F010F5F1F4F882321F00E943D
:1052D0008335F801F6CF2091D7063091D80640915A
:1052E000D9065091DA066091E3067091E406809148
:1052F000E5069091E6060E9467F0AB01BC0185E0EF
:1053000095E00E942FC92091DB063091DC06409188
:10531000DD065091DE066091E7067091E806809107
:10532000E9069091EA060E9467F0AB01BC0182E0B9
:1053300095E00E942FC92091DF063091E006409150
:10534000E1065091E2066091EB067091EC068091C7
:10535000ED069091EE060E9467F0AB01BC018FEF65
:1053600094E00E942FC9E7EFF4E084918F010F5F72
:105370001F4F882321F00E948335F801F6CF20913A
:10538000D7063091D8064091D9065091DA0660913F
:1053900024017091250180912601909127010E949E
:1053A00067F0AB01BC0185EF94E00E942FC920910A
:1053B000DB063091DC064091DD065091DE066091FF
:1053C00028017091290180912A0190912B010E945E
:1053D00067F0AB01BC0182EF94E00E942FC92091DD
:1053E000DF063091E0064091E1065091E2066091BF
:1053F0002C0170912D0180912E0190912F010E941E
:1054000067F0AB01BC018FEE94E00E942FC98AE0E7
:105410000E948335E0C283E50E947035882309F439
:10542000DAC20E94C0347093230160932201D3C278
:105430008DED90E00E949F388111CDC283E50E94DE
:105440007035811103C0EEEBF8E03BC00091F70628
:1054500010E00E94C034000F111FF801E05EFE4F03
:10546000718360838091F70690E08C01000F111F1B
:10547000000F111F98012A5C3E4F7901880F991F78
:10548000FC01E05EFE4F60817181072E000C880BED
:10549000990B0E94D2EB2AE037ED43E25CE30E94D5
:1054A00031ECF801ED52F94F208131814281538175
:1054B0000E9431ECD7016D937D938D939C9313974C
:1054C0008AC284918F010F5F1F4F882321F00E94B1
:1054D0008335F801F6CF85E40E9483358091F70685
:1054E000805D0E948335E091F706F0E0EE0FFF1F2C
:1054F000E05EFE4F6081718187E295E00E944CC9B9
:1055000085E20E9483358AE00E94833564C280E58B
:105510000E942735882309F45EC20E94C0346B01C3
:105520007C0183E50E947035882321F00E94C034FD
:105530008B0102C00FEF1FEFC8010196039708F01F
:105540004AC2D7FC48C28C2DEFE2F5E0949189174E
:1055500009F433C43196B5E0EC35FB07B9F730C434
:105560008AE50E947035811153C483E50E9470352D
:1055700081114EC430C283E50E947035882319F032
:105580000E94C03402C064E071E079A368A380E5A2
:105590000E947035882339F00E94C0346938E3E1F5
:1055A0007E0730F402C068EE73E07A83698304C03A
:1055B00088E893E19A838983BE01605E7F4FCE01C4
:1055C00001960E94AA3B07C285E40E9470358111B2
:1055D00010C080E50E942735882391F00E94F434A2
:1055E0006093AE067093AF068093B0069093B106B9
:1055F00007C00E94D034882361F3EFE8F8E071C05F
:1056000089E40E942735882381F00E94F4342CEA33
:1056100035EC47E25EE30E9431EC6093B60670938E
:10562000B7068093B8069093B90684E40E942735A4
:10563000882381F00E94F4342CEA35EC47E25EE3E3
:105640000E9461F16093B2067093B3068093B40632
:105650009093B506EEEBF8E084918F010F5F1F4F3A
:10566000882321F00E948335F801F6CF4091AE06E1
:105670005091AF066091B0067091B10684E695E056
:105680000E942FC92CEA35EC47E25EE36091B60632
:105690007091B7068091B8069091B9060E9461F1A9
:1056A000AB01BC0180E695E00E942FC92CEA35ECE5
:1056B00047E25EE36091B2067091B3068091B40652
:1056C0009091B5060E9431ECAB01BC018CE595E0F0
:1056D0000E942FC98AE00E9483357DC10E948335D4
:1056E000F80184918F010F5F1F4F8111F7CFE8E61A
:1056F000F5E084918F010F5F1F4F882309F46BC180
:105700000E948335F801F5CF83E50E942735182FD5
:10571000882371F00E94F4340E94D3F170933B010E
:1057200060933A0121E0672B09F020E020934B08B9
:1057300080E50E942735882359F020913A01309165
:105740003B01232B11F00E94E43480934B0843C1AA
:10575000111141C1EEEBF8E084918F010F5F1F4FF3
:10576000882321F00E948335F801F6CF80914B0801
:10577000882319F06CE172E002C06FE172E08FE8FB
:1057800095E00E9465C960913A0170913B018EE7F6
:1057900095E00E944CC9EAE7F5E084918F010F5F24
:1057A0001F4F882309F417C10E948335F801F5CFF4
:1057B0000E94957610C10E948335F80184918F0173
:1057C0000F5F1F4F8111F7CFE2EAF5E084918F015F
:1057D0000F5F1F4F882309F4FEC00E948335F80134
:1057E000F5CF0E9469CAF7C00E94709FF4C00E9462
:1057F000AED3F1C00E9497D2EEC083E50E94273558
:10580000882321F00E94E43491E089270E94A4CEED
:10581000E2C081E08093DC130E94FE991092DC13B9
:10582000882309F4D8C0EEEBF8E084918F010F5F74
:105830001F4F811103C0E1EBF5E004C00E948335E6
:10584000F801F3CF84918F010F5F1F4F882309F474
:10585000C2C00E948335F801F5CF8091860388236A
:1058600009F4B9C020938903B6C08BE40E94703557
:10587000811103C0EEEBF8E036C08BE40E94703576
:105880008823C1F00E94F4346B017C0120E030E0F9
:10589000A9010E94C7F287FD0AC020E030E040E283
:1058A00051E4C701B6010E94CBEB181634F4ECEBBF
:1058B000F5E00EC0C12CD12C76010E9469CAC092BD
:1058C0000908D0920A08E0920B08F0920C0883C0F5
:1058D00084918F010F5F1F4F882309F47CC00E94C1
:1058E0008335F801F5CF84918F010F5F1F4F882317
:1058F00021F00E948335F801F6CF409109085091BC
:105900000A0860910B0870910C088BED95E00E94DD
:105910002FC98AE00E9483355EC081E08093110127
:105920001092E40783E50E947035882339F00E94C5
:10593000E434811150C00E940CB84DC083E50E9430
:105940002735F7CF0E94FF9746C0F090F7120E94CC
:1059500069CAFF2029F1EEEBF8E084918F010F5F17
:105960001F4F882321F00E948335F801F6CF84E58C
:105970000E9483356F2D70E080E090E04AE00E9445
:10598000323880E20E948335E8EFF5E084918F01A0
:105990000F5F1F4F8823F9F00E948335F801F6CF7F
:1059A00010928507EEEBF8E084918F010F5F1F4F97
:1059B000882321F00E948335F801F6CF6091850796
:1059C00070E086EE95E00E944CC98AE00E94833523
:1059D00002C00E94FF97109288130E94EFB768C21E
:1059E0000E9439810E94BEB6F6CF0E9469CA80919A
:1059F000540190915501A0915601B09157018093A7
:105A00006B0290936C02A0936D02B0936E02809132
:105A100022019091230190936A028093690284E6A7
:105A200090E0909323018093220111E01093EF0DF9
:105A300088E50E942735282E89E50E942735382ED3
:105A40008AE50E942735A82E211005C0311005C017
:105A5000BA2CB12605C0311002C0B12C01C0BA2C3D
:105A600080E1EDEFFDE0A2EAB3E101900D928A95AD
:105A7000E1F782E50E947035882369F00E94F434D2
:105A80002B013C0120E030E0A9010E94CBEB8823F0
:105A900009F43FC006C0412C512C50EA652E50E459
:105AA000752EB11005C0211003C0332009F41DC1AB
:105AB0004092AA135092AB136092AC137092AD1344
:105AC000A30192016091050E7091060E8091070E60
:105AD0009091080E0E94CBEB87FF1BC019821A829F
